:020000040800F2
:1000000000000220210A00081D0A00081D920008B5
:100010001D0A00081D0A00081D0A00080000000053
:100020000000000000000000000000001D0A0008A1
:100030001D0A0008000000001D0A00080D920008BB
:100040001D0A00081D0A00081D0A00081D0A0008F4
:100050001D0A00081D0A00081D0A00081D0A0008E4
:100060001D0A00081D0A00081D0A00083D79000845
:10007000497900081D0A00085579000861790008CF
:10008000418F00081D2901081D0A00081D0A0008EB
:100090001D0A00081D0A00081D0A00081D0A0008A4
:1000A0001D0A00081D0A00081D0A00081D0A000894
:1000B0001D0A00081D0A00081D0A00085129010830
:1000C0001D0A00085D2901081D0A00081D0A000814
:1000D0001D0A000831890008D9890008858A0008AE
:1000E0001D0A00081D0A0008000000001D0A000883
:1000F0001D0A00081D0A00081D0A00081D0A000844
:100100001D0A00081D0A00081D0A00081D0A000833
:10011000318B0008DD8B00081D0A00081D0A00084D
:100120001D0A00081D0A00081D0A00081D0A000813
:100130001D0A00081D0A00081D0A00081D0A000803
:1001400000000000000000000000000000000000AF
:100150001D0A00081D0A00081D0A0008898C0008F5
:10016000692901081D0A0008596F0008656F000819
:100170001D0A0008716F00081D0A00081D0A00080A
:100180001D0A00081D0A0008358D0008E18D0008D1
:100190001D0A00081D0A00081D0A00081D0A0008A3
:1001A0001D0A00081D0A00081D0A00081D0A000893
:1001B000857600081D0A00081D0A00081D0A0008AF
:1001C0001D0A00081D0A00087D6F0008896F0008DD
:1001D0001D0A0008956F00081D0A00081D0A000886
:1001E0001D0A00081D0A00081D0A00081D0A000853
:1001F0001D0A00081D0A00081D0A00081D0A000843
:100200001D0A00081D0A00081D0A00081D0A000832
:100210001D0A00081D0A00081D0A00081D0A000822
:100220001D0A00081D0A00081D0A00080000000041
:100230001D0A00081D0A0008000000001D0A000831
:100240001D0A00081D0A00081D0A00081D0A0008F2
:100250001D0A00081D0A00081D0A00081D0A0008E2
:100260001D0A00081D0A00081D0A00081D0A0008D2
:100270001D0A00081D0A00088D8E000800000000FD
:100280001D0A00081D0A00081D0A000800000000E1
:08029000000000001D0A000837
:1002A00010B5054C237833B9044B13B10448AFF3B0
:1002B00000800123237010BD4004002400000000D2
:1002C000D87D010808B5034B1BB103490348AFF3C0
:1002D000008008BD0000000044040024D87D01080F
:1002E00010F8012B11F8013B012A28BF9A42F7D0E0
:1002F000D01A70470000000000000000000000005D
:1003000001F0FF01102A2BDB10F0070F08D010F8C6
:10031000013B013A8B422DD010F0070F42B3F6D1CA
:10032000F0B441EA012141EA014122F007047FF0E3
:1003300000070023F0E80256083C85EA010586EA3A
:10034000010685FA47F5A3FA87F586FA47F6A5FA76
:1003500087F68EB9EED1F0BC01F0FF0102F0070282
:1003600032B110F8013B013A83EA010313B1F8D12D
:100370000020704701387047002D06BF354603380E
:10038000073815F0010F07D1013015F4807F02BF47
:10039000013015F4C03F0130F0BC0138704700BF98
:1003A00081F0004102E000BF83F0004330B54FEA26
:1003B00041044FEA430594EA050F08BF90EA020F93
:1003C0001FBF54EA000C55EA020C7FEA645C7FEA26
:1003D000655C00F0E2804FEA5454D4EB5555B8BF49
:1003E0006D420CDD2C4480EA020281EA030382EABA
:1003F000000083EA010180EA020281EA0303362D4C
:1004000088BF30BD11F0004F4FEA01314FF4801C1E
:100410004CEA113102D0404261EB410113F0004F30
:100420004FEA03334CEA133302D0524263EB4303E7
:1004300094EA050F00F0A780A4F10104D5F1200E85
:100440000DDB02FA0EFC22FA05F2801841F10001E0
:1004500003FA0EF2801843FA05F359410EE0A5F1B4
:1004600020050EF1200E012A03FA0EFC28BF4CF0E5
:10047000020C43FA05F3C01851EBE37101F000459B
:1004800007D54FF0000EDCF1000C7EEB00006EEBA8
:100490000101B1F5801F1BD3B1F5001F0CD3490832
:1004A0005FEA30004FEA3C0C04F101044FEA445289
:1004B00012F5800F80F09A80BCF1004F08BF5FEA10
:1004C000500C50F1000041EB045141EA050130BDF0
:1004D0005FEA4C0C404141EB0101013C28BFB1F502
:1004E000801FE9D291F0000F04BF01460020B1FA4D
:1004F00081F308BF2033A3F10B03B3F120020CDA20
:100500000C3208DD02F1140CC2F10C0201FA0CF0FD
:1005100021FA02F10CE002F11402D8BFC2F1200C62
:1005200001FA02F120FA0CFCDCBF41EA0C01904018
:10053000E41AA2BF01EB0451294330BD6FEA040461
:100540001F3C1CDA0C340EDC04F11404C4F120024C
:1005500020FA04F001FA02F340EA030021FA04F35E
:1005600045EA030130BDC4F10C04C4F1200220FAB5
:1005700002F001FA04F340EA0300294630BD21FAF3
:1005800004F0294630BD94F0000F83F4801306BFB9
:1005900081F480110134013D4EE77FEA645C18BFAD
:1005A0007FEA655C29D094EA050F08BF90EA020F44
:1005B00005D054EA000C04BF1946104630BD91EA3C
:1005C000030F1EBF0021002030BD5FEA545C05D13F
:1005D0004000494128BF41F0004130BD14F580047E
:1005E0003CBF01F5801130BD01F0004545F0FE41F2
:1005F00041F470014FF0000030BD7FEA645C1ABF27
:10060000194610467FEA655C1CBF0B46024650EA5D
:10061000013406BF52EA033591EA030F41F4002189
:1006200030BD00BF90F0000F04BF0021704730B50F
:100630004FF4806404F132044FF000054FF00001E4
:1006400050E700BF90F0000F04BF0021704730B5A5
:100650004FF4806404F1320410F0004548BF40427A
:100660004FF000013EE700BF42004FEAE2014FEACF
:1006700031014FEA02701FBF12F07F4393F07F4FAA
:1006800081F06051704732F07F4208BF704793F0AD
:100690007F4F04BF41F40021704730B54FF46074C0
:1006A00001F0004521F000411CE700BF50EA0102C3
:1006B00008BF704730B54FF000050AE050EA01026C
:1006C00008BF704730B511F0004502D5404261EBDC
:1006D00041014FF4806404F132045FEA915C3FF41D
:1006E000D8AE4FF003025FEADC0C18BF03325FEABA
:1006F000DC0C18BF033202EBDC02C2F1200300FA6B
:1007000003FC20FA02F001FA03FE40EA0E0021FA8F
:1007100002F11444BDE600BF53B94AB9002908BF2D
:1007200000281CBF4FF0FF314FF0FF3000F074B9CC
:10073000ADF1080C6DE904CE00F006F8DDF804E038
:10074000DDE9022304B070472DE9F047089D044617
:100750008E46002B4DD18A42944669D9B2FA82F274
:1007600052B101FA02F3C2F1200120FA01F10CFAB0
:1007700002FC41EA030E94404FEA1C48210CBEFBE8
:10078000F8F61FFA8CF708FB16E341EA034306FB71
:1007900007F199420AD91CEB030306F1FF3080F000
:1007A0001F81994240F21C81023E63445B1AA4B24D
:1007B000B3FBF8F008FB103344EA034400FB07F7EF
:1007C000A7420AD91CEB040400F1FF3380F00A8130
:1007D000A74240F207816444023840EA0640E41B25
:1007E00000261DB1D4400023C5E900433146BDE8D1
:1007F000F0878B4209D9002D00F0EF800026C5E973
:10080000000130463146BDE8F087B3FA83F6002E8A
:100810004AD18B4202D3824200F2F980841A61EB02
:10082000030301209E46002DE0D0C5E9004EDDE720
:1008300002B9FFDEB2FA82F2002A40F09280A1EB08
:100840000C014FEA1C471FFA8CFE0126200CB1FB5D
:10085000F7F307FB131140EA01410EFB03F0884256
:1008600008D91CEB010103F1FF3802D2884200F2E3
:10087000CB804346091AA4B2B1FBF7F007FB101175
:1008800044EA01440EFB00FEA64508D91CEB040413
:1008900000F1FF3102D2A64500F2BB800846A4EB6E
:1008A0000E0440EA03409CE7C6F12007B34022FA59
:1008B00007FC4CEA030C20FA07F401FA06F31C4388
:1008C000F9404FEA1C4900FA06F3B1FBF9F8200C95
:1008D0001FFA8CFE09FB181140EA014108FB0EF0DB
:1008E000884202FA06F20BD91CEB010108F1FF3A2B
:1008F00080F08880884240F28580A8F10208614437
:10090000091AA4B2B1FBF9F009FB101144EA014144
:1009100000FB0EFE8E4508D91CEB010100F1FF34EF
:100920006CD28E456AD90238614440EA0840A0FB87
:100930000294A1EB0E01A142C846A64656D353D05D
:100940005DB1B3EB080261EB0E0101FA07F722FA81
:1009500006F3F1401F43C5E9007100263146BDE8AA
:10096000F087C2F12003D8400CFA02FC21FA03F30D
:10097000914001434FEA1C471FFA8CFEB3FBF7F08E
:1009800007FB10360B0C43EA064300FB0EF69E42B3
:1009900004FA02F408D91CEB030300F1FF382FD24C
:1009A0009E422DD9023863449B1B89B2B3FBF7F6F4
:1009B00007FB163341EA034106FB0EF38B4208D9CD
:1009C0001CEB010106F1FF3816D28B4214D9023E0E
:1009D0006144C91A46EA004638E72E46284605E72C
:1009E0000646E3E61846F8E64B45A9D2B9EB0208FD
:1009F00064EB0C0E0138A3E74646EAE7204694E78D
:100A00004046D1E7D0467BE7023B614432E73046BF
:100A100009E76444023842E7704700BFFEE700BFC1
:100A20000B480C4A904203D0121A0B4914F082FB77
:100A30000A480B4A904203D0121A002114F088FB96
:100A400008F058FD14F04AFB04F0F2FDFEE700BF89
:100A50000000002440040024007E0108400400241B
:100A6000FCD70024802070474020704738B5012211
:100A7000044600234FF07E5C4FF07C51164DC0F8C9
:100A800094C0037280F8EC2180F87420C0F88C5078
:100A90000A25C0F89811C0F8A4111049C0E96023D4
:100AA000C0E91B33C0E96B33C0E95B22C0E96222B5
:100AB000C0E9643384F8E4310023C4F8E85100F558
:100AC0008E7023606360C4F87831C4F8743114F018
:100AD0003BFC204638BD00BF000020411C650108DA
:100AE0002DE9F04F90F8E45185B00C464FF4806248
:100AF0006F42009001F11400FFB20190394614F0EA
:100B000027FB85F001004FF0360C062107E092F834
:100B100014E0013146EA0E062229167513D0CA08E0
:100B200001F0070E01260CEBC21206FA0EF6224463
:100B3000002DECD092F81490013129EA0608222900
:100B400082F81480EBD10CF1010CBCF14D0FDCD11B
:100B500004F10806002800F08A8347F0100384F8A7
:100B60004A33252307E09CF84A1001330A43342B0B
:100B70008CF84A2016D001224FEAD30C03F0070864
:100B8000964604EBCC1C02FA08F20028EBD19CF844
:100B90004A200EFA08FE013322EA0E0E342B8CF89E
:100BA0004AE0E8D1002800F0658347F0100784F898
:100BB0004D736FF00B0E25274FF0360CBCF17F0FF5
:100BC00015D83F2F13D8FA0807F007084FF0010A8D
:100BD0000CEBC2120AFA08F911462144002800F071
:100BE000068391F814A049EA0A0981F814904FEAA3
:100BF0004E0212F10E0FC0F2F682022A0CF1010C25
:100C0000AEF10F0E40F3EF82BCF1390FD6D1342F85
:100C1000D4D194F85022002800F0328342F0200210
:100C20006FF00B0C392784F850227F2F14D83F2BFC
:100C300012D8DA0803F007084FF0010E07EBC212D2
:100C40000EFA08FE11462144002800F0D7820A7DE2
:100C50004EEA020E81F814E04FEA4C0212F10E0F38
:100C6000C0F2BD82022A07F10107ACF10F0C40F37C
:100C7000B6823C2FD9D1252BD7D194F850330028F8
:100C800000F0FB8243F01003252284F8503307E084
:100C900097F8501001320B43342A87F8503015D0A2
:100CA0000123D70802F0070E9C4604EBC71703FA8E
:100CB0000EF30028ECD197F850300CFA0EFC0132FC
:100CC00023EA0C0C342A87F850C0E9D194F8523248
:100CD000002800F0D88243F0200384F852323423F5
:100CE00007E09CF85270013B3943252B8CF85210D9
:100CF00016D001214FEAD30C03F007088E4604EB0F
:100D0000CC1C01FA08F10028EBD19CF852100EFA25
:100D100008FE013B21EA0E0E252B8CF852E0E8D1AB
:100D200094F8D532002800F0B18243F0200384F813
:100D3000D53204F2D52704F2D22306E041F0200197
:100D4000013303F8011C9F4209D019780028F5D11E
:100D500021F02001013303F8011C9F42F5D194F8E2
:100D60005532002800F0958243F0200384F8553274
:100D700007E097F85510013A0B43252A87F85530BC
:100D800015D00123D70802F0070E9C4604EBC717C5
:100D900003FA0EF30028ECD197F855300CFA0EFC4C
:100DA000013A23EA0C0C252A87F855C0E9D194F8BA
:100DB0005733002800F0708243F0100384F8573353
:100DC000252307E09CF8577001333943342B8CF806
:100DD000571016D001214FEAD30C03F007088E46B6
:100DE00004EBCC1C01FA08F10028EBD19CF8571059
:100DF0000EFA08FE013321EA0E0E342B8CF857E070
:100E0000E8D194F85A13002800F04C8241F0100108
:100E10006FF00B0E4FF0430C84F85A13BCF17F0FA8
:100E200015D83F2A13D8D10802F007084FF0010A5D
:100E30000CEBC1110AFA08F90F462744002800F00C
:100E4000E88197F814A049EA0A0987F814904FEA54
:100E50004E0111F10E0FC0F2D88102290CF1010CE4
:100E6000AEF10F0E40F3D181BCF1460FD6D1342A3A
:100E7000D4D194F85A22002800F0118242F02002C6
:100E800084F85A22342207E09CF85A70013A394318
:100E9000252A8CF85A1016D001214FEAD20C02F004
:100EA00007088E4604EBCC1C01FA08F10028EBD1B0
:100EB0009CF85A100EFA08FE013A21EA0E0E252A75
:100EC0008CF85AE0E8D194F85C22002800F0ED811B
:100ED00042F0200284F85C2207E097F85C10013BA6
:100EE0000A43252B87F85C2015D00122DF0803F088
:100EF000070E944604EBC71702FA0EF20028ECD155
:100F000097F85C200CFA0EFC013B22EA0C0C252B16
:100F100087F85CC0E9D194F86022002800F0C8810D
:100F200042F0200284F8602294F85E2242F020020F
:100F300084F85E2294F85F2242F0200284F85F2257
:100F400094F8E02242F010026FF0040C4A2784F873
:100F5000E0227F2F14D83F2B12D8DA0803F00708BD
:100F60004FF0010E07EBC2120EFA08FE11462144A3
:100F7000002800F05D810A7D4EEA020E81F814E03F
:100F80004FEA4C02911DC0F24F81012A07F101077F
:100F9000ACF1070C40F348814C2FDAD12C2BD8D17F
:100FA00094F85E33002800F0988143F010036FF04E
:100FB000050C2C214C2784F85E337F2F14D83F2951
:100FC00012D8CB0801F007084FF0010E07EBC3134E
:100FD0000EFA08FE1A462244002800F03081137DE4
:100FE0004EEA030E82F814E04FEA4C03DA1DC0F219
:100FF0001781012B07F1FF37ACF1080C40F310818A
:101000004A2FDAD13429D8D194F86033002800F07F
:101010001D8143F0100384F8603394F85E3343F08D
:10102000100384F85E3394F85F3343F0100384F8C0
:101030005F33009BF0EE006ADFEDAB7AB24693EDD2
:10104000787A4FF0000E2E4677EE277A37EE266A32
:1010500077EEA67AFCEEC66AFCEEE77A16EE90BA58
:1010600017EE909ACB4524D8BEF17F0F5B4694BF14
:101070000025012505E00F7D3843087501339945AA
:1010800017D33F2BFAD8002DF8D1D90803F0070069
:1010900001270EEBC11107FA00F02144002EEAD11E
:1010A00091F81480013328EA000C994581F814C0A6
:1010B000E7D20EF1010EBEF1810FD3D1B7EEC77AA0
:1010C000DFED8A6AF0EE005A9FED876A009B354695
:1010D0004FF0000C9FED824B37EE447BB7EEC77BA1
:1010E00076EEC77A83ED787A37EE255A77EEA57AD1
:1010F00036EE457AFCEEE77ABCEEC77A17EE909AA8
:1011000017EE10BACB4524D8BCF17F0F5B4694BFD5
:101110000025012505E00F7D384308750133994509
:1011200017D33F2BFAD8002DF8D1D90803F00700C8
:1011300001270CEBC11107FA00F02144002EEAD17F
:1011400091F81480013328EA000E994581F814E0E3
:10115000E7D20CF1010CBCF1810FD3D156460AF154
:101160000805DDF80480B024002728468DF80F40DC
:101170000134394605F0FEFF642301220DF10F0111
:101180003046E4B207F012F8394628468DF80F7061
:1011900005F0F0FF012264230DF10F01304607F046
:1011A00005F81023394628468DF80F3005F0E2FF88
:1011B000642301220DF10F01304606F0F7FF0121F3
:1011C000284605F0D7FF80224146642330469044EC
:1011D00006F0ECFFB82CC7D105B0BDE8F08F0CF1DC
:1011E000030C013B45E50EF1030E01370CE591F8C8
:1011F00014B02BEA090881F81480F8E491F814A0DF
:101200002AEA0E0881F8148026E50EF1030E013259
:101210002AE697F814B02BEA090887F8148016E636
:101220000CF1020C0131EBE60CF1020C0133B3E6D8
:1012300091F814A02AEA0E0881F81480A0E692F82A
:1012400014A02AEA0E0882F81480CDE623F01003D9
:1012500084F8603394F85E3323F0100384F85E332F
:1012600094F85F3323F0100384F85F33E1E607F06E
:10127000EF0374E407F0EF0799E403F0EF0303E5ED
:1012800002F0DF02CCE403F0DF0326E503F0DF0326
:101290004DE503F0DF0369E503F0EF038EE502F0AF
:1012A000DF02EDE501F0EF01B2E502F0DF0211E649
:1012B00022F0200284F8602294F85E2222F02002BC
:1012C00084F85E2294F85F2222F0200284F85F22E4
:1012D00094F8E02202F0EF0236E603F0EF0366E650
:1012E0009A9999999999B93F00000042000080426B
:1012F0002DE9F04F87B09DF84850109C2E4601957F
:101300009DF844509EB399422ED89946A24228D8BF
:101310007F29164694BF0023012308E09CF814801F
:101320004EEA080E8CF814E00136B44219D33F2E71
:10133000FAD8002BF8D14FEAD60C06F0070E4FF082
:10134000010801EBCC1C08FA0EFE8444002DE5D107
:101350009CF814B001362BEA0E0AB4428CF814A0A3
:10136000E5D201318945D1D207B0BDE8F08FA3EBBA
:101370000108B8F1000FB8BFC8F100089942C0F0E9
:101380004E817F2B4FF0FF3A94BF002601263F2A63
:10139000009694BF002701270297A6B99FB9D608E7
:1013A00002F0070C012703EBC6160644002D00F0DF
:1013B000948107FA0CF796F814C047EA0C073775C2
:1013C000002602960096994200F097814646944680
:1013D0008E46BEF17F0F16D8BCF13F0F13D84FEAEF
:1013E000DC070CF0070B4FF001090EEBC7170744A1
:1013F000002D00F0398109FA0BF997F814B049EA89
:101400000B0987F81490770018BFD644B84502DD61
:1014100046440CF1FF3C7345DBD16245D9D100262F
:101420000496A4EB0209009FB9F1000FB8BFC9F1FF
:1014300000093F2C94BF00260126A242C9F10008F2
:101440000396C0F02381002F40F05081002E40F021
:101450004D814FF0FF360096E60803EBC6160644B2
:10146000002D00F01E814FF0010C04F007070CFA6C
:1014700007F796F814C047EA0C073775002603965D
:10148000A24200F03D81C44616461F4605927F2FBA
:1014900015D83F2E13D84FEAD60E06F0070B4FF0A3
:1014A000010A07EBCE1E8644002D00F0E6800AFA02
:1014B0000BFA9EF814B04AEA0B0A8EF814A0B8EBA7
:1014C0004C0F4FEA4C0E02DAACEB090C013FBEF1B7
:1014D000000F01D0009A1644BB42D8D1B442D6D1F5
:1014E000059AA1EB030EBEF1000FB8BFCEF1000EBE
:1014F0007F2994BF4FF0000A4FF0010A99428CBF38
:101500004FF001094FF0FF39BAF1000F13D1039EDC
:101510008EB9E60801EBC6160644002D00F0D38014
:101520004FF0010C04F007070CFA07F796F814C007
:1015300047EA0C073775049E26BB774626467F2B65
:1015400014D83F2E12D84FEAD60C06F0070B4FF0F6
:10155000010803EBCC1C8444002D73D008FA0BF86F
:101560009CF814B048EA0B088CF814805FEA470C2A
:1015700018BF4B44E64501DD7744013E9942DED178
:10158000B442DCD1A2EB040EBEF1000FB8BFCEF125
:10159000000EA2428CBF4FF001084FF0FF38CEF191
:1015A000000CBAF1000F0ED1029B63B9D30802F010
:1015B0000707012601EBC3130344002D7CD0BE4076
:1015C0001F7D3E431E75019B002B7FF4CDAE66460A
:1015D0000B467F2B12D83F2C10D8E70804F0070ADF
:1015E0004FF0010903EBC7170744A5B309FA0AF93D
:1015F00097F814A049EA0A0987F81490BCEB460F43
:101600004FEA460702DAA6EB0E06013B07B1444457
:101610009942DED1A242DCD107B0BDE8F08F3F2A6B
:101620004FF0010A94BF002601267F2B029694BF3B
:10163000002701270097002E7FF4C8AE002F3FF44B
:10164000AEAEC3E608FA0BFB9CF8148028EA0B0840
:101650008CF814808AE709FA0AFA97F8149029EAB4
:101660000A0987F81490C9E709FA0BFB97F8149058
:1016700029EA0B0987F81490C5E60AFA0BFB9EF8D5
:1016800014A02AEA0B0A8EF814A018E797BB8EBBA9
:1016900001260096E60803EBC6160644002D7FF4EB
:1016A000E2AE012704F0070C039507FA0CFC377D26
:1016B00027EA0C073775E3E606FA07F71E7D26EAE8
:1016C00007061E757FE7012704F0070C07FA0CFCDC
:1016D000377D27EA0C0737752DE707FA0CFC377DB5
:1016E000029527EA0C07009537756CE64FF0FF3638
:1016F0000096C5E601260096C5E60126049690E60A
:1017000001260196EDE600BF2DE9F04F89B008AC47
:101710009DF84870019104E90C000B78002B00F053
:10172000AB801A469DF818809DF81930064645464C
:1017300090460393079B0593A8F12004E3B25E2B28
:1017400000F29E8033685E4ADB68934240F09B80E3
:101750008020B3882B44834200F392803368594A37
:101760009B68934240F092804020F188039A029156
:101770008B18834200F38480002A00F0918002FBE2
:1017800004F46FF00049059BA1441444B6F804B07A
:1017900003EB4909023BCDF8108003EB44030C46F0
:1017A0009A4639F802CFA5B304F007034FF0010EB3
:1017B000E20859460EFA03FE0BF114034FFA8EFEAF
:1017C00003EBC21200236FEA0E0832440DE07F29BA
:1017D00006D83F2C04D8107897B14EEA000010705C
:1017E000013301320131AB4213D00CFA03F0000493
:1017F000EDD47F29F4D83F2CF2D81078002FECD00C
:10180000013308EA000001320131AB4202F8010C59
:10181000EBD1D14504F10104C3D1DDF81080326869
:101820000BEB05042649D368A4B28B4234D1802047
:10183000844204D3D36822498B423AD17F249368EF
:10184000204AB480934224D14020029B834206D395
:1018500033681C4A9B68934225D13F230293029B25
:10186000F380019B1878404507D113F8018F01934D
:10187000B8F1000F7FF460AF002009B0BDE8F08F31
:101880004FF00008EDE73046984762E7304698474A
:101890006BE730469847D8E7304698473268C7E745
:1018A000B6F804B0BBE730469847013883B20293DC
:1018B000D5E7304698470138326884B2BFE700BFA9
:1018C000650A0008690A00082DE9F04F0C46074632
:1018D00089B0154600214FF4806204F1140013F022
:1018E00037FC97F851307F2BD7F8AC3100F0CB8420
:1018F00097F861207F2A00F0DC81002B00F0E28164
:10190000012B00F07E82022B00F01E83032B00F0DF
:101910009983BB4D0126BB4B20460096BA496360B4
:1019200095E80C00FFF7F0FEB84B00962046B8494A
:10193000636095E80C00FFF7E7FEB64B0096204683
:10194000B549636095E80C00FFF7DEFEB34B0096E7
:101950002046B349636095E80C00FFF7D5FED7ED4C
:10196000697ABCEEE77A17EE101A81EAE179A9EB01
:10197000E179002900F01F837F29A9F1220C04F1ED
:101980000805B04640F21D833B200026C308012213
:1019900000F0070A7F2E06EBC3130CFA02FE02FAD0
:1019A0000AF2234406D83F2804D893F814A042EA48
:1019B0000A021A751EF1210FC0F20B83F14546444D
:1019C000ACF1220C00F30583B142DFD11928DDD13F
:1019D000D7ED726A9FED937A97ED6E6A37EE667A6D
:1019E00077EE867ABCEEC77AFCEEE76A17EE102A2D
:1019F00016EE906AA2F11903A6EB010E83EAE370DA
:101A0000BEF1000FA0EBE370B8BFCEF1000E0346AD
:101A10000290B14234BF01204FF0FF30192A0390E9
:101A200000F2DA82AEEB030C7F2E4FF0FF3304930B
:101A30000DD8D30802F00708012006EBC31300FA03
:101A400008F0234493F8148040EA08001875B14266
:101A500008BF192A0CBF01230023059300F0568408
:101A6000029B1920C3F1000A4FF0010BC30800F0DC
:101A700007087F2901EBC3130CFA0BF90BFA08F8DE
:101A800008D83F28234405D893F814B048EA0B0837
:101A900083F81480BAEB4C0F04DA029BACEB030C16
:101AA000039B1944CE4502DD049BF44418448E4246
:101AB000DAD18242D8D19FED5C7A77EE877ABCEE9C
:101AC000E77A17EE101AA1EB0608B8F1000FB8BFBD
:101AD000C8F100088E42C0F097827F294FF0FF398D
:101AE0000FD8059B6BB9D30802F0070C012001EB5E
:101AF000C31300FA0CF0234493F814C040EA0C001E
:101B000018758E4222D0C64694464FEADC030CF08C
:101B1000070A01207F2E06EBC31300FA0AF008D84B
:101B2000BCF13F0F234404D893F814A040EA0A0004
:101B300018755FEA4E0318BF4E44984502DDC6444F
:101B40000CF1FF3CB142E0D16245DED197ED767AEF
:101B5000C2F13B0877EE877AB8F1000FB8BFC8F141
:101B60000008FCEEE77A17EE90CAACEB010EBEF16E
:101B7000000FB8BFCEF1000E614534BF4FF0010A2F
:101B80004FF0FF3A3A2AAEEB080040F236824FF0AF
:101B9000FF33BCF17F0F029306D80CF5607323442A
:101BA0001E7D46F008061E75614501D13B2A3DD0D9
:101BB000C8F100094FF0010BD30802F007067F2996
:101BC00001EBC31300FA0BF70BFA06F607D83F2A0E
:101BD000234404D893F814B046EA0B061E75B9EBFB
:101BE000400F02DAA0EB08005144BE4502DD029B23
:101BF00070441A448C45DDD13B2ADBD116E000BF8E
:101C00006802002420000400286501083000040058
:101C10002C650108400004003065010850000400F4
:101C20003465010800006C420000004205F108071D
:101C300005F10C0605F20C49B0244FF000083846B7
:101C40008DF81F400134414605F094FA64230122C7
:101C50000DF11F012846E4B206F0A8FA41463846C5
:101C60008DF81F8005F086FA012264230DF11F0113
:101C7000284606F09BFA1023414638468DF81F305F
:101C800005F078FA642301220DF11F01284606F0C1
:101C90008DFA0121384605F06DFA80223146642321
:101CA0001644284606F082FA4E45C6D109B0BDE872
:101CB000F08F0133032BC7F8AC317FF71EAE002342
:101CC000C7F8AC3197ED667AD7ED126AB7EEC77AEE
:101CD000D7F8E831B8EEE64B9FEDD15BA4EE057B7B
:101CE000B7EEC77B87ED667AA3B1A84600269FEDC5
:101CF000CE0A0121404608F1300887EE000A0E4462
:101D000011F0B6F9D7F8E83197ED667AB342EED81C
:101D1000D7ED126AF8EEE67A97ED696ADFEDC36AED
:101D200077EE867AF4EEE67AF1EE10FA80F2268209
:101D3000F5EEC07A0023F1EE10FA88BFC7ED697A9C
:101D4000DFEDB97A98BFC7F8A431B4EEE77AF1EEC7
:101D500010FAC0F21D82C7ED667A94F83C2004F1B7
:101D60002F0304F13B0142F0010284F83C2013F8F8
:101D7000012F42F0010299421A70F8D194F8BC2068
:101D8000002342F0200284F8BC20D90803F00700A9
:101D9000012204EBC1111344824091F83C000D2B49
:101DA00042EA000281F83C20EFD194F8B02004F11F
:101DB000B10042F0200284F8B02004F1BD0212F814
:101DC000011D41F0200190421170F8D194F83020AB
:101DD00042F0010284F83020D90803F00700012204
:101DE000013B04EBC11102FA00F291F8300042EA23
:101DF000000281F83020EFD1D7F8AC31012B7FF40D
:101E000082ADBB6C97ED6D7A07EE903AD7F8E8217A
:101E1000B8EEE75BB7EEC77A9FED816BA5EE067B68
:101E2000B7EEC77B87ED6D7AAAB1A846002697ED7D
:101E3000660A4046DFED7C7A0221013608F130085F
:101E400080EE270A11F014F9D7F8E831B342EED842
:101E500097ED6D7ABB6C07EE903A97ED6E6ADFED09
:101E6000736AF8EEE77A77EE867AF4EEE67AF1EEC8
:101E700010FA80F22182F5EEC07A0023F1EE10FA1A
:101E800088BFC7ED6E7ADFED687A98BFC7F8B831C2
:101E9000B4EEE77AF1EE10FAC0F21882C7ED6D7A6F
:101EA00094F84C2004F13F0304F14B0142F001028D
:101EB00084F84C2013F8012F42F0010299421A7065
:101EC000F8D194F8CC20002342F0200284F8CC20F2
:101ED000D90803F00700012204EBC111134482402A
:101EE00091F84C000D2B42EA000281F84C20EFD112
:101EF00094F8C02004F1C10042F0200284F8C02010
:101F000004F1CD0212F8011D41F020019042117040
:101F1000F8D194F8402042F0010284F84020D9081A
:101F200003F007000122013B04EBC11102FA00F2A9
:101F300091F8400042EA000281F84020EFD1D7F842
:101F4000AC31022B7FF4E2AC97ED707AD7ED125AE8
:101F5000B7EEC77AD7F8E831B8EEE54B9FED306BB6
:101F6000A4EE067BB7EEC77B87ED707A002B00F0FE
:101F7000188103EB430305EB03130EE0F4EE667ADE
:101F8000F1EE10FA76FEA77A2A463035AB42C2ED62
:101F9000007A97ED707A00F004819FED236AF7EEE6
:101FA000006AC7EE067AF5EEC07AF1EE10FAE5D8CF
:101FB000DFED1F7AE8E7A9F1220C04F108054FF0E4
:101FC000FF3801F5C07323441A7D42F002021A75EE
:101FD000DAE4CC440138F7E4029B3F2AAEEB030C71
:101FE00094BF002301237F2E059300F28B81002BE9
:101FF00040F08881012304931BE50123BCF17F0F8E
:1020000002937FF6CAADD3E57F294FF001093FF671
:102010007AAD059B002B3FF466AD74E5AFF300800D
:102020006666666666660A400000C84200000042B6
:102030000AD723BC97F8613003227F2BC7F8AC2165
:102040003FF43DAEBB6C97ED747A07EE903AD7F84B
:10205000E821B8EEE75BB7EEC77A9FEDAF6BA5EE70
:10206000067BB7EEC77B87ED747A8AB100269FEDB9
:10207000AC0A28460421013687EE000A303510F0FC
:10208000F7FFD7F8E83197ED747AB342EFD8BB6C1D
:1020900007EE903A97ED766ADFEDA26AF8EEE77AFE
:1020A00077EE867AF4EEE67AF1EE10FA80F2178196
:1020B000F5EEC07A0023F1EE10FA88BFC7ED767A0C
:1020C000DFED977A98BFC7F8D831B4EEE77AF1EE32
:1020D00010FAC0F20E81C7ED747A94F86C2004F106
:1020E0005F0304F16B0142F0010284F86C2013F8E5
:1020F000012F42F0010299421A70F8D194F8EC20B5
:10210000002342F0200284F8EC20D90803F00700F5
:10211000012204EBC1111344824091F86C000D2B95
:1021200042EA000281F86C20EFD194F8E01004F14B
:10213000ED0204F1E10041F0200184F8E01012F812
:10214000011D41F0200190421170F8D194F86020F7
:1021500042F0010284F86020D90803F00700012250
:10216000013B04EBC11102FA00F291F8600042EA6F
:10217000000281F86020EFD1FFF7CBBBDFED687A7A
:10218000C7ED696AB4EEE77AF1EE10FABFF6E3AD97
:10219000B5EEC07A0023F1EE10FA98BFC7F8983177
:1021A000DBE5F8EEE57A97ED726ADFED5E6A77EED1
:1021B000867AF4EEE67AF1EE10FA6BDAF5EEC07A92
:1021C0000023F1EE10FA88BFC7ED727ADFED547A82
:1021D00098BFC7F8C831B4EEE77AF1EE10FA62DBC7
:1021E000C7ED707A94F85C2004F14F0304F15B01B1
:1021F00042F0010284F85C2013F8012F42F0010242
:1022000099421A70F8D194F8DC20002342F02002A1
:1022100084F8DC20D90803F00700012204EBC11187
:102220001344824091F85C000D2B42EA000281F8D1
:102230005C20EFD194F8D01004F1DD0204F1D1005C
:1022400041F0200184F8D01012F8011D41F0200166
:1022500090421170F8D194F8502042F0010284F8B5
:102260005020D90803F007000122013B04EBC11103
:1022700002FA00F291F8500042EA000281F8502080
:10228000EFD1FFF746BB013B3FF5D4AEC7F8AC3109
:10229000FFF72EBBDFED227AC7ED726AB4EEE77A64
:1022A000F1EE10FA9CDAB5EEC07A0023F1EE10FAE6
:1022B00098BFC7F8C03195E7DFED197AC7ED6E6AB0
:1022C000B4EEE77AF1EE10FABFF6E8ADB5EEC07AFB
:1022D0000023F1EE10FA98BFC7F8B431E0E5DFED66
:1022E000107AC7ED766AB4EEE77AF1EE10FABFF62F
:1022F000F2AEB5EEC07A0023F1EE10FA98BFC7F83F
:10230000D031EAE601230493FFF7AABB002305932B
:10231000FFF7D1BBAFF300806666666666660A406B
:102320000000C842000000422DE9F04390F8EC8123
:1023300001F114060C46054688F0010117463046A7
:102340004FF4806249422DED028BC9B287B012F082
:10235000FFFE95F851307F2B00F0BC8295F861307C
:102360007F2B00F0C0824146B2EE001AF2EE0A0A5C
:102370009FEDC30AC34B204695F8742001F0C4FFBB
:1023800095F87480B8F1000F00F0268195F8EC31D3
:10239000F0EE081AD5ED1E2AF1EE0C0A02EE103A04
:1023A0009FEDC68A20469FEDB81AC2EE882A9FED9F
:1023B000B70ADFF8FC824FF00109B8EE422A01F0BB
:1023C00073F895F8EC31F0EE081AD5ED1F2A02EEFD
:1023D000103AF0EE480A20469FEDAB1AB8EE422ABA
:1023E0009FEDAA0A01F060F8B2EE001AB2EE0A0AF6
:1023F000DFEDA70A2046A34B95F8982095F8EC113D
:1024000002F032FA95F8EC3120462A22019323217A
:10241000D5F89C300093372301F040FE9D4B05F129
:10242000A40120466360CDF8009098E80C00FFF707
:102430006BF9994BCDF8009005F1D401636020460B
:1024400098E80C00FFF760F9944B204695F8EC21D2
:102450006360934B009293490CCBFFF755F995F8C5
:10246000EC01A44600237F2B0DD89CF89421002872
:1024700000F09B8042F020028CF8942103330CF191
:10248000030C7F2BF1D903330CF1030CB3F5C07FA0
:10249000E9D100233F2B14D801214FEAD30C03F0DC
:1024A000070E884604EBCC1C01FA0EF1002800F060
:1024B00081809CF8502011438CF8501002333F2B40
:1024C000EAD90233802BE5D11E233F2B13D80122FA
:1024D0004FEAD30C03F0070E904604EBCC1C02FA33
:1024E0000EF200286FD09CF831100A438CF831208E
:1024F00002333F2BEBD90233802BE6D16B7C7F2B51
:1025000000F09E81EB6E002B00F0DA80012B00F0D2
:102510006A82022B00F02482032B40F0998195F807
:102520007430B7EE007A002B00F0F382D5ED5D7ABF
:10253000F4EEC77AF1EE10FAC0F23983F0EE477A82
:10254000F7EE006A95ED1F7AB4EEE67AF1EE10FA36
:10255000C0F22483B0EE667AD5ED126A05F1D4009C
:10256000DFED555AF8EEE66A9FED4F6A4F49E6EE09
:10257000A57AA6EEA57A67EE866AC5ED5D7A85ED49
:102580001F7AFDEEE67A17EE902A12F0DDFE95F83E
:10259000EC3100223F212046CDE9013200917F231A
:1025A0001D223C21FEF7A4FE52E122F020028CF80D
:1025B000942163E79CF8501008FA0EF821EA080805
:1025C0008CF850807AE79CF8312008FA0EF822EA5D
:1025D00008088CF831808BE7D5ED202A20469FED46
:1025E000378AF0EE081AF1EE0C0A9FED322AC2EE9D
:1025F000882A9FED251A9FED250A00F055FFD5ED9D
:10260000212A9FED2C2A20469FED1F1AF0EE081A72
:102610009FED1E0AF0EE480ADFF8949000F044FFA8
:10262000B2EE001AB2EE0A0ADFED190A95F8992007
:1026300041462046134B02F017F9CDF80480D5F837
:10264000A03020462A2223210093372301F026FDC3
:10265000104BCDF8008005F1BC016360204699E87D
:102660000C00FFF751F80C4BCDF8008005F1EC01A0
:102670006360204699E80C00FFF746F8E4E600BFE7
:1026800000003842847601080000484200008C4275
:1026900000004C42460011004600320004000800D1
:1026A00070020024386501080000C842486501082E
:1026B00068020024000000000000003D00002042ED
:1026C00095F87430002B40F01781D5F86831202B35
:1026D00000F39A81002B80F24C825FED0A6A95ED3F
:1026E000207A5FED0A7AB4EEE77AF1EE10FA80F222
:1026F0008881B5EEC07AF1EE10FA01D51FED137A9C
:10270000D5ED127A05F1BC001FED156AF8EEE77AF7
:102710005FED165AC94927EE866A77EEA67AA6EECD
:10272000257AFDEEE77A17EE902AC5ED5A7A85ED07
:10273000207A12F009FE95F8EC0194F89320002815
:1027400000F00B8142F0010204F14F0304F1920109
:1027500084F8932005E042F0010203F8012F99422A
:1027600008D05A780028F6D102F0FE0203F8012FB3
:102770009942F6D194F81322002800F0318142F0FA
:102780002002002384F8132205E00A7D013315435B
:102790001D2B0D7512D0190103F00707012541F01B
:1027A0007F01BD4021440A460028EED1097D013356
:1027B00021EA050C1D2B82F814C0ECD194F8D0212D
:1027C000002800F00A8142F0200284F8D02104F5AC
:1027D000E87504F2132205E041F02001013A51703E
:1027E000954208D011780028F6D121F02001013A55
:1027F00051709542F6D194F85020002800F0EA80FC
:1028000042F0010284F8502006E095F85020114370
:1028100085F85010013B1BD00121DD0803F0070CA7
:102820000F4604EBC51501FA0CF10028EDD195F81F
:10283000501007FA0CF721EA070785F85070E9E70E
:1028400095F8743083F0010385F8743085F8EC3125
:1028500004F10807B02510344FF0000820468DF829
:1028600017500135414604F085FC642301220DF127
:1028700017013846EDB205F099FC414620468DF827
:10288000178004F077FC012264230DF1170138460C
:1028900005F08CFC1023414620468DF8173004F0DB
:1028A00069FC642301220DF11701384605F07EFC16
:1028B0000121204604F05EFC802231466423384624
:1028C000164405F073FCB82DC6D107B0BDEC028BE1
:1028D000BDE8F083EB6E013B74D4EB6695F8613094
:1028E0007F2B7FF440ADEB6E0133032BEB667FF75C
:1028F0003AAD0023EB6636E5D5F86421D5ED1E7AB6
:102900009FED4F7A22EAE272F4EEC77A202AA8BF3E
:102910002022F1EE10FA7ADAF5EEC07AF1EE10FA32
:1029200001D5DFED487AD5ED126A05F1A4009FEDDF
:10293000447AFAEEED6AAB6C40491A44E6EE877AC7
:10294000C5F86421C5ED1E7A12F0FEFC95F8EC0185
:1029500094F8932000287FF4F5AE02F0FE02F3E62F
:1029600095F87430002B75D1D5F8E821D5F894315D
:10297000A96C83F302030B44032B40F3B2800323BF
:10298000C5F89431002A0FDD0322002301E0D5F8B9
:10299000942102215037C5F8A020013307F8281CE4
:1029A000D5F8E8219A42F2DC95F8EC0100233F21AA
:1029B0001D2200911146CDE901033C232046FEF77C
:1029C00097FC45E70323EB6695F861307F2B7FF496
:1029D000CAAC8EE702F0FE0214E702F0DF02F4E672
:1029E00002F0DF02CDE695F874209AB1AA6C012AB4
:1029F00052D0013217D185F898300023C5F86C31D8
:102A000011E0B0EE677A7BE6DFED0F6A67E6F0EE85
:102A1000477A88E7A96C012944D0013103D1C5F870
:102A2000702185F899303F23002100931D23CDE9C3
:102A300001011A462046FEF75BFC09E73C650108E8
:102A40000000204200000000000000420000003DA5
:102A50000000C842D5F89031AA6C1344032B26DD40
:102A60000323C5F89031D5F8E831002B9EDD3946B7
:102A70000322002301E0D5F890210220C5F89C2014
:102A8000013301F8500BD5F8E8219A42F3DC95F8B0
:102A90007430002B88D169E70023C5F86C2185F8D4
:102AA0009830C0E7C5F8701185F89920BBE7002B76
:102AB00080F286800023C5F89031D5F8E831002BEC
:102AC0007FF774AF39460023D5F890210133C5F85C
:102AD0009C20002201F8502BD5F8E8219A42F3DC23
:102AE000D5E7002B80F29F800023C5F89431002A9F
:102AF0007FF75AAF0023D5F8942101335037C5F83A
:102B0000A020002207F8282CD5F8E8219A42F2DC10
:102B10004AE7D5ED5E7AF4EEC77AF1EE10FA35DDCC
:102B2000F0EE477AF7EE006A95ED217AB4EEE67A98
:102B3000F1EE10FA22DBB0EE667AD5ED126A05F1FD
:102B4000EC005FED3E5AF8EEE66A1FED3F6A4D4934
:102B5000E6EEA57AA6EEA57A67EE866AC5ED5E7A00
:102B600085ED217AFDEEE67A17EE902A12F0ECFB65
:102B70000DE507EE903AF8EEE76AB0E5B5EEC07AFB
:102B8000F1EE10FAD9D59FED407AD6E7F5EEC07A8E
:102B9000F1EE10FAC6D5DFED3C7AC3E7B5EEC07AA8
:102BA000F1EE10FA7FF5D8AC9FED377AD4E4F5EE6C
:102BB000C07AF1EE10FA7FF5C3ACDFED337ABFE4F3
:102BC000C5F890313FF479AF012B17D0022B7FF479
:102BD0004AAFD5F8E821002A7FF7E8AE3846002151
:102BE00001E0D5F8903104220131C5F89C3000F89D
:102BF000502BD5F8E8218A42F3DC48E7D5F8E821E4
:102C0000002A7FF7D3AE3846002101E0D5F8903195
:102C10000122C5F89C30114400F8502BD5F8E8216A
:102C20008A42F3DC33E7C5F894313FF460AF012BFF
:102C300015D0022B7FF4A6AE002A7FF7B5AE002296
:102C400001E0D5F8943104215037C5F8A0300132A5
:102C500007F8281CD5F8E8319342F2DCA4E6002AF4
:102C60007FF7A2AE002201E0D5F894310121503760
:102C7000C5F8A0300A4407F8281CD5F8E83193427B
:102C8000F2DC91E64865010800000000704700BFD3
:102C900049424FF480621430C9B212F059BA00BFF1
:102CA00010B5044640F2144110F07CFD204610BDE2
:102CB0002DE9F041B02482B000F1080600F11005C2
:102CC00000F11408002728468DF8074001343946E2
:102CD00004F050FA642301220DF107013046E4B2FA
:102CE00005F064FA394628468DF8077004F042FA78
:102CF000012264230DF10701304605F057FA102335
:102D0000394628468DF8073004F034FA642301224E
:102D10000DF10701304605F049FA0121284604F07B
:102D200029FA8022414664233046904405F03EFA59
:102D3000B82CC7D102B0BDE8F08100BF7F291ED8F2
:102D40003F2A1CD86BB1D3084FF0010C02F00702E8
:102D500001EBC3130CFA02F2C1180B7D1A430A757A
:102D60007047D3084FF0010C02F0070201EBC313C8
:102D70000CFA02FCC1180A7D22EA0C020A7570479F
:102D80002DE9F04F83B05C1A0C9E002C9DF8349016
:102D9000A6EB0208B8BF6442B8F1000FB8BFC8F193
:102DA00000088B428CBF4FF0010A4FF0FF3A964269
:102DB000A4EB080C51D84FF0FF357F2B019512D8AA
:102DC0003F2E10D8F50806F0070E012703EBC515B6
:102DD0000544B9F1000F47D007FA0EF795F814E053
:102DE00047EA0E072F75964201D18B4229D0C8F1D0
:102DF00000077F2914D83F2A12D8D50802F0070B04
:102E00004FF0010E01EBC5150544B9F1000F1BD0C1
:102E10000EFA0BFE95F814B04EEA0B0E85F814E08E
:102E2000B7EB4C0F4FEA4C0502DAACEB080C5144FF
:102E3000AC4202DD019DA4442A449942D9D1964274
:102E4000D7D103B0BDE8F08F0EFA0BFB95F814E074
:102E50002EEA0B0E85F814E0E2E701257F2B0195A1
:102E6000C5D83F2EAED9C2E707FA0EFE2F7D964297
:102E700027EA0E072F75B8D0B9E700BF00000000A1
:102E80002DE9F04F2DED068B83B01F4680460D4691
:102E90009DF8503016460193139B002BC0F22182FF
:102EA000129A134406EE103ADDED127AB8EEC66BB4
:102EB0009FEDCD4BB8EEE77B9FEDCD5B27EE047B1E
:102EC00026EE046B87EE050B86EE05ABF7EEC08BA6
:102ED000B0EE680A10F004FD07EE907AB7EECAABC8
:102EE000F8EE679AB0EE408AB0EE680A11F070F81A
:102EF00060EE698AB0EE4A0A10F0F2FCB0EE409A39
:102F0000B0EE4A0A11F064F820EE690A29EE888AC8
:102F100029EE899A70EE687AF0EE006A39EE487A06
:102F200067EEA77AE7EE077AF4EEE67AF1EE10FAAA
:102F300006D5139BB42B40F396804FF0010901E0B6
:102F40004FF00009012478424FF0000C0095E31B7C
:102F5000214627462246A340B9F1000F6AD14242DA
:102F600006EE90CACCF1000107EE102AB8EEE66A30
:102F700007EE901A06EE900AB8EEC77A139A66EE3C
:102F8000084AF8EEE77AB42A27EE284AF8EEE66A0D
:102F900067EE885A74EEC43A26EEA85A26EE096AFD
:102FA00066EE806A67EE897A27EE007AF5EEC03A1F
:102FB00040F3F280F1EE10FA00F17F8176EE473AAD
:102FC00074EEC54AF5EEC03AF1EE10FAF5EEC04ADD
:102FD000CCBF01220022F1EE10FA00F1778136EE2B
:102FE000666A35EEC55AB5EEC06AF1EE10FAB5EE76
:102FF000C05ACCBF01210021F1EE10FA00F16F811F
:1030000077EEE66AF5EEC06AF1EE10FACCBF012762
:10301000002775EEC45AF5EEC05AF1EE10FA00F131
:10302000478177EEC77AF5EEC07AF1EE10FACCBFA1
:1030300001240024002A40F08A80002964D1BFB90D
:10304000C4BB9C4558DB0CF1010C03EB4C0E1CEB94
:10305000000F0EF1010E00F0C08098424FDB734666
:1030600000287FF779AF03B0BDEC068BBDE8F08F89
:10307000009DA6EB0C0E00EB050ABAF17F0FDFD81E
:10308000BEF13F0FDCD84FEADE0B019D0AEBCB1AF5
:10309000002D00F0B1800EF0070BC2444FF0010E7E
:1030A0000EFA0BFE9AF814B04EEA0B0E8AF814E0F2
:1030B000002CC6D0009DA6EB0C0EA5EB000ABAF1C1
:1030C0007F0FBED8BEF13F0FBBD84FEADE0B019D8C
:1030D0000AEBCB1A002D00F0AE800EF0070BC244B5
:1030E0004FF0010E9C450EFA0BFE9AF814B04EEA12
:1030F0000B0E8AF814E0A6DA98429E46AFDA013049
:103100000EEB40030133ABE7009D0CEB060E00EB2A
:10311000050ABAF17F0F92D8BEF13F0F8FD84FEA60
:10312000DE0B019D0AEBCB1A002D73D00EF0070BBE
:10313000C2444FF0010E0EFA0BFE9AF814B04EEA9C
:103140000B0E8AF814E0002F3FF47AAF90E7009D51
:103150000CEB060EA5EB000ABAF17F0F3FF66DAF40
:10316000BEF13F0F3FF669AF4FEADE0B019D0AEB60
:10317000CB1A002D6DD00EF0070BC2444FF0010E9C
:103180000EFA0BFE9AF814B04EEA0B0E8AF814E011
:1031900000293FF454AFB7E7F1EE10FA7ED44A4667
:1031A00074EEC54AF5EEC04AF1EE10FA6CD4002177
:1031B00035EEC55AB5EEC05AF1EE10FA5AD40027D2
:1031C00075EEC45AF5EEC05AF1EE10FA3FF529AF8C
:1031D0000024002A3FF431AFB9E798428FDB002387
:1031E0003BE700BFAFF300807A008BFCFA21094077
:1031F0000000000000806640C2444FF0010B0EF05A
:10320000070E0BFA0EFE9AF814B02BEA0E0E8AF88F
:1032100014E015E7C2444FF0010B0EF0070E0BFA55
:103220000EFE9AF814B02BEA0E0E8AF814E0002F66
:103230003FF406AF1CE7C2444FF0010B0EF0070E3F
:103240000BFA0EFE9AF814B02BEA0E0E8AF814E070
:10325000F7E6C2444FF0010B0EF0070E0BFA0EFE1C
:103260009AF814B02BEA0E0E8AF814E000293FF405
:10327000E6AE49E777EEE66AF5EEC06AF1EE10FADF
:10328000CCBF012700279BE736EE666AB5EEC06A21
:10329000F1EE10FACCBF0121002189E776EE473A22
:1032A000F5EEC03AF1EE10FACCBF0122002277E72A
:1032B0000124002A3FF4C1AE49E774EEC54A012259
:1032C000F5EEC04AF1EE10FA7FF589AE35EEC55A3B
:1032D0000121B5EEC05AF1EE10FA7FF591AE01274B
:1032E00097E6DDE91223134406EE102A1293139B8E
:1032F0005B421393D8E500BF2DE9F04F85B0A1F1F3
:10330000200504AC9DF83870009104E90C00EBB284
:103310005E2B00F29580036880465D4ADB689DF86D
:10332000084093429DF8096040F094808020B8F8EE
:1033300004302344834200F38380D8F80030554A98
:103340009B68934240F088804020B8F8062093198B
:103350000192834274DC002E00F0898006FB05F5A3
:103360006FF00040039B964628442E44B8F804A012
:1033700003EB4000023B03EB460B30F8026FBCB39B
:103380000EF007034FF0010C4FEADE0251460CFA33
:1033900003FC0AF114034FFA8CFC03EBC212002366
:1033A0006FEA0C0942440EE07F2907D8BEF13F0FB7
:1033B00004D815789FB14CEA050515700133013228
:1033C00001319C4214D006FA03F52D04ECD47F2978
:1033D000F4D8BEF13F0FF1D81578002FEBD00133B0
:1033E00009EA0505013201319C4202F8015CEAD18B
:1033F00058450EF1010EC0D1D8F80030544424498C
:10340000DA68A4B28A422DD1802084421CD29B6803
:10341000204AA8F80440934221D14020019B8342D6
:1034200007D3D8F800301B4A9B68934229D13F2329
:103430000193DDE90003A8F8063005B0BDE8F08F80
:10344000002005B0BDE8F08FDA6811498A4211D139
:103450007F24DCE798476AE74046984775E740468F
:103460009847DBE740469047D8F80030CDE7B8F8FA
:1034700004A0C1E7404690470138D8F8003084B234
:10348000C5E740469847013883B20193D1E700BFB2
:10349000650A0008690A00080021024A816002608A
:1034A000704700BFB4660108FCEEC07A70EEA11A46
:1034B000A1EE220A17EE90CAFCEEE17A2DE9F04760
:1034C00017EE904AFCEEE07A17EE906AFCEEC07AB6
:1034D00017EE907ABC4531D8A6422BD8BCF17F0FAD
:1034E000334694BF0025012508E091F814804EEA88
:1034F000080E81F814E001339C421BD33F2BFAD80D
:10350000002DF8D1B5EE402AD90803F0070E4FF090
:1035100001080CEBC111F1EE10FA08FA0EFE01449D
:10352000E3D191F814A001332AEA0E099C4281F8F4
:103530001490E3D20CF1010C6745CDD2BDE8F087C1
:10354000FDEEC07A2DE9F04F17EE90BAF8EEE77A6B
:103550002DED0A8BB4EEE71A85B0F1EE10FA40F3C8
:10356000BE80B7EEE0BA8A46B0EE41CA0BF1FF3535
:103570008046CDF80CB09FED5CAB9FED5D0BB0EEDF
:103580004A8BB2EE007BD8F80030B0EE4B5B03996B
:10359000B0EE4B6B9C695C4B0E46AAEE075B9C42FF
:1035A000A0EE076BFCEEC57B17EE902AFCEEC67B07
:1035B00017EE907A40F08C80BB1AA94234BF4FF0CE
:1035C000010B4FF0FF3B002BB8BF5B42BA42C3F187
:1035D000010C6FD34FF0FF317F2D02910FD83F2F99
:1035E0000DD8F90807F00704012005EBC11141448B
:1035F000BAF1000F65D0A0400C7D204308755842F9
:103600007F2E13D83F2A11D8D10802F0070E06EBFF
:10361000C1110C46BAF1000F41D04444012101FA16
:103620000EF9217D49EA010984F81490B0EB4C0FA2
:103630004FEA4C012EDA0029ACEB030C5E4429DD85
:10364000AE42DDD19742DBD1039B0135013307EE5A
:10365000903A0393F8EEE77A9FED279BF4EECC7A4D
:1036600038EE098BF1EE10FAB7EEC88B37D5B7EE0E
:10367000C88A9FED230B38EE499B28EE000B10F013
:103680005FFAB0EE087BB0EE40AB29EE070B10F00E
:1036900057FA76E702990CF1010C0A44D0E741444D
:1036A000012404FA0EF491F814E02EEA040E81F8D5
:1036B00014E0BBE701213F2F0291A0D87F2D90D9C4
:1036C0009DE700FA04F4087D20EA0400087596E7F7
:1036D0002B4603994046CDE9007AA047B4E705B0F0
:1036E000BDEC0A8BBDE8F08F000000000000000078
:1036F00034BABA95CDE9D2BF9A9999999999B93FB7
:103700006666666666660A40812D0008F2EE006A0B
:103710000368B1EE087AF2EE027A30EE877A70EE44
:10372000E60A70EE277ABCEEC77AFCEEE06AFCEEA1
:10373000E77A2DE9F04F2DED028B87B0D3F8188092
:1037400016EE906AFCEEC06A0593B0EE408AA74B75
:103750000746039117EE104A984516EE901A17EE99
:10376000905A40F02B81A5EB010CA6EB0409BCF1AB
:10377000000FB8BFCCF1000CB9F1000FB8BFC9F110
:103780000009A94234BF4FF0010B4FF0FF3BB44298
:10379000ACEB0903C0F0BB804FF0FF327F2D0492E9
:1037A00014D83F2E12D8039A002A00F0BC80F208E9
:1037B0004FF0010E06F0070005EBC2120EFA00F002
:1037C0003A4492F814E040EA0E001075B44201D178
:1037D000A9422BD0C9F1000822467F2915D83F2ADB
:1037E00013D80398002800F0AC80D00802F0070A34
:1037F0004FF0010E01EBC0100EFA0AFE384490F8AB
:1038000014A04EEA0A0E80F814E0B8EB430F4FEA1A
:10381000430002DAA3EB09035944844502DD04980E
:10382000634402448D42D8D19642D6D1F3EE027A57
:10383000059BD3F8188038EE270A6C4B9845FCEEB0
:10384000C07A17EE901A40F0C480681AA6EB0408FC
:103850000028B8BF4042B8F1000FB8BFC8F1000857
:103860008D428CBF4FF001094FF0FF39B442A0EBFD
:103870000802C0F088807F2D4FF0FF3A15D83F2E08
:1038800013D8039B002B00F08880F30806F0070E86
:103890004FF0010C05EBC3130CFA0EFC3B4493F8FC
:1038A00014E04CEA0E0C83F814C0B44201D18D42EE
:1038B00028D0C8F1000E7F2914D83F2C12D8039BC2
:1038C000002B4FD0E30804F0070B4FF0010C01EB85
:1038D000C3130CFA0BFC3B4493F814B04CEA0B0CEA
:1038E00083F814C0BEEB420F4FEA420302DAA2EBA8
:1038F00008024944984201DD024454448D42DAD121
:10390000A642D8D107B0BDEC028BBDE8F08F0122F2
:103910003F2E04923FF65EAF7F2D3FF65BAF039ADA
:10392000002A7FF444AFF208012006F0070E05EBF1
:10393000C21200FA0EFE3A44107D20EA0E00107505
:1039400044E7D0084FF0010E02F0070A01EBC01067
:103950000EFA0AFA384490F814E02EEA0A0E80F8BB
:1039600014E052E7E3084FF0010C04F0070B01EB01
:10397000C3130CFA0BFB3B4493F814C02CEA0B0C5A
:1039800083F814C0AEE73F2E4FF0010A91D87F2D87
:103990008FD8039B002B7FF478AFF3084FF0010C16
:1039A00006F0070E05EBC3130CFA0EFE3B4493F82A
:1039B00014C02CEA0E0C83F814C076E7039B17EEB4
:1039C000102ACDE9006317EE903AC0473B68059393
:1039D0002CE7039B22463846CDE900632B46C047BF
:1039E00007B0BDEC028BBDE8F08F00BF812D000851
:1039F000B1EE007AF2EE027AFCEEC06A30EEC77ADF
:103A000070EE277A2DE9F04FD0F800E08846C449DF
:103A1000BCEEC77ADEF81870FCEEE77A06468F42F5
:103A200017EE105A17EE904A2DED028B85B0F0EE8E
:103A3000408AB0EE608ACDED036A40F0858116EED3
:103A4000902A16EE903AA71A002FB8BF7F42A242E2
:103A5000C0F01C817F2C4FF0FF3910D83F2D0ED8BD
:103A6000EA0805F00700012104EBC2123244B8F164
:103A7000000F00F03F818140107D01431175039AD2
:103A8000A24224D039462A467F2B15D83F2A13D884
:103A9000D00802F0070A4FF0010C03EBC0103044CD
:103AA000B8F1000F00F004810CFA0AFC90F814A0A1
:103AB0004CEA0A0C80F814C0480018BF4B448742F7
:103AC00001DD3944013A9C42DED19542DCD1F1EE70
:103AD0000C7ADEF81890924B78EE277A9945FCEE36
:103AE000E77A17EE907A40F02581A7EB0509B9F146
:103AF000000FB8BFC9F10009BD42C9F1000CC0F008
:103B0000E7807F2C4FF0FF3A10D83F2F0ED8FB08EC
:103B100007F00701012204EBC3133344B8F1000F8F
:103B200000F0F6808A40197D0A431A75BD4225D0FF
:103B3000624623467F2B13D83F2D11D8E90805F0A4
:103B4000070B012003EBC1113144B8F1000F00F065
:103B5000B88000FA0BF091F814B040EA0B00087539
:103B6000BCEB420F4FEA420102DAA2EB0902013B31
:103B700001B155449C42DDD1AF42DBD1B3EE020A24
:103B8000DEF81850664A78EE808A9542FCEEE87AB4
:103B900017EE903A40F0E3801D1B002DB8BF6D4238
:103BA0009C42C0F09E807F2B4FF0FF3C10D83F2FEF
:103BB0000ED8FA0807F00700012103EBC2123244C5
:103BC000B8F1000F00F09D808140107D0143117518
:103BD0009C4223D029463A467F2C14D83F2A12D83B
:103BE000D00802F0070A4FF0010904EBC01030447E
:103BF000B8F1000F53D009FA0AF990F814A049EA75
:103C00000A0980F81490480018BF6444854201DD19
:103C10002944013AA342DFD19742DDD1F2EE080AEE
:103C2000404FBDF80C5038EE208ABCEEC88A18EE22
:103C3000103A9CB2DEF80C30BB4240F09C808020F1
:103C4000854205D3DEF80C30BB4240F099807F25D9
:103C5000DEF80830B580344DAB4240F0898040201A
:103C6000844205D333689B68AB4240F090803F2488
:103C70002E4B30462E49F4800CCBCDF80080FDF75A
:103C800043FD05B0BDEC028BBDE8F08F3F2D4FF03A
:103C900001093FF6F7AE7F2C7FF6E2AEF2E609FAB5
:103CA0000AFA90F8149029EA0A0980F81490AAE711
:103CB0000CFA0AFA90F814C02CEA0A0C80F814C026
:103CC000FAE600FA0BFB087D20EA0B00087547E7CF
:103CD0003F2F4FF0010A3FF62BAF7F2C7FF617AF37
:103CE00026E77F2B4FF0010C3FF674AF3F2F7FF696
:103CF00060AF6FE701FA00F0117D21EA0001117554
:103D0000BDE601FA00F0117D21EA000111755FE7BF
:103D100002FA01F11A7D22EA01021A7506E700BFD4
:103D2000812D0008650A0008690A0008680200245D
:103D3000546501082A46234621463046CDE90078DD
:103D4000C847D6F800E019E717EE903A17EE102AA8
:103D50000399CDE90058B847D6F800E0B7E6214608
:103D60003A463046CDE90078A847D6F800E055E756
:103D70003046984774E730469847D6F800E05FE74A
:103D8000304698470138D6F800E085B260E7304603
:103D90009847013884B26BE7B1EE087A0368F2EE17
:103DA000007AFCEEC06A30EE877A70EEE77A2DE991
:103DB000F04F2DED028B85B0D3F81890BCEEC77A8A
:103DC00007460293FCEEE77AAF4BB0EE608AF0EE66
:103DD000408A8846994516EE905A17EE104A17EE1B
:103DE000906A40F03081A6EB0409B9F1000FB8BF2A
:103DF000C9F10009B442C9F1000EC0F0DF807F2D87
:103E00004FF0FF3A10D83F2E0ED8F30806F0070106
:103E1000012205EBC3133B44B8F1000F00F002810F
:103E20008A40197D0A431A75B44226D0F4462346C7
:103E30002A467F2A13D83F2B11D8D90803F0070B45
:103E4000012002EBC1113944B8F1000F00F0BF802E
:103E500000FA0BF091F814B040EA0B000875BEEBC5
:103E60004C0F4FEA4C0102DAACEB090C013A01B1FC
:103E700053449542DDD19E42DBD1F3EE027A029BA0
:103E8000D3F8189038EEA70A7F4B9945FCEEC07A1C
:103E900017EE901A40F0CD80681AA6EB04090028AE
:103EA000B8BF4042B9F1000FB8BFC9F100098D4257
:103EB0008CBF4FF0010A4FF0FF3AB442A0EB090368
:103EC000C0F095804FF0FF327F2D039215D83F2E22
:103ED00013D8F20805EBC2123A44B8F1000F00F013
:103EE00094804FF0010E06F0070C0EFA0CFC92F8CD
:103EF00014E04CEA0E0C82F814C08D4201D1B44299
:103F000029D0C9F1000E7F2914D83F2C12D8E2081D
:103F100004F0070B4FF0010C01EBC2123A44B8F168
:103F2000000F5BD00CFA0BFC92F814B04CEA0B0CAF
:103F300082F814C0BEEB430F4FEA430202DAA3EB50
:103F400009035144904202DD039A034414448D4214
:103F5000D9D1A642D7D1F2EE080A4C4EADB238EE16
:103F6000208ABCEEC88A18EE103A9CB2029BDB682D
:103F7000B34277D18020854204D3029BDB68B342F1
:103F800075D17F25029B9B68BD80414DAB4266D1B8
:103F90004020844204D33B689B68AB426ED13F24EF
:103FA0003C4B38463C49FC800CCBCDF80080FDF7FB
:103FB000ABFB05B0BDEC028BBDE8F08F3F2E4FF0A0
:103FC000010A3FF633AF7F2D7FF61FAF2EE700FAD1
:103FD0000BFB087D20EA0B00087540E70CFA0BFB91
:103FE00092F814C02CEA0B0C82F814C0A2E701224C
:103FF0003F2E039285D87F2D83D8F20805EBC2129D
:104000003A44B8F1000F7FF46CAF4FF0010C06F0AA
:10401000070E0CFA0EFE92F814C02CEA0E0C82F871
:1040200014C06AE702FA01F11A7D22EA01021A7548
:10403000FAE62B46224638460096CDF80480C8475B
:104040003B68029387E716EE903A17EE102ACDE907
:10405000006116EE901AC8473B6802930DE7384698
:10406000984796E7384698473B68029383E7384677
:1040700098473B68451E0293ADB283E738469847A0
:10408000013884B28CE700BF812D0008650A000862
:10409000690A000868020024586501082DE9F0410A
:1040A00084B0064614460A9D9DF82C700291039335
:1040B000032D3CD8DFE805F002A0703EDDED037A69
:1040C0003946DFF83C820C34B8EEE71A07EE902A46
:1040D000A4B2F8EEE70ADDED027AB8EEE70AFFF7E0
:1040E0002FFA3368BDF80850DA68424540F0C080C6
:1040F0008020854204D3DA68424540F0EF807F2576
:104100009B68B580784DAB4240F0BF804020844230
:1041100005D333689B68AB4240F0C0803F24734BAB
:104120007349F48030460CCB0097FDF7EDFA04B0EC
:10413000BDE8F081DDED037A3946DFF8C4810C3447
:10414000B8EEE71A07EE902AA4B2F8EEE70ADDED22
:10415000027AB8EEE70AFFF71FFE3368BDF8085091
:10416000DA68424578D18020854204D3DA68424536
:1041700040F0A9807F259B68B5805B4DAB427ED126
:104180004020844205D333689B68AB4240F0A18055
:104190003F24564B5749C4E7DDED037A3946DFF833
:1041A00060810C34B8EEE71A07EE902AA4B2F8EE5C
:1041B000E70ADDED027AB8EEE70AFFF719FC33688B
:1041C000BDF80850DA6842454AD18020854203D3C1
:1041D000DA68424567D17F259B68B580424DAB4286
:1041E0004AD14020844204D333689B68AB4265D1F6
:1041F0003F243E4B404994E7DDED037A3946DFF832
:1042000000810C34B8EEE71A07EE902AA4B2F8EE5B
:10421000E70ADDED027AB8EEE70AFFF777FA3368CE
:10422000BDF80850DA6842451ED18020854203D38C
:10423000DA6842452CD17F259B68B5802A4DAB4278
:1042400020D14020844204D333689B68AB4230D1F4
:104250003F24264B294964E730469047336883E77B
:10426000304690473368B1E7304690473368DDE722
:104270003046904733683CE730469847B2E73046CF
:1042800098477EE730469847DCE7304698473EE758
:10429000304690470138336885B2CDE730469847BD
:1042A000013884B23BE7304690470138336885B225
:1042B00092E730469847013884B2CAE730469847BB
:1042C000013884B295E730469047451E3368ADB259
:1042D00051E730469847013884B25AE73046904754
:1042E0000138336885B20BE7690A000868020024C8
:1042F0005C6501085865010854650108606501089E
:10430000650A000800000000BCEEE07AFCEEC07A0E
:104310002DE9F04F2DED088B89B017EE108ABCEE19
:10432000C17A4FF48775B0EE41AA0692B0EE408A8A
:10433000B4228B460291019217EE901A42469A4699
:10434000009517EE103A17EE907AF0EE60AAF0EEB4
:1043500067BA04468DED057AFEF792FD78EE4A7A4B
:104360006FF0B302059B204601924246FCEEE77ACD
:104370000095CDF808B017EE906A17EE901AFEF788
:104380007FFD7AEECA7AF11B0029FCEEE77AB8BF0E
:1043900049427F2E17EE90CA94BF4FF000094FF0AC
:1043A0000109B742C0F073814FF0FF33BCF13F0FFA
:1043B000059314D8B9F1000F11D14FEADC030CF0CA
:1043C0000700012206EBC3132344BBF1000F00F0EA
:1043D0001A828240187D4FF0000902431A751BEEC5
:1043E000903AB34200F01B82084663461BEE902AC7
:1043F0007F2A13D83F2B11D8DD0803F0070E0127C1
:1044000002EBC5152544BBF1000F00F0238107FA2C
:104410000EF795F814E047EA0E072F75450001D016
:10442000059F3A44A94201DD0844013B9642DFD191
:104430009C45DDD17AEE8A7AFCEEE77A17EE90CAD7
:10444000BCF13F0F94BF4B4649F0010383B94FEADB
:10445000DC020CF00705012006EBC2122244BBF17E
:10446000000F00F09481A840157D284310752BBBE8
:10447000084663461BEE902A7F2A13D83F2B11D89B
:10448000BBF1000F00F0ED80DF0803F0070E0125FF
:1044900002EBC71705FA0EF5274497F814E045EA32
:1044A0000E053D75450001D0059F3A448D4201DA65
:1044B0000844013B9642DFD19C45DDD1B7EEC88A66
:1044C0002268B7EECA6AB7EE0C3BD368B0EE485B21
:1044D000B7EEEA7AB0EE044BA6EE435BA6EE447B61
:1044E000B1EE469BBCEEC55B15EE101ABCEEC77B69
:1044F0008FB217EE101A1FFA81F9B9498B4240F0BA
:10450000A1818020874205D3D368B5498B4240F012
:10451000A3817F279368A780B24FBB4240F08F8171
:104520004020814506D323689B68BB4240F08E81C2
:104530004FF03F09AC4B5146A4F806902046CDF809
:1045400000B00CCBFDF7E0F8F7EE007A069BB4EE76
:10455000E7AA002B00F09380F1EE10FAC0F29280EF
:104560000123B6EE00BA1BEE90AA06939F4B2AEEEB
:104570000BBA05932EE08020814506D3DA6898496E
:104580008A4240F039814FF07F099B68A4F804907B
:10459000BB4240F009814020864205D323689B68D6
:1045A000BB4240F009813F26069B2046059A013315
:1045B0008F491D4606930CCAE680CDF800B0FDF782
:1045C000A3F807EE905AF8EEE77AF4EECA7AF1EE25
:1045D00010FA57D87BEE677A22684FF4B479002638
:1045E000CDF808B05146FCEEE77A2046CDE90069E7
:1045F000126A17EE903ACDED077A15464246A84763
:104600002268079B514600962046CDE9019B166A19
:104610004246B047B0EE087AB0EE486B2368CAEE67
:10462000077ADA689FED6A5BA9EE056B7AEEE77AA6
:10463000BCEEC66BFCEEE77A16EE101A1FFA81F993
:1046400017EE901A8EB266498A4294D0204690475F
:10465000236891E707FA0EFE2F7D27EA0E072F75D4
:10466000DCE6DD08012703F0070E02EBC51507FAAB
:104670000EFE25442F7D27EA0E072F7512E7F1EE77
:1046800010FA0FDA09B0BDEC088BBDE8F08F0123FA
:10469000BCF13F0F05933FF6A7AEB9F1000F3FF411
:1046A0008CAEA1E60123B6EE00BAB24606934F4B9C
:1046B0002AEE0BBA05932BE08020814505D3DA68FA
:1046C00047498A427DD14FF07F099B68A4F8049046
:1046D000BB4266D14020864204D323689B68BB421C
:1046E00065D13F26069B2046059A013341491D4668
:1046F00006930CCAE680CDF800B0FDF705F807EE8A
:10470000905AF8EEE77AF4EECA7AF1EE10FAB9D8D8
:104710007BEE677A22684FF4B47900265146204632
:10472000FCEEE77ACDF808B0CDE9006917EE903AD3
:10473000CDED077A156A4246A8472268079B514685
:1047400000962046CDE9019B166A4246B047B0EE7E
:10475000087AB0EE486B2368CAEE077ADA689FEDF4
:104760001E5BA9EE056B7AEEE77ABCEEC66BFCEE3B
:10477000E77A16EE101A1FFA81F917EE901A8EB228
:1047800017498A4298D020469047236895E700FA57
:1047900005F5107D20EA05001075002B3FF468AE8A
:1047A0008CE62046984796E720469847F4E6204650
:1047B0009847013886B295E720469847013886B277
:1047C000F2E620469047013823681FFA80F97CE71B
:1047D0009A9999999999F53F333333333333C33FDA
:1047E000650A0008690A00087002002468020024B3
:1047F0006465010868650108204690470138236810
:104800001FFA80F9C1E602FA00F01A7DD94622EAC1
:1048100000021A751BEE903AB3427FF4E5AD7AEED2
:104820008A7AFCEEE77A17EE90CABCF13F0F3FF6AA
:1048300045AEB9F1000F7FF441AE012307E62046F3
:1048400098476EE62046984722685BE620469847E0
:1048500001381FFA80F96DE6204698470138226832
:1048600087B257E600000000FCEEC07A2DE9F04F59
:1048700017EE90BAFCEEE07A00260D46044617EEDD
:1048800090AAFCEEC17A2DED0C8B89B0B0EE41AA56
:10489000F0EE60AA0DEE103A07926FF0B30217EE39
:1048A000903A02910096594601925246B0EE40CAA3
:1048B000CDED057AFEF7E4FA7AEECACAB422009684
:1048C000059B5946FCEEEC7A01922046029517EEC4
:1048D000906A17EE902ACDED057AFEF7D1FAA6EB95
:1048E0000A077CEE4A7A002FFCEEE77AB8BF7F42D7
:1048F000B24517EE90EAC0F073813F2E3346C7F100
:1049000000004FF0FF3994BF00230123BEF17F0F59
:10491000069311D883B9059AD30802F00701012242
:104920000EEBC3132344002D00F02E828A40197D24
:104930000A431A7500230693059B9A4500F02F82BF
:104940000246534671467F2914D83F2B12D8DE0801
:1049500003F007084FF0010C01EBC6162644002DAA
:1049600000F024810CFA08FC96F814804CEA080C3C
:1049700086F814C0B0EB420F4FEA420601DAD21BB0
:10498000013906B14B448E45DDD1059E9E42DAD1F8
:104990007CEE0A7A069BFCEEE77A17EE90EABEF10F
:1049A0007F0F88BF43F0010383B90599CA080EEB56
:1049B000C2122244002D00F0A481012601F007015B
:1049C00006FA01F1167D314311753BBB0246534691
:1049D00071467F2914D83F2B12D8DE0803F0070850
:1049E0004FF0010C01EBC6162644002D00F0E780C5
:1049F0000CFA08FC96F814804CEA080C86F814C0EF
:104A0000B0EB420F4FEA420601DAD21B013906B180
:104A10004B448E45DDD1059E9E42DAD1B7EECC9A4D
:104A20002368B7EECA7AB7EE0C6BDA68B7EEEABA6B
:104A3000B0EE495BB0EE044BB1EE478BA7EE465BA0
:104A4000B0EE4B6BA7EE446BBCEEC55B15EE101AD7
:104A50008EB2BCEEC66B16EE101A8FB2B8498A42FF
:104A600040F0B0818020864205D3DA68B4498A429A
:104A700040F0B1817F269B68A680B24EB34240F0E1
:104A80009E814020874205D323689B68B34240F053
:104A90009D813F27AC4B1DEE101AE7802046009504
:104AA0000CCBFCF731FEF7EE007A079BB4EEE7AAD9
:104AB000002B00F08D80F1EE10FAC0F28C80012303
:104AC000F6EE009AB1EE4A9A0593A04B6AEE299A47
:104AD00006932CE08020804506D3DA6898498A4204
:104AE00040F04B814FF07F089B68A4F80480B342EC
:104AF00040F017814020874205D323689B68B3426A
:104B000040F02F813F27059B2046069A01339049AC
:104B100005930CCAE7800095FCF7F6FDDDED057AFC
:104B2000F8EEE77AF4EECA7AF1EE10FA53D879EE9D
:104B3000E77A22684FF4B478002759462046FCEE05
:104B4000E77A0295CDE9007817EE903ACDED077A35
:104B5000D2F820905246C8472268079B59460097D2
:104B60002046CDE90185176A5246B847B0EE4B7B27
:104B7000B5EE006A2368F0EE4C6ADA689FED6A5B76
:104B8000E9EE066AA8EE057BFCEEE66A16EE901AE0
:104B90001FFA81F8BCEEC77B17EE101A8FB2684976
:104BA0008A4297D020469047236894E70CFA08F889
:104BB00096F814C02CEA080C86F814C0DAE60CFA51
:104BC00008F896F814C02CEA080C86F814C017E709
:104BD000F1EE10FA15DA09B0BDEC0C8BBDE8F08FE0
:104BE000059B78424FF001093F2B94BF002301231E
:104BF000BEF17F0F06933FF6A3AE002B3FF48BAEC2
:104C00009EE6B7EEEC6A0123B6EE00BA05934F4B71
:104C10002AEE0BBA06939FED465B26EE056BBCEEC3
:104C2000C67B17EE109A2BE08022904506D3DA68F7
:104C300043498A4240F09A804FF07F089B68A4F86D
:104C40000480B3426AD14020874205D323689B6821
:104C5000B34240F081803F27059B2046069A0133EE
:104C60003C4905930CCAE7800095FCF74DFDDDED4E
:104C7000057AF8EEE77AF4EECA7AF1EE10FAAAD8DD
:104C80007BEE677A22684FF4B478002759462046B5
:104C9000FCEEE77A0295CDE9007817EE903ACDED7B
:104CA000077AD2F820A04A46D0472268079B594687
:104CB00000972046CDE90185176A4A46B847B0EE0D
:104CC000087AB0EE496B2368CAEE077ADA689FED7E
:104CD0001A5BA8EE056B7AEEE77ABCEEC66BFCEECB
:104CE000E77A16EE101A1FFA81F817EE901A8FB2B3
:104CF00013498A4298D0204690472368024607907D
:104D000093E701F00706012101FA06F6117D21EA79
:104D100006011175002B3FF459AE7FE620469847F7
:104D200092E720469847E6E6333333333333F73F91
:104D30000AD7A3703D0AEF3F333333333333C33FD6
:104D4000650A0008690A000870020024680200244D
:104D50006C6501087065010820469847013887B2E4
:104D60007AE720469847471EBFB2CCE620469047D8
:104D7000013823681FFA80F860E720469047013821
:104D800023681FFA80F8AFE602FA01F11A7D069552
:104D900022EA01021A75059B9A457FF4D1AD7CEE9B
:104DA0000A7AFCEEE77A17EE90EABEF17F0F3FF643
:104DB00035AE069B002B7FF431AE0123F5E520468E
:104DC00098475FE62046904723684CE62046984780
:104DD000013887B25EE6204690470138236886B2E4
:104DE00049E600BF704700BF704700BF704700BF73
:104DF000704700BF002A00F088800023013A2DE9A7
:104E0000F04F2DED028BA3B00F46404E0093530898
:104E1000DFF810913E4D01930DF1080BDFF808818A
:104E20003C4CDA4618F8011B20460EF0A9F9303444
:104E3000B045AAEC010AF5D1D9ED5B7A0CAA364C43
:104E4000B8EEE74BD9ED5C7A2346B8EEE75BBBECF6
:104E5000017AB6EE006B5033B7EEC77A934527EE72
:104E6000067B27EE046B27EE057BB7EEC66BB7EE2D
:104E7000C77B03ED136A03ED097AE8D14FF0010B0C
:104E80000FE00EF029FA04F1280070EE288A0EF0E7
:104E900023FABBF10A0F78EE808A11D00BF1010BD7
:104EA0005034BBF1010F2046EBD11B480EF014FA31
:104EB000F0EE408A19480EF00FFA78EE808AEDE79E
:104EC000174CDFF868B0DFF868A020461C3459465C
:104ED0000BF1010B0EF0CEF9AC42AAEC010AF4D1B1
:104EE000F5EE007A009A01990837531C68EEA77A0C
:104EF0008A4247ED027A47ED017A01D000938BE7B1
:104F000023B0BDEC028BBDE8F08F7047860600240D
:104F1000DC07002488040024887C0024B07C002462
:104F2000C4060024C48300247C06002468060024F0
:104F30005C040024704700BF704700BF84B02DE9B7
:104F4000F0412DED048B0AAC84E80F009DF8283069
:104F50009DF8312073B1012B06D1574C2368092BE2
:104F600001DD00232360BAB9BDEC048BBDE8F0413C
:104F700004B07047002AF7D050490A68092A00F3A4
:104F80009880541C4E4B00200C609854BDEC048B50
:104F9000BDE8F04104B070474A4EB5EE004B9DF8B5
:104FA0003050B2EE089AD6ED246AB7EE008A07EECA
:104FB000905A2068B8EEE66BDFED435AB8EEE77B17
:104FC00096ED251A414BC0EBC00081EE251ADFEDAE
:104FD000409A03EB8000DFED3F8ADFF804813E4F0B
:104FE000A6EE047B06EE905AF8EE660AB7EEC70B03
:104FF0000EF02AF9D6F864312268B0EE000AEB18F8
:105000002F4900EE903A0123F8EEE00A8B5470EE3F
:10501000E90AC0EE890A0EF047FED6F86831D6EDEF
:105020005D7AEB1800EE903A20EE287A77EE887AD7
:10503000F8EEE00AB0EE000A67EE877A70EEE90A51
:10504000C8ED007AC0EE890A0EF02EFED6ED5E7A2B
:105050002568224E05EB850520EE287A98ED000A9A
:1050600077EE887A06EB0515284685ED020A67EE8D
:10507000877AC7ED007A0EF011FB2368F0EE407AD4
:1050800097ED000A03EB8303C5ED067A06EB0310E8
:105090000646283086ED0C0A0EF000FB236886EDEC
:1050A000100A0133BDEC048B2360BDE8F04104B06D
:1050B000704701241A4665E7AC7F0024A87F0024CE
:1050C0007C060024C48300240000C842C4060024D7
:1050D00000008A420000DC4378060024887C00241B
:1050E000740600242DE9F04101268CB007460446E1
:1050F000804601918672002527F8081F384601F086
:105100004FFFBDF80630A67128F8043F404601F075
:1051100047FFA74B204606960293A64B0595CDE97F
:1051200003350223CDE90A3308230DEB030107936E
:10513000CDE9085502F0B8FF2946404602F01AF8BA
:105140000A2004F06FF83146404602F013F80A20B6
:1051500004F068F8AE23294638468DF8083002F08E
:1051600009F8324602A96423204603F01FF8D5232C
:10517000294638468DF8083001F0FCFF324602A976
:105180006423204603F012F88023294638468DF820
:10519000083001F0EFFF324602A96423204603F0F5
:1051A00005F8A823294638468DF8083001F0E2FFBB
:1051B000324602A96423204602F0F8FF3F23294625
:1051C00038468DF8083001F0D5FF324602A9642335
:1051D000204602F0EBFFDA23294638468DF80830E6
:1051E00001F0C8FF324602A96423204602F0DEFF28
:1051F0001223294638468DF8083001F0BBFF3246AD
:1052000002A96423204602F0D1FFD3232946384661
:105210008DF8083001F0AEFF3246642302A9204623
:1052200002F0C4FF294638468DF8085001F0A2FF6D
:10523000324602A96423204602F0B8FF40232946E3
:1052400038468DF8083001F095FF324602A96423F4
:10525000204602F0ABFFA623294638468DF80830D9
:1052600001F088FF324602A96423204602F09EFF27
:10527000A423294638468DF8083001F07BFF3246DA
:1052800002A96423204602F091FF8D232946384667
:105290008DF8083001F06EFF324602A964232046E3
:1052A00002F084FF1423294638468DF8083001F0B7
:1052B00061FF324602A96423204602F077FFA12352
:1052C000294638468DF8083001F054FF324602A9CD
:1052D0006423204602F06AFFC823294638468DF829
:1052E000083001F047FF324602A96423204602F04D
:1052F0005DFF8123294638468DF8083001F03AFFDA
:10530000324602A96423204602F050FF8F2329462B
:1053100038468DF8083001F02DFF324602A964238B
:10532000204602F043FFD923294638468DF808303D
:1053300001F020FF324602A96423204602F036FF26
:105340002523294638468DF8083001F013FF3246F0
:1053500002A96423204602F029FFDB2329463846B0
:105360008DF8083001F006FF324602A9642320467A
:1053700002F01CFF3423294638468DF8083001F02E
:10538000F9FE324602A96423204602F00FFFAF2344
:10539000294638468DF8083001F0ECFE6423324689
:1053A00002A9204602F002FF0CB0BDE8F08100BF68
:1053B000060B0B000105060A03792DE9F0410546AD
:1053C000BAB0032B0CD8DFE803F0671C020E00F51F
:1053D000E04494F89834194200F0928000232B7135
:1053E0003AB0BDE8F081F72900F0B28090F876304D
:1053F000632B00F2AD80C2180133917480F87630CF
:10540000EEE700F5E04494F898341942E6D194F8B8
:105410009A8401EA080880F8108094F888743B1F89
:10542000012B06D990F8773003F0FD03012B40F0F3
:10543000B98000236E46742205F1080130462B71B5
:105440000FF078FED4F87C34D4F88024013B9B1A0A
:10545000DBB2002BF6D0742231460DEB02000FF0C8
:1054600069FED4F8806474221DA902FB065001363F
:10547000F6B27C300FF05EFEC4F88064B8F1770FAE
:10548000AED9032FACD10923A8F178012B7284F88F
:10549000883485F87910A3E700F5E04494F898344F
:1054A000194221D094F89C340B40C36094F899348D
:1054B0000B401B09092B037292D80122072B0271A2
:1054C00084F888348CD10023C36011F0080040F0C8
:1054D000948001F0070385F87730002B65D1032213
:1054E00085F876302A717BE794F8883402220372BB
:1054F00094F89A340271194001743AB0BDE8F08111
:1055000094F89A346E4674221940417400F10801EF
:1055100030460FF00FFED4F87C34D4F88024013BE1
:105520009B1ADBB2002BF6D0742231460DEB020041
:105530000FF000FED4F8806474221DA902FB06500F
:105540000136F6B27C300FF0F5FDC4F8806445E713
:1055500000236E46742205F1080130462B7105F5D3
:10556000E0440FF0E7FDD4F87C34D4F88024013B0C
:105570009B1ADBB2002BF6D0742231460DEB0200F1
:105580000FF0D8FDD4F8806474221DA902FB0650E8
:105590000136F6B27C300FF0CDFDC4F880643AB02D
:1055A000BDE8F0810223037168E74B077FF518AF70
:1055B0006E462871742205F1080130460FF0BAFDDD
:1055C000D4F87C34D4F88024013B9B1ADBB2002B46
:1055D000F6D0742231460DEB02000FF0ABFDD4F88B
:1055E000806474221DA902FB06507C300FF0A2FDDE
:1055F000731CDBB2C4F88034F2E608226E462A72CD
:10560000304684F8882494F89E242B71114074222B
:1056100085F8781005F108010FF08CFDD4F87C3482
:10562000D4F88024013B9B1ADBB2002BF6D0D0E7E4
:105630002DE9F04FB948BA4EBA4C2DED048BADF2BE
:105640001C5D9FEDB98A00F0E1FA0021B34804F532
:10565000487B00F05DFBD6F86421B44906F1A40054
:105660000FF072FED6F86821B04906F1BC000FF0C9
:105670006BFED6ED5D7AAE4906F1D40067EE887A0E
:10568000FDEEE77A17EE902A0FF05EFED6ED5E7A19
:10569000A74906F1EC0067EE887AFDEEE77A17EE8F
:1056A000902A0FF051FE0021A24801F0CFFBFA2012
:1056B00003F0B8FD994800F0E9FA0920B0EE408AFD
:1056C00000F0CAFAADF88C001E2000F0C5FAADF863
:1056D0008E00239998484191FFF704FD1B2000F0AC
:1056E000BBFAADF86C00B0EE480A1B9906F14C000D
:1056F00001F066FB1A2000F0AFFAADF87000B0EED2
:10570000480A1C9906F15C0001F05AFB102000F0D9
:10571000A3FAADF87400112000F09EFAADF87800FD
:105720000F2000F099FAADF87C00B0EE480A1F9BFC
:1057300006F12C00DDE91D1201F0ECFA132000F057
:105740008BFAADF88000142000F086FAADF88400E2
:10575000122000F081FAADF88800B0EE480A229BD2
:1057600006F10C00DDE9201201F0D4FA73496B4810
:1057700000F088FAF7EE007AC7EE889A4FF07C5571
:105780009FED699A4FF0000A204684ED038A0127B5
:10579000C4ED049A4FF0000884ED029AB0EE490A75
:1057A000656004F12809C4F814A00DF077FFF0EE4D
:1057B000407ADFED638A204684F80080503444ED5F
:1057C0000E7AB0EE680A04F82B7C04F82C7C44F8BE
:1057D0004C5C44ED128A0DF061FFF0EE407A04ED6E
:1057E000078A484644ED069AB0EE490A44ED0E7A1F
:1057F00004ED089A44F8245C44F814AC0DF04EFF14
:10580000F0EE407A04F8288CB0EE680A04F8037CC5
:10581000484644ED047A04F8047C44F8245C44EDE2
:10582000088A0DF03BFF5C4504ED040AA6D1454C07
:1058300004F58C7520461C34B0EE480A0DF0F8FCD7
:10584000A542F7D1404C04F5F0752046B0EE480A69
:1058500001210DF09DFB20469FED3C0A01210DF03A
:1058600007FC20469FED3A0A02210DF001FC20467C
:10587000B5EE000A04210DF0FBFB4FF07C5344F819
:10588000303BA542E1D1334B0025DFF8D0A00DF12C
:1058900090081A680AF5E04419794292C4F88C24F9
:1058A00004F294405A798DF8061141A98DF8072128
:1058B0009A7944958DF80421DA795B688DF8052191
:1058C000C4F890340123244F4393469347F61223A0
:1058D000DFF88C9047930223DFF888B0459303F0FC
:1058E00035FB0A23C4F8805404F29440C4F87C5475
:1058F0008AF804508AF8083003F0AAFBF7EE007A21
:1059000096ED007AB4EEE77AF1EE10FA40F3A88053
:10591000C6ED007A03F084FC05462DE088060024DD
:10592000C4830024887C00240000C8423C65010830
:1059300048650108AC060024B87F0024F54D000836
:105940000000DC43C406002488040024CDCC4C3D78
:10595000CDCCCC3D7C7C0024847C0024DC0700245E
:1059600004000024B07F0024C4F8845403F090FBAA
:1059700001465348FFF720FD524803F09DFB0346C4
:105980005048002BF0D14F4803F076FB00286FD031
:105990004D4801F033FA4D4801F030FA4C4801F01F
:1059A000DFF94C4801F0DCF93D68B36A1D4499F811
:1059B00000303D60002B3AD1022D67DD02233B60B1
:1059C000DBF8043040F20C42434943A842930FF005
:1059D000B1FB424B41A9424A42484193FBF774FF55
:1059E000D4F88034D4F87C249B1ADBB2002B85D009
:1059F000D4F88034D4F87C249B1ADBB2002BF7D087
:105A0000D4F87C547422404602FB05A10135EDB266
:105A10007C310FF08FFB28A964226846C4F87C54BF
:105A20000FF088FB98E80F00FFF788FA66E745BBA0
:105A3000DBF8043040F20C42274943A842930FF0B0
:105A400079FB264B41A927484193FBF749F8264BA0
:105A50001B68B3F57A7F2EDC0133234A1360BFE75E
:105A6000B5EEC07A0023F1EE10FA48BF336051E77B
:105A70008AF80400134803F003FB124803F0E8FA25
:105A800086E7012D06D0022DAAD199E7002DF8DC7A
:105A900001233B60DBF8043040F20C420E4943A87E
:105AA00042930FF047FB0D4B41A9104A0D4841931B
:105AB000FCF73AFC94E7012389F800503B60CCE7FF
:105AC000DC070024707C002410840024208400243F
:105AD000D0830024F0830024B87F0024B46601083A
