:020000040800F2
:1000000000000220310A00082D0A0008058A0008B5
:100010002D0A00082D0A00082D0A00080000000023
:100020000000000000000000000000002D0A000891
:100030002D0A0008000000002D0A0008F5890008BC
:100040002D0A00082D0A00082D0A00082D0A0008B4
:100050002D0A00082D0A00082D0A00082D0A0008A4
:100060002D0A00082D0A00082D0A00082571000835
:10007000317100082D6600083D71000849710008C3
:1000800029870008252D01082D0A00082D0A0008DF
:100090002D0A00082D0A00082D0A00082D0A000864
:1000A0002D0A00082D0A00082D0A00082D0A000854
:1000B0002D0A00082D0A00082D0A0008592D0108F4
:1000C0002D0A0008652D01082D0A00082D0A0008D8
:1000D0002D0A000819810008C18100086D820008FE
:1000E0002D0A00082D0A0008000000002D0A000853
:1000F0002D0A00082D0A00082D0A00082D0A000804
:100100002D0A00082D0A00082D0A00082D0A0008F3
:1001100019830008C58300082D0A00082D0A00086D
:100120002D0A00082D0A00082D0A00082D0A0008D3
:100130002D0A00082D0A00082D0A00082D0A0008C3
:1001400000000000000000000000000000000000AF
:100150002D0A00082D0A00082D0A000871840008E5
:10016000712D01082D0A00081D5E0008295E000897
:100170002D0A0008355E00082D0A00082D0A000827
:100180002D0A00082D0A00081D850008C9850008F1
:100190002D0A00082D0A00082D0A00082D0A000863
:1001A0002D0A00082D0A00082D0A00082D0A000853
:1001B0006D6E00082D0A00082D0A00082D0A00089F
:1001C0002D0A00082D0A0008415E00084D5E000857
:1001D0002D0A0008595E00082D0A00082D0A0008A3
:1001E0002D0A00082D0A00082D0A00082D0A000813
:1001F0002D0A00082D0A00082D0A00082D0A000803
:100200002D0A00082D0A00082D0A00082D0A0008F2
:100210002D0A00082D0A00082D0A00082D0A0008E2
:100220002D0A00082D0A00082D0A00080000000011
:100230002D0A00082D0A0008000000002D0A000801
:100240002D0A00082D0A00082D0A00082D0A0008B2
:100250002D0A00082D0A00082D0A00082D0A0008A2
:100260002D0A00082D0A00082D0A00082D0A000892
:100270002D0A00082D0A00087586000800000000FD
:100280002D0A00082D0A00082D0A000800000000B1
:08029000000000002D0A000827
:1002A00010B5054C237833B9044B13B10448AFF3B0
:1002B00000800123237010BD4004002400000000D2
:1002C0007082010808B5034B1BB103490348AFF323
:1002D000008008BD00000000440400247082010872
:1002E00010F8012B11F8013B012A28BF9A42F7D0E0
:1002F000D01A7047034613F8012B002AFBD1181AB5
:1003000001387047000000000000000000000000FD
:1003100001F0FF01102A2BDB10F0070F08D010F8B6
:10032000013B013A8B422DD010F0070F42B3F6D1BA
:10033000F0B441EA012141EA014122F007047FF0D3
:1003400000070023F0E80256083C85EA010586EA2A
:10035000010685FA47F5A3FA87F586FA47F6A5FA66
:1003600087F68EB9EED1F0BC01F0FF0102F0070272
:1003700032B110F8013B013A83EA010313B1F8D11D
:100380000020704701387047002D06BF35460338FE
:10039000073815F0010F07D1013015F4807F02BF37
:1003A000013015F4C03F0130F0BC0138704700BF88
:1003B00081F0004102E000BF83F0004330B54FEA16
:1003C00041044FEA430594EA050F08BF90EA020F83
:1003D0001FBF54EA000C55EA020C7FEA645C7FEA16
:1003E000655C00F0E2804FEA5454D4EB5555B8BF39
:1003F0006D420CDD2C4480EA020281EA030382EAAA
:10040000000083EA010180EA020281EA0303362D3B
:1004100088BF30BD11F0004F4FEA01314FF4801C0E
:100420004CEA113102D0404261EB410113F0004F20
:100430004FEA03334CEA133302D0524263EB4303D7
:1004400094EA050F00F0A780A4F10104D5F1200E75
:100450000DDB02FA0EFC22FA05F2801841F10001D0
:1004600003FA0EF2801843FA05F359410EE0A5F1A4
:1004700020050EF1200E012A03FA0EFC28BF4CF0D5
:10048000020C43FA05F3C01851EBE37101F000458B
:1004900007D54FF0000EDCF1000C7EEB00006EEB98
:1004A0000101B1F5801F1BD3B1F5001F0CD3490822
:1004B0005FEA30004FEA3C0C04F101044FEA445279
:1004C00012F5800F80F09A80BCF1004F08BF5FEA00
:1004D000500C50F1000041EB045141EA050130BDE0
:1004E0005FEA4C0C404141EB0101013C28BFB1F5F2
:1004F000801FE9D291F0000F04BF01460020B1FA3D
:1005000081F308BF2033A3F10B03B3F120020CDA0F
:100510000C3208DD02F1140CC2F10C0201FA0CF0ED
:1005200021FA02F10CE002F11402D8BFC2F1200C52
:1005300001FA02F120FA0CFCDCBF41EA0C01904008
:10054000E41AA2BF01EB0451294330BD6FEA040451
:100550001F3C1CDA0C340EDC04F11404C4F120023C
:1005600020FA04F001FA02F340EA030021FA04F34E
:1005700045EA030130BDC4F10C04C4F1200220FAA5
:1005800002F001FA04F340EA0300294630BD21FAE3
:1005900004F0294630BD94F0000F83F4801306BFA9
:1005A00081F480110134013D4EE77FEA645C18BF9D
:1005B0007FEA655C29D094EA050F08BF90EA020F34
:1005C00005D054EA000C04BF1946104630BD91EA2C
:1005D000030F1EBF0021002030BD5FEA545C05D12F
:1005E0004000494128BF41F0004130BD14F580046E
:1005F0003CBF01F5801130BD01F0004545F0FE41E2
:1006000041F470014FF0000030BD7FEA645C1ABF16
:10061000194610467FEA655C1CBF0B46024650EA4D
:10062000013406BF52EA033591EA030F41F4002179
:1006300030BD00BF90F0000F04BF0021704730B5FF
:100640004FF4806404F132044FF000054FF00001D4
:1006500050E700BF90F0000F04BF0021704730B595
:100660004FF4806404F1320410F0004548BF40426A
:100670004FF000013EE700BF42004FEAE2014FEABF
:1006800031014FEA02701FBF12F07F4393F07F4F9A
:1006900081F06051704732F07F4208BF704793F09D
:1006A0007F4F04BF41F40021704730B54FF46074B0
:1006B00001F0004521F000411CE700BF50EA0102B3
:1006C00008BF704730B54FF000050AE050EA01025C
:1006D00008BF704730B511F0004502D5404261EBCC
:1006E00041014FF4806404F132045FEA915C3FF40D
:1006F000D8AE4FF003025FEADC0C18BF03325FEAAA
:10070000DC0C18BF033202EBDC02C2F1200300FA5A
:1007100003FC20FA02F001FA03FE40EA0E0021FA7F
:1007200002F11444BDE600BF53B94AB9002908BF1D
:1007300000281CBF4FF0FF314FF0FF3000F074B9BC
:10074000ADF1080C6DE904CE00F006F8DDF804E028
:10075000DDE9022304B070472DE9F047089D044607
:100760008E46002B4DD18A42944669D9B2FA82F264
:1007700052B101FA02F3C2F1200120FA01F10CFAA0
:1007800002FC41EA030E94404FEA1C48210CBEFBD8
:10079000F8F61FFA8CF708FB16E341EA034306FB61
:1007A00007F199420AD91CEB030306F1FF3080F0F0
:1007B0001F81994240F21C81023E63445B1AA4B23D
:1007C000B3FBF8F008FB103344EA034400FB07F7DF
:1007D000A7420AD91CEB040400F1FF3380F00A8120
:1007E000A74240F207816444023840EA0640E41B15
:1007F00000261DB1D4400023C5E900433146BDE8C1
:10080000F0878B4209D9002D00F0EF800026C5E962
:10081000000130463146BDE8F087B3FA83F6002E7A
:100820004AD18B4202D3824200F2F980841A61EBF2
:10083000030301209E46002DE0D0C5E9004EDDE710
:1008400002B9FFDEB2FA82F2002A40F09280A1EBF8
:100850000C014FEA1C471FFA8CFE0126200CB1FB4D
:10086000F7F307FB131140EA01410EFB03F0884246
:1008700008D91CEB010103F1FF3802D2884200F2D3
:10088000CB804346091AA4B2B1FBF7F007FB101165
:1008900044EA01440EFB00FEA64508D91CEB040403
:1008A00000F1FF3102D2A64500F2BB800846A4EB5E
:1008B0000E0440EA03409CE7C6F12007B34022FA49
:1008C00007FC4CEA030C20FA07F401FA06F31C4378
:1008D000F9404FEA1C4900FA06F3B1FBF9F8200C85
:1008E0001FFA8CFE09FB181140EA014108FB0EF0CB
:1008F000884202FA06F20BD91CEB010108F1FF3A1B
:1009000080F08880884240F28580A8F10208614426
:10091000091AA4B2B1FBF9F009FB101144EA014134
:1009200000FB0EFE8E4508D91CEB010100F1FF34DF
:100930006CD28E456AD90238614440EA0840A0FB77
:100940000294A1EB0E01A142C846A64656D353D04D
:100950005DB1B3EB080261EB0E0101FA07F722FA71
:1009600006F3F1401F43C5E9007100263146BDE89A
:10097000F087C2F12003D8400CFA02FC21FA03F3FD
:10098000914001434FEA1C471FFA8CFEB3FBF7F07E
:1009900007FB10360B0C43EA064300FB0EF69E42A3
:1009A00004FA02F408D91CEB030300F1FF382FD23C
:1009B0009E422DD9023863449B1B89B2B3FBF7F6E4
:1009C00007FB163341EA034106FB0EF38B4208D9BD
:1009D0001CEB010106F1FF3816D28B4214D9023EFE
:1009E0006144C91A46EA004638E72E46284605E71C
:1009F0000646E3E61846F8E64B45A9D2B9EB0208ED
:100A000064EB0C0E0138A3E74646EAE7204694E77C
:100A10004046D1E7D0467BE7023B614432E73046AF
:100A200009E76444023842E7704700BFFEE700BFB1
:100A30000B480C4A904203D0121A0B4914F086FD61
:100A40000A480B4A904203D0121A002114F08CFD80
:100A500008F044F914F04EFD03F022FDFEE700BF5C
:100A6000000000243C040024988201084004002473
:100A7000A4D30024802070474020704710B54FF069
:100A80007E5204460123002100204FF0854C217244
:100A90002060606004F58E7084F84C3184F8743006
:100AA000C4F84821C4F84421C4F89420C4F88CC088
:100AB000C4E91B11C4E94F33024914F051FE20462A
:100AC00010BD00BF346901082DE9F04F89B008ACB2
:100AD0009DF84870019104E90C000B78002B00F0A0
:100AE000AB801A469DF818809DF819300646454699
:100AF00090460393079B0593A8F12004E3B25E2B75
:100B000000F29E8033685E4ADB68934240F09B802F
:100B10008020B3882B44834200F392803368594A83
:100B20009B68934240F092804020F188039A0291A2
:100B30008B18834200F38480002A00F0918002FB2E
:100B400004F46FF00049059BA1441444B6F804B0C6
:100B500003EB4909023BCDF8108003EB44030C463C
:100B60009A4639F802CFA5B304F007034FF0010EFF
:100B7000E20859460EFA03FE0BF114034FFA8EFEFB
:100B800003EBC21200236FEA0E0832440DE07F2906
:100B900006D83F2C04D8107897B14EEA00001070A8
:100BA000013301320131AB4213D00CFA03F00004DF
:100BB000EDD47F29F4D83F2CF2D81078002FECD058
:100BC000013308EA000001320131AB4202F8010CA6
:100BD000EBD1D14504F10104C3D1DDF810803268B6
:100BE0000BEB05042649D368A4B28B4234D1802094
:100BF000844204D3D36822498B423AD17F2493683C
:100C0000204AB480934224D14020029B834206D3E1
:100C100033681C4A9B68934225D13F230293029B71
:100C2000F380019B1878404507D113F8018F019399
:100C3000B8F1000F7FF460AF002009B0BDE8F08F7D
:100C40004FF00008EDE73046984762E73046984796
:100C50006BE730469847D8E7304698473268C7E791
:100C6000B6F804B0BBE730469847013883B2029328
:100C7000D5E7304698470138326884B2BFE700BFF5
:100C8000750A0008790A00082DE9F04F87B09DF831
:100C90004850109C2E4601959DF844509EB39942B1
:100CA0002ED89946A24228D87F29164694BF002301
:100CB000012308E09CF814804EEA080E8CF814E03A
:100CC0000136B44219D33F2EFAD8002BF8D14FEA9F
:100CD000D60C06F0070E4FF0010801EBCC1C08FA09
:100CE0000EFE8444002DE5D19CF814B001362BEAA9
:100CF0000E0AB4428CF814A0E5D201318945D1D254
:100D000007B0BDE8F08FA3EB0108B8F1000FB8BF42
:100D1000C8F100089942C0F04E817F2B4FF0FF3A96
:100D200094BF002601263F2A009694BF0027012782
:100D30000297A6B99FB9D60802F0070C012703EB6A
:100D4000C6160644002D00F0948107FA0CF796F8B9
:100D500014C047EA0C0737750026029600969942A0
:100D600000F09781464694468E46BEF17F0F16D816
:100D7000BCF13F0F13D84FEADC070CF0070B4FF024
:100D800001090EEBC7170744002D00F0398109FA5D
:100D90000BF997F814B049EA0B0987F8149077001B
:100DA00018BFD644B84502DD46440CF1FF3C7345FC
:100DB000DBD16245D9D100260496A4EB0209009F3D
:100DC000B9F1000FB8BFC9F100093F2C94BF00264C
:100DD0000126A242C9F100080396C0F02381002F2A
:100DE00040F05081002E40F04D814FF0FF360096CC
:100DF000E60803EBC6160644002D00F01E814FF0F6
:100E0000010C04F007070CFA07F796F814C047EA3C
:100E10000C07377500260396A24200F03D81C446B8
:100E200016461F4605927F2F15D83F2E13D84FEA3E
:100E3000D60E06F0070B4FF0010A07EBCE1E8644D4
:100E4000002D00F0E6800AFA0BFA9EF814B04AEA88
:100E50000B0A8EF814A0B8EB4C0F4FEA4C0E02DAD6
:100E6000ACEB090C013FBEF1000F01D0009A164413
:100E7000BB42D8D1B442D6D1059AA1EB030EBEF144
:100E8000000FB8BFCEF1000E7F2994BF4FF0000ACB
:100E90004FF0010A99428CBF4FF001094FF0FF3922
:100EA000BAF1000F13D1039E8EB9E60801EBC61606
:100EB0000644002D00F0D3804FF0010C04F007072A
:100EC0000CFA07F796F814C047EA0C073775049E2A
:100ED00026BB774626467F2B14D83F2E12D84FEAE2
:100EE000D60C06F0070B4FF0010803EBCC1C844432
:100EF000002D73D008FA0BF89CF814B048EA0B08E0
:100F00008CF814805FEA470C18BF4B44E64501DDBE
:100F10007744013E9942DED1B442DCD1A2EB040E0B
:100F2000BEF1000FB8BFCEF1000EA2428CBF4FF051
:100F300001084FF0FF38CEF1000CBAF1000F0ED1CE
:100F4000029B63B9D30802F00707012601EBC31324
:100F50000344002D7CD0BE401F7D3E431E75019B87
:100F6000002B7FF4CDAE66460B467F2B12D83F2C6C
:100F700010D8E70804F0070A4FF0010903EBC71780
:100F80000744A5B309FA0AF997F814A049EA0A092F
:100F900087F81490BCEB460F4FEA460702DAA6EB3F
:100FA0000E06013B07B144449942DED1A242DCD196
:100FB00007B0BDE8F08F3F2A4FF0010A94BF00262A
:100FC00001267F2B029694BF002701270097002E51
:100FD0007FF4C8AE002F3FF4AEAEC3E608FA0BFBB9
:100FE0009CF8148028EA0B088CF814808AE709FA28
:100FF0000AFA97F8149029EA0A0987F81490C9E7C1
:1010000009FA0BFB97F8149029EA0B0987F814905A
:10101000C5E60AFA0BFB9EF814A02AEA0B0A8EF822
:1010200014A018E797BB8EBB01260096E60803EBD9
:10103000C6160644002D7FF4E2AE012704F0070C2B
:10104000039507FA0CFC377D27EA0C073775E3E6B2
:1010500006FA07F71E7D26EA07061E757FE70127B9
:1010600004F0070C07FA0CFC377D27EA0C073775EC
:101070002DE707FA0CFC377D029527EA0C0700954F
:1010800037756CE64FF0FF360096C5E601260096F0
:10109000C5E60126049690E601260196EDE600BF1E
:1010A0002DE9F04390F84C8101F114050C460646F9
:1010B00088F0010187B01746284649424FF4806204
:1010C000C9B214F051FA96F851307F2B00F05F82CC
:1010D00096F861307F2B00F063824146B2EE001A31
:1010E000F2EE0A0A9FEDD40AD44B204696F87420FB
:1010F00002F0F6F896F87480B8F1000F00F0BF81A6
:1011000096F84C31F0EE081AF1EE0C0AD6ED1E2AD4
:1011100002EE103A20469FEDD11A4FF00109B8EEC9
:10112000422A9FEDCF0A01F0ABF996F84C31F0EE70
:10113000081AD6ED1F2A02EE103A20469FEDC71A74
:10114000B8EE422ADFEDC70A9FEDC50A01F098F913
:10115000B2EE001AB2EE0A0ADFEDC30A2046B74B20
:1011600096F8982096F84C1102F06AFB96F84C31EC
:1011700020462A2201932321D6F89C30DFF8D4821E
:101180000093372301F076FFAD4B06F1A401204612
:101190006360CDF8009098E80C00FFF795FCA94B30
:1011A000CDF8009006F1D4016360204698E80C0069
:1011B000FFF78AFCA44B204696F84C216360A34BB2
:1011C0000092A3490CCBFFF77FFC96F84C01A44694
:1011D00000237F2B0DD89CF89421002800F01D815E
:1011E00042F020028CF8942103330CF1030C7F2B86
:1011F000F1D903330CF1030CB3F5C07FE9D100231F
:101200003F2B15D84FEAD30C012103F0070E04EB56
:10121000CC1C884601FA0EF16246002800F00281DB
:101220009CF8502011438CF8501002333F2BE9D921
:101230000233802BE4D11E233F2B14D801224FEA26
:10124000D30C03F0070E904604EBCC1C02FA0EF20E
:10125000002800F00B819CF831100A438CF83120F3
:1012600002333F2BEAD90233802BE5D1F16E0029FE
:1012700040F05481F6EE007A96ED007A94F8503002
:10128000B4EEE77AF1EE10FA80F2788123F00103F0
:1012900086F8741086F84C1184F8503004F113036A
:1012A00004F14F0005E042F0010203F8012F8342F0
:1012B00008D05A780029F6D102F0FE0203F8012F77
:1012C0008342F6D194F8D021002900F0D98142F070
:1012D0002002002384F8D02107E090F85020013349
:1012E00016431D2B80F8506016D0D808012603F055
:1012F000070C04EBC010374606FA0CF6024600292C
:10130000EBD190F8500007FA0CF7013320EA0707F9
:101310001D2B82F85070E8D194F89401002900F058
:10132000A98140F0200704F5E87204F5CA7684F834
:10133000947105E040F02000013A5070964208D0C8
:1013400010780029F6D120F02000013A5070964222
:10135000F6D1227D002900F0908142F00102227531
:10136000032209E03E43013B8EF814604FEAD302AA
:1013700013D004EBC210077D03F0070C012604EB29
:10138000C21E06FA0CF60029ECD127EA0600013B42
:101390008EF814004FEAD302EBD104F10807B0260F
:1013A00010344FF0000820468DF817600136414692
:1013B00005F0D4FA642301220DF117013846F6B284
:1013C00006F0E8FA414620468DF8178005F0C6FA87
:1013D000012264230DF11701384606F0DBFA1023D1
:1013E000414620468DF8173005F0B8FA64230122F3
:1013F0000DF11701384606F0CDFA0121204605F01F
:10140000ADFA8022294664233846154406F0C2FA14
:10141000B82EC6D107B0BDE8F08322F020028CF8C8
:101420009421E1E69CF8501008FA0EF821EA080829
:101430008CF85080F9E600BF00003842207B01089C
:101440004600110046003200040008006C0200242F
:1014500040690108640200240000000000004842C6
:1014600000008C420000204200004C429CF83120D9
:1014700008FA0EF822EA08088CF83180F0E6D6ED7A
:10148000202A2046F0EE081A1FED0D2AF1EE0C0A74
:101490001FED0E1A1FED0E0A00F0F2FFF0EE081A13
:1014A000D6ED212A20461FED142A1FED141A5FEDF8
:1014B000130A1FED150A00F0E3FFB2EE001AB2EEB8
:1014C0000A0A5FED170A96F8992041462046B24B6A
:1014D00002F0B6F9CDF80480D6F8A03020462A22D2
:1014E00023210093372301F0C5FDDFF8C892AB4BF1
:1014F00006F1BC01CDF800802046636099E80C003D
:10150000FFF7E2FAA64BCDF8008006F1EC0163602C
:10151000204699E80C00FFF7D7FA4BE6012948D09E
:10152000022900F0B880032968D004297FF435AF80
:1015300096F8743096ED007ADFED9A7A9A49002B8E
:1015400000F0FA8067EE277A06F1D40086ED1F7A64
:1015500086ED517AFDEEE77A17EE902A14F000F945
:1015600096F84C3100223F212046CDE9013200910E
:101570007F231D223C21FFF787FB0EE701210B4350
:1015800086F8741086F84C1184F8503086E6F36EB5
:10159000013B78D4F36696F861307F2B7FF49DADE4
:1015A000F36E0133042BF3667FF797AD0023F366E8
:1015B00093E596ED007ADFED7D7A96F8743067EE6C
:1015C000277A002B00F08780FDEEE77A784906F154
:1015D000A40086ED1E7A17EE902AC6ED4D7A14F01F
:1015E000BFF896F84C1100221D232046CDE90112C8
:1015F00000933C217F23FFF747FBCEE6D6ED007A30
:10160000F5EEC07AF1EE10FA0EDBB5EE007AF4EEEC
:10161000C77AF1EE10FA77D4B6EE007AF4EEC77A14
:10162000F1EE10FA00F1A280B6EE007AF4EEC77A7D
:10163000F1EE10FA77DBB6EE087AF4EEC77AF1EE47
:1016400010FA70D5022396F87420C6F89C30002A50
:1016500000F0968004233B7096F84C3100223F2125
:101660002046CDE901321D2200913C231146FFF7AF
:101670000BFB92E600F0DF0755E602F0FE026EE695
:1016800002F0DF0225E60423F36696F861307F2B33
:101690007FF423AD8AE7F6EE007A96ED007A96F8AD
:1016A0007430B4EEE77A23B3F1EE10FAB4BF01233D
:1016B000002386F89830ACBF01230023C6F83C31E4
:1016C0003F23002100931D23CDE901011A46204646
:1016D000FFF7DAFA61E6FDEEE77A354906F1BC007C
:1016E00086ED207A17EE902AC6ED4E7A14F038F87F
:1016F00077E7F1EE10FAB2BF01220022012386F84B
:101700009920C6F84031DBE7002296F87430C6F81D
:101710009C2033B33A7096F87430EBB10023C6F8CE
:101720009C303B7098E7032396F87420C6F89C30F1
:1017300062B302233B708FE767EE277A06F1EC0075
:1017400086ED217A86ED527AFDEEE77A17EE902A41
:1017500014F006F804E70123C6F8A03087F8283013
:101760007AE7C6F8A03087F82830D4E70123C6F816
:101770009C3096F87430002BEDD001233B706BE762
:10178000C6F8A030042387F8283065E7C6F8A030F3
:10179000022387F828305FE7207B0108460011000C
:1017A000460032000000C842506901080000204293
:1017B00044690108640200242DE9F04F0C460646F6
:1017C0004FF480628BB0002104F1140013F0CCFEC2
:1017D000D6ED004A96ED017AB6EE042B9FEDD06A65
:1017E000B3EE005B34EEC77A96F8513024EE866A89
:1017F000B0EEC77AB7EEC66A9FEDC73BB7EEC77AC1
:10180000A6EE025BB4EEC37BF1EE10FACCBF012270
:1018100000227F2BB7EEC55B336F327200F0778109
:1018200096F861207F2A4CD0002B50D0012B00F07D
:10183000C58106F5827506F58E772946B94BBA4DF6
:101840004FF0010963602046CDF8009095E80C0048
:10185000FFF73AF9B54BCDF8009039466360204662
:1018600095E80C00FFF730F996ED227AD6ED237A51
:10187000BCEEC77AFCEEE77A17EE103A8DED057AEA
:1018800017EE908AC3F1200AA8F10A07BAF1000FF7
:10189000B8BFCAF1000A002FB8BF7F42B8F10A0FE3
:1018A00070D91F2BA7EB0A0104F1080540F246810D
:1018B000B8F17F0FCDF818906FD94FF0FF33079331
:1018C0007BE00133012B3367AEDD002333679FEDEF
:1018D000926BB4EEC67BF1EE10FA00F3408106F590
:1018E000827594F8562004F1130304F1550142F077
:1018F000010284F8562013F8012F42F001029942A8
:101900001A70F8D194F8D620002342F0200284F80F
:10191000D620D90803F00700012204EBC1111344BB
:10192000824091F856000D2B42EA000281F85620C1
:10193000EFD194F8942004F1D70104F1950742F017
:10194000200284F8942011F8010D40F020008F420D
:101950000870F8D1217D012041F00101217502E0DC
:1019600004EBC012127D03F00707012104EBC01045
:10197000013B01FA07F142EA010202754FEAD30086
:10198000EED158E7059B1F2B40F2DF804FF0FF336D
:10199000A7EB0A0104F1080506934FF0FF33079304
:1019A00008F5007323441A7D42F001021A75059B65
:1019B000202B02D1B8F10A0F2AD0CAF10009059AEA
:1019C0004FF00A0C4FF0010BD30802F00700BCF1F6
:1019D0007F0F0CEBC31301FA0BFE0BFA00F007D8D4
:1019E0003F2A234404D893F814B040EA0B0018753A
:1019F000B9EB410F03DA069BA1EB0A019C44774542
:101A000002DD079B39441A44E045DBD1202AD9D1B5
:101A1000236800274FF4B4784FF00109059A0A2192
:101A200020468DE88003D3F820A00323D047CDF8CB
:101A30000890D6ED237A20222046FCEEE77ACDE905
:101A40000078236817EE901AD3F820800323C0474C
:101A500096F84C113B467F2B0BD894F814220029A2
:101A600050D042F0010284F81422033303347F2B58
:101A7000F3D903330334B3F5C07FECD1336805F1F8
:101A8000080805F10C0705F20C49B0247360002624
:101A900040468DF827400134314604F05FFF64234F
:101AA00001220DF127012846E4B205F073FF31460B
:101AB00040468DF8276004F051FF012264230DF1A8
:101AC0002701284605F066FF1023314640468DF871
:101AD000273004F043FF642301220DF1270128463B
:101AE00005F058FF0121404604F038FF80223946B6
:101AF00064231744284605F04DFF4F45C7D10BB06E
:101B0000BDE8F08F22F0010284F81422ADE7013B1A
:101B10004DD4336784E600BFFCA9F1D24D62503F3B
:101B20000000804206000400640200244900040012
:101B3000000020420000944200004843B8F17F0FAB
:101B4000CDE906993FF639AF2AE74FF0FF33A7EB0F
:101B50000A0104F10805CDF81C90069320E7B3EEC6
:101B6000007A1FED0D6A5FED0D7A06F582755FED67
:101B70000E6A35EE477A364937EEC55A2846C7EE23
:101B8000067A86ED225A67EEA67AFDEEE77A17EE20
:101B9000902A643A13F0E4FDB3EE087AFAEE087A7C
:101BA000D6ED006AE6EE877AC6ED247A99E696F8D5
:101BB000613001227F2B32673FF487AE9FED206BAF
:101BC000B4EEC67BF1EE10FA0FDC06F58E7701233A
:101BD00000224321204606F58275CDE901320D230E
:101BE00000937E23FFF750F827E6F3EE006ADFED5F
:101BF000192A9FED196AB2EE047B9FED184A06F58B
:101C00008E7735EE665A164924EE866A384674EEAB
:101C1000A44AC5EE225AC6ED254AB7EEC66A9FED24
:101C20000A3BA6EE037BB7EEC77B65EE847A86EDB2
:101C3000237AFDEEE77A17EE902A13F091FDC6E7BE
:101C4000FCA9F1D24D62503F9A9999999999E93F2F
:101C50005C69010800002042000000430000C84207
:101C600068690108704700BF49424FF48062143030
:101C7000C9B213F079BC00BF10B5044640F214415C
:101C800011F09CFF204610BD2DE9F041B02482B038
:101C900000F1080600F1100500F11408002728469D
:101CA0008DF807400134394604F058FE64230122C0
:101CB0000DF107013046E4B205F06CFE39462846C6
:101CC0008DF8077004F04AFE012264230DF107012C
:101CD000304605F05FFE1023394628468DF8073060
:101CE00004F03CFE642301220DF10701304605F0AB
:101CF00051FE0121284604F031FE80224146642332
:101D00003046904405F046FEB82CC7D102B0BDE87D
:101D1000F08100BF7F291ED83F2A1CD86BB1D308A1
:101D20004FF0010C02F0070201EBC3130CFA02F2B0
:101D3000C1180B7D1A430A757047D3084FF0010C88
:101D400002F0070201EBC3130CFA02FCC1180A7D72
:101D500022EA0C020A7570472DE9F04F83B05C1A35
:101D60000C9E002C9DF83490A6EB0208B8BF64428C
:101D7000B8F1000FB8BFC8F100088B428CBF4FF01C
:101D8000010A4FF0FF3A9642A4EB080C51D84FF0ED
:101D9000FF357F2B019512D83F2E10D8F50806F09D
:101DA000070E012703EBC5150544B9F1000F47D015
:101DB00007FA0EF795F814E047EA0E072F759642DA
:101DC00001D18B4229D0C8F100077F2914D83F2ABE
:101DD00012D8D50802F0070B4FF0010E01EBC51524
:101DE0000544B9F1000F1BD00EFA0BFE95F814B0A4
:101DF0004EEA0B0E85F814E0B7EB4C0F4FEA4C059A
:101E000002DAACEB080C5144AC4202DD019DA44463
:101E10002A449942D9D19642D7D103B0BDE8F08F78
:101E20000EFA0BFB95F814E02EEA0B0E85F814E081
:101E3000E2E701257F2B0195C5D83F2EAED9C2E739
:101E400007FA0EFE2F7D964227EA0E072F75B8D0AF
:101E5000B9E700BF000000002DE9F04F2DED068B23
:101E600083B01F4680460D469DF8503016460193BC
:101E7000139B002BC0F22182129A134406EE103AF3
:101E8000DDED127AB8EEC66B9FEDCD4BB8EEE77B79
:101E90009FEDCD5B27EE047B26EE046B87EE050BF2
:101EA00086EE05ABF7EEC08BB0EE680A11F024FFAA
:101EB00007EE907AB7EECAABF8EE679AB0EE408ABA
:101EC000B0EE680A12F090FA60EE698AB0EE4A0A43
:101ED00011F012FFB0EE409AB0EE4A0A12F084FA06
:101EE00020EE690A29EE888A29EE899A70EE687ACE
:101EF000F0EE006A39EE487A67EEA77AE7EE077AE5
:101F0000F4EEE67AF1EE10FA06D5139BB42B40F30B
:101F100096804FF0010901E04FF00009012478425A
:101F20004FF0000C0095E31B214627462246A340B4
:101F3000B9F1000F6AD1424206EE90CACCF100011D
:101F400007EE102AB8EEE66A07EE901A06EE900A3F
:101F5000B8EEC77A139A66EE084AF8EEE77AB42A22
:101F600027EE284AF8EEE66A67EE885A74EEC43A1D
:101F700026EEA85A26EE096A66EE806A67EE897A2E
:101F800027EE007AF5EEC03A40F3F280F1EE10FA57
:101F900000F17F8176EE473A74EEC54AF5EEC03A1D
:101FA000F1EE10FAF5EEC04ACCBF01220022F1EEAC
:101FB00010FA00F1778136EE666A35EEC55AB5EE55
:101FC000C06AF1EE10FAB5EEC05ACCBF0121002173
:101FD000F1EE10FA00F16F8177EEE66AF5EEC06A75
:101FE000F1EE10FACCBF0127002775EEC45AF5EECA
:101FF000C05AF1EE10FA00F1478177EEC77AF5EE9C
:10200000C07AF1EE10FACCBF01240024002A40F07F
:102010008A80002964D1BFB9C4BB9C4558DB0CF150
:10202000010C03EB4C0E1CEB000F0EF1010E00F047
:10203000C08098424FDB734600287FF779AF03B02A
:10204000BDEC068BBDE8F08F009DA6EB0C0E00EBFF
:10205000050ABAF17F0FDFD8BEF13F0FDCD84FEA97
:10206000DE0B019D0AEBCB1A002D00F0B1800EF0C3
:10207000070BC2444FF0010E0EFA0BFE9AF814B093
:102080004EEA0B0E8AF814E0002CC6D0009DA6EB99
:102090000C0EA5EB000ABAF17F0FBED8BEF13F0FC0
:1020A000BBD84FEADE0B019D0AEBCB1A002D00F0E6
:1020B000AE800EF0070BC2444FF0010E9C450EFAA5
:1020C0000BFE9AF814B04EEA0B0E8AF814E0A6DA6A
:1020D00098429E46AFDA01300EEB40030133ABE786
:1020E000009D0CEB060E00EB050ABAF17F0F92D8AB
:1020F000BEF13F0F8FD84FEADE0B019D0AEBCB1AE2
:10210000002D73D00EF0070BC2444FF0010E0EFAF3
:102110000BFE9AF814B04EEA0B0E8AF814E0002F6A
:102120003FF47AAF90E7009D0CEB060EA5EB000A9A
:10213000BAF17F0F3FF66DAFBEF13F0F3FF669AFCB
:102140004FEADE0B019D0AEBCB1A002D6DD00EF08D
:10215000070BC2444FF0010E0EFA0BFE9AF814B0B2
:102160004EEA0B0E8AF814E000293FF454AFB7E7AB
:10217000F1EE10FA7ED44A4674EEC54AF5EEC04A36
:10218000F1EE10FA6CD4002135EEC55AB5EEC05A06
:10219000F1EE10FA5AD4002775EEC45AF5EEC05A83
:1021A000F1EE10FA3FF529AF0024002A3FF431AFD9
:1021B000B9E798428FDB00233BE700BFAFF3008015
:1021C0007A008BFCFA210940000000000080664084
:1021D000C2444FF0010B0EF0070E0BFA0EFE9AF8F8
:1021E00014B02BEA0E0E8AF814E015E7C2444FF043
:1021F000010B0EF0070E0BFA0EFE9AF814B02BEA44
:102200000E0E8AF814E0002F3FF406AF1CE7C2441C
:102210004FF0010B0EF0070E0BFA0EFE9AF814B0F9
:102220002BEA0E0E8AF814E0F7E6C2444FF0010BD9
:102230000EF0070E0BFA0EFE9AF814B02BEA0E0EF3
:102240008AF814E000293FF4E6AE49E777EEE66A43
:10225000F5EEC06AF1EE10FACCBF012700279BE72C
:1022600036EE666AB5EEC06AF1EE10FACCBF012117
:10227000002189E776EE473AF5EEC03AF1EE10FA22
:10228000CCBF0122002277E70124002A3FF4C1AE2F
:1022900049E774EEC54A0122F5EEC04AF1EE10FAA4
:1022A0007FF589AE35EEC55A0121B5EEC05AF1EE83
:1022B00010FA7FF591AE012797E6DDE9122313446A
:1022C00006EE102A1293139B5B421393D8E500BFCE
:1022D0002DE9F04F85B0A1F1200504AC9DF83870D0
:1022E000009104E90C00EBB25E2B00F295800368CC
:1022F00080465D4ADB689DF8084093429DF809607E
:1023000040F094808020B8F804302344834200F3E6
:102310008380D8F80030554A9B68934240F088800B
:102320004020B8F8062093190192834274DC002EF5
:1023300000F0898006FB05F56FF00040039B964690
:1023400028442E44B8F804A003EB4000023B03EB02
:10235000460B30F8026FBCB30EF007034FF0010CD0
:102360004FEADE0251460CFA03FC0AF114034FFA5D
:102370008CFC03EBC21200236FEA0C0942440EE00E
:102380007F2907D8BEF13F0F04D815789FB14CEADA
:10239000050515700133013201319C4214D006FA53
:1023A00003F52D04ECD47F29F4D8BEF13F0FF1D80A
:1023B0001578002FEBD0013309EA05050132013110
:1023C0009C4202F8015CEAD158450EF1010EC0D1E1
:1023D000D8F8003054442449DA68A4B28A422DD196
:1023E000802084421CD29B68204AA8F80440934273
:1023F00021D14020019B834207D3D8F800301B4AEB
:102400009B68934229D13F230193DDE90003A8F89B
:10241000063005B0BDE8F08F002005B0BDE8F08FB4
:10242000DA6811498A4211D17F24DCE798476AE7CC
:102430004046984775E740469847DBE74046904757
:10244000D8F80030CDE7B8F804A0C1E7404690477F
:102450000138D8F8003084B2C5E7404698470138C3
:1024600083B20193D1E700BF750A0008790A00081A
:102470000021024A81600260704700BFD46A0108EF
:10248000FCEEC07A70EEA11AA1EE220A17EE90CAF5
:10249000FCEEE17A2DE9F04717EE904AFCEEE07A87
:1024A00017EE906AFCEEC07A17EE907ABC4531D8F0
:1024B000A6422BD8BCF17F0F334694BF00250125DF
:1024C00008E091F814804EEA080E81F814E0013318
:1024D0009C421BD33F2BFAD8002DF8D1B5EE402AF1
:1024E000D90803F0070E4FF001080CEBC111F1EE13
:1024F00010FA08FA0EFE0144E3D191F814A001335A
:102500002AEA0E099C4281F81490E3D20CF1010CE6
:102510006745CDD2BDE8F087FDEEC07A2DE9F04FDA
:1025200017EE90BAF8EEE77A2DED0A8BB4EEE71AC3
:1025300085B0F1EE10FA40F3BE80B7EEE0BA8A46FD
:10254000B0EE41CA0BF1FF358046CDF80CB09FEDDF
:102550005CAB9FED5D0BB0EE4A8BB2EE007BD8F822
:102560000030B0EE4B5B0399B0EE4B6B9C695C4B5B
:102570000E46AAEE075B9C42A0EE076BFCEEC57B05
:1025800017EE902AFCEEC67B17EE907A40F08C8016
:10259000BB1AA94234BF4FF0010B4FF0FF3B002B99
:1025A000B8BF5B42BA42C3F1010C6FD34FF0FF31A9
:1025B0007F2D02910FD83F2F0DD8F90807F007049F
:1025C000012005EBC1114144BAF1000F65D0A040D4
:1025D0000C7D2043087558427F2E13D83F2A11D80E
:1025E000D10802F0070E06EBC1110C46BAF1000F3C
:1025F00041D04444012101FA0EF9217D49EA010943
:1026000084F81490B0EB4C0F4FEA4C012EDA0029FD
:10261000ACEB030C5E4429DDAE42DDD19742DBD149
:10262000039B0135013307EE903A0393F8EEE77A06
:102630009FED279BF4EECC7A38EE098BF1EE10FA81
:10264000B7EEC88B37D5B7EEC88A9FED230B38EEAF
:10265000499B28EE000B11F07FFCB0EE087BB0EE3A
:1026600040AB29EE070B11F077FC76E702990CF1ED
:10267000010C0A44D0E74144012404FA0EF491F815
:1026800014E02EEA040E81F814E0BBE701213F2F8D
:102690000291A0D87F2D90D99DE700FA04F4087D1F
:1026A00020EA0400087596E72B4603994046CDE9D9
:1026B000007AA047B4E705B0BDEC0A8BBDE8F08F07
:1026C000000000000000000034BABA95CDE9D2BF86
:1026D0009A9999999999B93F6666666666660A40BD
:1026E000591D0008F2EE006A0368B1EE087AF2EEB6
:1026F000027A30EE877A70EEE60A70EE277ABCEE48
:10270000C77AFCEEE06AFCEEE77A2DE9F04F2DED9A
:10271000028B87B0D3F8188016EE906AFCEEC06A80
:102720000593B0EE408AA74B0746039117EE104A77
:10273000984516EE901A17EE905A40F02B81A5EBB3
:10274000010CA6EB0409BCF1000FB8BFCCF1000CE2
:10275000B9F1000FB8BFC9F10009A94234BF4FF069
:10276000010B4FF0FF3BB442ACEB0903C0F0BB8060
:102770004FF0FF327F2D049214D83F2E12D8039AC7
:10278000002A00F0BC80F2084FF0010E06F00700AE
:1027900005EBC2120EFA00F03A4492F814E040EA57
:1027A0000E001075B44201D1A9422BD0C9F1000826
:1027B00022467F2915D83F2A13D80398002800F015
:1027C000AC80D00802F0070A4FF0010E01EBC010F8
:1027D0000EFA0AFE384490F814A04EEA0A0E80F869
:1027E00014E0B8EB430F4FEA430002DAA3EB09030E
:1027F0005944844502DD0498634402448D42D8D193
:102800009642D6D1F3EE027A059BD3F8188038EEC3
:10281000270A6C4B9845FCEEC07A17EE901A40F0F0
:10282000C480681AA6EB04080028B8BF4042B8F17B
:10283000000FB8BFC8F100088D428CBF4FF00109EE
:102840004FF0FF39B442A0EB0802C0F088807F2D22
:102850004FF0FF3A15D83F2E13D8039B002B00F002
:102860008880F30806F0070E4FF0010C05EBC31348
:102870000CFA0EFC3B4493F814E04CEA0E0C83F87F
:1028800014C0B44201D18D4228D0C8F1000E7F2976
:1028900014D83F2C12D8039B002B4FD0E30804F030
:1028A000070B4FF0010C01EBC3130CFA0BFC3B447C
:1028B00093F814B04CEA0B0C83F814C0BEEB420F33
:1028C0004FEA420302DAA2EB08024944984201DDD2
:1028D000024454448D42DAD1A642D8D107B0BDECAF
:1028E000028BBDE8F08F01223F2E04923FF65EAFCF
:1028F0007F2D3FF65BAF039A002A7FF444AFF208C6
:10290000012006F0070E05EBC21200FA0EFE3A4453
:10291000107D20EA0E00107544E7D0084FF0010E3C
:1029200002F0070A01EBC0100EFA0AFA384490F8D8
:1029300014E02EEA0A0E80F814E052E7E3084FF0A4
:10294000010C04F0070B01EBC3130CFA0BFB3B4427
:1029500093F814C02CEA0B0C83F814C0AEE73F2E9A
:102960004FF0010A91D87F2D8FD8039B002B7FF465
:1029700078AFF3084FF0010C06F0070E05EBC31318
:102980000CFA0EFE3B4493F814C02CEA0E0C83F8AC
:1029900014C076E7039B17EE102ACDE9006317EE0B
:1029A000903AC0473B6805932CE7039B2246384684
:1029B000CDE900632B46C04707B0BDEC028BBDE8F4
:1029C000F08F00BF591D0008B1EE007AF2EE027AD6
:1029D000FCEEC06A30EEC77A70EE277A2DE9F04F30
:1029E000D0F800E08846C449BCEEC77ADEF818701B
:1029F000FCEEE77A06468F4217EE105A17EE904A21
:102A00002DED028B85B0F0EE408AB0EE608ACDED00
:102A1000036A40F0858116EE902A16EE903AA71AC6
:102A2000002FB8BF7F42A242C0F01C817F2C4FF024
:102A3000FF3910D83F2D0ED8EA0805F00700012114
:102A400004EBC2123244B8F1000F00F03F81814024
:102A5000107D01431175039AA24224D039462A46BB
:102A60007F2B15D83F2A13D8D00802F0070A4FF061
:102A7000010C03EBC0103044B8F1000F00F00481EA
:102A80000CFA0AFC90F814A04CEA0A0C80F814C066
:102A9000480018BF4B44874201DD3944013A9C424B
:102AA000DED19542DCD1F1EE0C7ADEF81890924B33
:102AB00078EE277A9945FCEEE77A17EE907A40F0A7
:102AC0002581A7EB0509B9F1000FB8BFC9F10009CD
:102AD000BD42C9F1000CC0F0E7807F2C4FF0FF3AF7
:102AE00010D83F2F0ED8FB0807F00701012204EB96
:102AF000C3133344B8F1000F00F0F6808A40197D0B
:102B00000A431A75BD4225D0624623467F2B13D84F
:102B10003F2D11D8E90805F0070B012003EBC11187
:102B20003144B8F1000F00F0B88000FA0BF091F8D2
:102B300014B040EA0B000875BCEB420F4FEA4201AB
:102B400002DAA2EB0902013B01B155449C42DDD1FE
:102B5000AF42DBD1B3EE020ADEF81850664A78EED7
:102B6000808A9542FCEEE87A17EE903A40F0E380D6
:102B70001D1B002DB8BF6D429C42C0F09E807F2B74
:102B80004FF0FF3C10D83F2F0ED8FA0807F007008F
:102B9000012103EBC2123244B8F1000F00F09D8016
:102BA0008140107D014311759C4223D029463A464D
:102BB0007F2C14D83F2A12D8D00802F0070A4FF011
:102BC000010904EBC0103044B8F1000F53D009FAEA
:102BD0000AF990F814A049EA0A0980F8149048000C
:102BE00018BF6444854201DD2944013AA342DFD184
:102BF0009742DDD1F2EE080A404FBDF80C5038EE96
:102C0000208ABCEEC88A18EE103A9CB2DEF80C306E
:102C1000BB4240F09C808020854205D3DEF80C301A
:102C2000BB4240F099807F25DEF80830B580344DF6
:102C3000AB4240F089804020844205D333689B68D2
:102C4000AB4240F090803F242E4B30462E49F4801A
:102C50000CCBCDF80080FDF737FF05B0BDEC028B43
:102C6000BDE8F08F3F2D4FF001093FF6F7AE7F2C06
:102C70007FF6E2AEF2E609FA0AFA90F8149029EA31
:102C80000A0980F81490AAE70CFA0AFA90F814C01E
:102C90002CEA0A0C80F814C0FAE600FA0BFB087D57
:102CA00020EA0B00087547E73F2F4FF0010A3FF677
:102CB0002BAF7F2C7FF617AF26E77F2B4FF0010C51
:102CC0003FF674AF3F2F7FF660AF6FE701FA00F079
:102CD000117D21EA00011175BDE601FA00F0117DB8
:102CE00021EA000111755FE702FA01F11A7D22EA7B
:102CF00001021A7506E700BF591D0008750A000891
:102D0000790A000864020024746901082A462346EF
:102D100021463046CDE90078C847D6F800E019E7EB
:102D200017EE903A17EE102A0399CDE90058B847EC
:102D3000D6F800E0B7E621463A463046CDE90078BD
:102D4000A847D6F800E055E73046984774E7304684
:102D50009847D6F800E05FE7304698470138D6F844
:102D600000E085B260E730469847013884B26BE7EF
:102D7000B1EE087A0368F2EE007AFCEEC06A30EE3B
:102D8000877A70EEE77A2DE9F04F2DED028B85B052
:102D9000D3F81890BCEEC77A07460293FCEEE77AA8
:102DA000AF4BB0EE608AF0EE408A8846994516EE49
:102DB000905A17EE104A17EE906A40F03081A6EB59
:102DC0000409B9F1000FB8BFC9F10009B442C9F153
:102DD000000EC0F0DF807F2D4FF0FF3A10D83F2E5D
:102DE0000ED8F30806F00701012205EBC3133B449C
:102DF000B8F1000F00F002818A40197D0A431A756C
:102E0000B44226D0F44623462A467F2A13D83F2BC5
:102E100011D8D90803F0070B012002EBC111394486
:102E2000B8F1000F00F0BF8000FA0BF091F814B079
:102E300040EA0B000875BEEB4C0F4FEA4C0102DA7A
:102E4000ACEB090C013A01B153449542DDD19E42ED
:102E5000DBD1F3EE027A029BD3F8189038EEA70A82
:102E60007F4B9945FCEEC07A17EE901A40F0CD806A
:102E7000681AA6EB04090028B8BF4042B9F1000F58
:102E8000B8BFC9F100098D428CBF4FF0010A4FF065
:102E9000FF3AB442A0EB0903C0F095804FF0FF3237
:102EA0007F2D039215D83F2E13D8F20805EBC212DE
:102EB0003A44B8F1000F00F094804FF0010E06F094
:102EC000070C0EFA0CFC92F814E04CEA0E0C82F897
:102ED00014C08D4201D1B44229D0C9F1000E7F291E
:102EE00014D83F2C12D8E20804F0070B4FF0010C65
:102EF00001EBC2123A44B8F1000F5BD00CFA0BFCA4
:102F000092F814B04CEA0B0C82F814C0BEEB430FDD
:102F10004FEA430202DAA3EB09035144904202DD77
:102F2000039A034414448D42D9D1A642D7D1F2EE7C
:102F3000080A4C4EADB238EE208ABCEEC88A18EEB4
:102F4000103A9CB2029BDB68B34277D18020854265
:102F500004D3029BDB68B34275D17F25029B9B683B
:102F6000BD80414DAB4266D14020844204D33B68D2
:102F70009B68AB426ED13F243C4B38463C49FC80B9
:102F80000CCBCDF80080FDF79FFD05B0BDEC028BAA
:102F9000BDE8F08F3F2E4FF0010A3FF633AF7F2D93
:102FA0007FF61FAF2EE700FA0BFB087D20EA0B002F
:102FB000087540E70CFA0BFB92F814C02CEA0B0CD6
:102FC00082F814C0A2E701223F2E039285D87F2DFC
:102FD00083D8F20805EBC2123A44B8F1000F7FF42F
:102FE0006CAF4FF0010C06F0070E0CFA0EFE92F8D3
:102FF00014C02CEA0E0C82F814C06AE702FA01F140
:103000001A7D22EA01021A75FAE62B462246384654
:103010000096CDF80480C8473B68029387E716EE18
:10302000903A17EE102ACDE9006116EE901AC847C3
:103030003B6802930DE73846984796E7384698472D
:103040003B68029383E7384698473B68451E0293E6
:10305000ADB283E738469847013884B28CE700BFA9
:10306000591D0008750A0008790A00086402002446
:10307000786901082DE9F04184B0064614460A9D9E
:103080009DF82C7002910393032D3CD8DFE805F0E6
:1030900002A0703EDDED037A3946DFF83C820C3445
:1030A000B8EEE71A07EE902AA4B2F8EEE70ADDEDD3
:1030B000027AB8EEE70AFFF72FFA3368BDF8085036
:1030C000DA68424540F0C0808020854204D3DA6847
:1030D000424540F0EF807F259B68B580784DAB423C
:1030E00040F0BF804020844205D333689B68AB42E8
:1030F00040F0C0803F24734B7349F48030460CCBC2
:103100000097FDF7E1FC04B0BDE8F081DDED037A46
:103110003946DFF8C4810C34B8EEE71A07EE902A7E
:10312000A4B2F8EEE70ADDED027AB8EEE70AFFF79F
:103130001FFE3368BDF80850DA68424578D1802018
:10314000854204D3DA68424540F0A9807F259B6818
:10315000B5805B4DAB427ED14020844205D33368BD
:103160009B68AB4240F0A1803F24564B5749C4E7CF
:10317000DDED037A3946DFF860810C34B8EEE71AEA
:1031800007EE902AA4B2F8EEE70ADDED027AB8EE77
:10319000E70AFFF719FC3368BDF80850DA684245C2
:1031A0004AD18020854203D3DA68424567D17F2522
:1031B0009B68B580424DAB424AD14020844204D343
:1031C00033689B68AB4265D13F243E4B404994E74E
:1031D000DDED037A3946DFF800810C34B8EEE71AEA
:1031E00007EE902AA4B2F8EEE70ADDED027AB8EE17
:1031F000E70AFFF777FA3368BDF80850DA68424506
:103200001ED18020854203D3DA6842452CD17F2528
:103210009B68B5802A4DAB4220D14020844204D324
:1032200033689B68AB4230D13F24264B294964E781
:1032300030469047336883E7304690473368B1E7BC
:10324000304690473368DDE73046904733683CE7C7
:1032500030469847B2E7304698477EE73046984771
:10326000DCE7304698473EE7304690470138336800
:1032700085B2CDE730469847013884B23BE7304607
:1032800090470138336885B292E730469847013855
:1032900084B2CAE730469847013884B295E7304691
:1032A0009047451E3368ADB251E730469847013824
:1032B00084B25AE7304690470138336885B20BE74D
:1032C000790A0008640200247C6901087869010811
:1032D0007469010880690108750A0008000000008F
:1032E000BCEEE07AFCEEC07A2DE9F04F2DED088BB4
:1032F00089B017EE108ABCEEC17A4FF48775B0EE34
:1033000041AA0692B0EE408AB4228B460291019205
:1033100017EE901A42469A46009517EE103A17EEAD
:10332000907AF0EE60AAF0EE67BA04468DED057A69
:10333000FEF792FD78EE4A7A6FF0B302059B2046C5
:1033400001924246FCEEE77A0095CDF808B017EE00
:10335000906A17EE901AFEF77FFD7AEECA7AF11B9B
:103360000029FCEEE77AB8BF49427F2E17EE90CADB
:1033700094BF4FF000094FF00109B742C0F07381CC
:103380004FF0FF33BCF13F0F059314D8B9F1000F94
:1033900011D14FEADC030CF00700012206EBC31346
:1033A0002344BBF1000F00F01A828240187D4FF0D9
:1033B000000902431A751BEE903AB34200F01B82DB
:1033C000084663461BEE902A7F2A13D83F2B11D85C
:1033D000DD0803F0070E012702EBC5152544BBF1FC
:1033E000000F00F0238107FA0EF795F814E047EA82
:1033F0000E072F75450001D0059F3A44A94201DD13
:103400000844013B9642DFD19C45DDD17AEE8A7AB1
:10341000FCEEE77A17EE90CABCF13F0F94BF4B4623
:1034200049F0010383B94FEADC020CF007050120E3
:1034300006EBC2122244BBF1000F00F09481A840B9
:10344000157D284310752BBB084663461BEE902A5A
:103450007F2A13D83F2B11D8BBF1000F00F0ED806D
:10346000DF0803F0070E012502EBC71705FA0EF57A
:10347000274497F814E045EA0E053D75450001D054
:10348000059F3A448D4201DA0844013B9642DFD160
:103490009C45DDD1B7EEC88A2268B7EECA6AB7EE9E
:1034A0000C3BD368B0EE485BB7EEEA7AB0EE044B63
:1034B000A6EE435BA6EE447BB1EE469BBCEEC55B3D
:1034C00015EE101ABCEEC77B8FB217EE101A1FFA5A
:1034D00081F9B9498B4240F0A1818020874205D310
:1034E000D368B5498B4240F0A3817F279368A780BA
:1034F000B24FBB4240F08F814020814506D3236804
:103500009B68BB4240F08E814FF03F09AC4B514667
:10351000A4F806902046CDF800B00CCBFDF7D4FA05
:10352000F7EE007A069BB4EEE7AA002B00F093803A
:10353000F1EE10FAC0F292800123B6EE00BA1BEE53
:1035400090AA06939F4B2AEE0BBA05932EE080209B
:10355000814506D3DA6898498A4240F039814FF0B4
:103560007F099B68A4F80490BB4240F00981402089
:10357000864205D323689B68BB4240F009813F2601
:10358000069B2046059A01338F491D4606930CCAB7
:10359000E680CDF800B0FDF797FA07EE905AF8EE06
:1035A000E77AF4EECA7AF1EE10FA57D87BEE677A32
:1035B00022684FF4B4790026CDF808B05146FCEEED
:1035C000E77A2046CDE90069126A17EE903ACDED10
:1035D000077A15464246A8472268079B514600963F
:1035E0002046CDE9019B166A4246B047B0EE087A04
:1035F000B0EE486B2368CAEE077ADA689FED6A5B23
:10360000A9EE056B7AEEE77ABCEEC66BFCEEE77AC4
:1036100016EE101A1FFA81F917EE901A8EB266494B
:103620008A4294D020469047236891E707FA0EFE1D
:103630002F7D27EA0E072F75DCE6DD08012703F052
:10364000070E02EBC51507FA0EFE25442F7D27EA6B
:103650000E072F7512E7F1EE10FA0FDA09B0BDEC84
:10366000088BBDE8F08F0123BCF13F0F05933FF6B7
:10367000A7AEB9F1000F3FF48CAEA1E60123B6EE80
:1036800000BAB24606934F4B2AEE0BBA05932BE0D5
:103690008020814505D3DA6847498A427DD14FF0C1
:1036A0007F099B68A4F80490BB4266D14020864203
:1036B00004D323689B68BB4265D13F26069B204606
:1036C000059A013341491D4606930CCAE680CDF8A0
:1036D00000B0FDF7F9F907EE905AF8EEE77AF4EE4C
:1036E000CA7AF1EE10FAB9D87BEE677A22684FF405
:1036F000B479002651462046FCEEE77ACDF808B0B2
:10370000CDE9006917EE903ACDED077A156A424689
:10371000A8472268079B514600962046CDE9019BA9
:10372000166A4246B047B0EE087AB0EE486B23689E
:10373000CAEE077ADA689FED1E5BA9EE056B7AEE9A
:10374000E77ABCEEC66BFCEEE77A16EE101A1FFAAB
:1037500081F917EE901A8EB217498A4298D0204606
:103760009047236895E700FA05F5107D20EA0500EB
:103770001075002B3FF468AE8CE62046984796E71C
:1037800020469847F4E620469847013886B295E7E8
:1037900020469847013886B2F2E620469047013825
:1037A00023681FFA80F97CE79A9999999999F53FCE
:1037B000333333333333C33F750A0008790A0008C3
:1037C0006C020024640200248469010888690108ED
:1037D00020469047013823681FFA80F9C1E602FAB3
:1037E00000F01A7DD94622EA00021A751BEE903AC3
:1037F000B3427FF4E5AD7AEE8A7AFCEEE77A17EE13
:1038000090CABCF13F0F3FF645AEB9F1000F7FF40F
:1038100041AE012307E6204698476EE620469847CA
:1038200022685BE62046984701381FFA80F96DE66A
:10383000204698470138226887B257E6000000000A
:10384000FCEEC07A2DE9F04F17EE90BAFCEEE07A6C
:1038500000260D46044617EE90AAFCEEC17A2DED27
:103860000C8B89B0B0EE41AAF0EE60AA0DEE103AD2
:1038700007926FF0B30217EE903A02910096594604
:1038800001925246B0EE40CACDED057AFEF7E4FA59
:103890007AEECACAB4220096059B5946FCEEEC7A31
:1038A00001922046029517EE906A17EE902ACDED10
:1038B000057AFEF7D1FAA6EB0A077CEE4A7A002FCA
:1038C000FCEEE77AB8BF7F42B24517EE90EAC0F04F
:1038D00073813F2E3346C7F100004FF0FF3994BF8C
:1038E00000230123BEF17F0F069311D883B9059AF7
:1038F000D30802F0070101220EEBC3132344002D6D
:1039000000F02E828A40197D0A431A75002306931F
:10391000059B9A4500F02F820246534671467F2947
:1039200014D83F2B12D8DE0803F007084FF0010C23
:1039300001EBC6162644002D00F024810CFA08FC89
:1039400096F814804CEA080C86F814C0B0EB420FCD
:103950004FEA420601DAD21B013906B14B448E45CB
:10396000DDD1059E9E42DAD17CEE0A7A069BFCEE02
:10397000E77A17EE90EABEF17F0F88BF43F00103AC
:1039800083B90599CA080EEBC2122244002D00F03B
:10399000A481012601F0070106FA01F1167D3143E9
:1039A00011753BBB0246534671467F2914D83F2B05
:1039B00012D8DE0803F007084FF0010C01EBC61621
:1039C0002644002D00F0E7800CFA08FC96F81480DD
:1039D0004CEA080C86F814C0B0EB420F4FEA4206DE
:1039E00001DAD21B013906B14B448E45DDD1059E6B
:1039F0009E42DAD1B7EECC9A2368B7EECA7AB7EE18
:103A00000C6BDA68B7EEEABAB0EE495BB0EE044B85
:103A1000B1EE478BA7EE465BB0EE4B6BA7EE446B67
:103A2000BCEEC55B15EE101A8EB2BCEEC66B16EE80
:103A3000101A8FB2B8498A4240F0B0818020864285
:103A400005D3DA68B4498A4240F0B1817F269B6889
:103A5000A680B24EB34240F09E814020874205D3FB
:103A600023689B68B34240F09D813F27AC4B1DEE1D
:103A7000101AE780204600950CCBFDF725F8F7EEED
:103A8000007A079BB4EEE7AA002B00F08D80F1EEE0
:103A900010FAC0F28C800123F6EE009AB1EE4A9A39
:103AA0000593A04B6AEE299A06932CE0802080456E
:103AB00006D3DA6898498A4240F04B814FF07F087C
:103AC0009B68A4F80480B34240F0178140208742ED
:103AD00005D323689B68B34240F02F813F27059BA5
:103AE0002046069A0133904905930CCAE780009559
:103AF000FCF7EAFFDDED057AF8EEE77AF4EECA7A34
:103B0000F1EE10FA53D879EEE77A22684FF4B478E0
:103B1000002759462046FCEEE77A0295CDE9007869
:103B200017EE903ACDED077AD2F820905246C8476A
:103B30002268079B594600972046CDE90185176A00
:103B40005246B847B0EE4B7BB5EE006A2368F0EE04
:103B50004C6ADA689FED6A5BE9EE066AA8EE057BBF
:103B6000FCEEE66A16EE901A1FFA81F8BCEEC77BEF
:103B700017EE101A8FB268498A4297D020469047B4
:103B8000236894E70CFA08F896F814C02CEA080C9D
:103B900086F814C0DAE60CFA08F896F814C02CEA95
:103BA000080C86F814C017E7F1EE10FA15DA09B020
:103BB000BDEC0C8BBDE8F08F059B78424FF00109FE
:103BC0003F2B94BF00230123BEF17F0F06933FF6E6
:103BD000A3AE002B3FF48BAE9EE6B7EEEC6A01235A
:103BE000B6EE00BA05934F4B2AEE0BBA06939FED43
:103BF000465B26EE056BBCEEC67B17EE109A2BE0FB
:103C00008022904506D3DA6843498A4240F09A8080
:103C10004FF07F089B68A4F80480B3426AD140202B
:103C2000874205D323689B68B34240F081803F27D9
:103C3000059B2046069A01333C4905930CCAE78050
:103C40000095FCF741FFDDED057AF8EEE77AF4EE3A
:103C5000CA7AF1EE10FAAAD87BEE677A22684FF49E
:103C6000B478002759462046FCEEE77A0295CDE964
:103C7000007817EE903ACDED077AD2F820A04A46A8
:103C8000D0472268079B594600972046CDE9018519
:103C9000176A4A46B847B0EE087AB0EE496B236817
:103CA000CAEE077ADA689FED1A5BA8EE056B7AEE2A
:103CB000E77ABCEEC66BFCEEE77A16EE101A1FFA36
:103CC00081F817EE901A8FB213498A4298D0204695
:103CD000904723680246079093E701F00706012109
:103CE00001FA06F6117D21EA06011175002B3FF459
:103CF00059AE7FE62046984792E720469847E6E689
:103D0000333333333333F73F0AD7A3703D0AEF3FE2
:103D1000333333333333C33F750A0008790A00085D
:103D20006C020024640200248C6901089069010877
:103D300020469847013887B27AE720469847471EC1
:103D4000BFB2CCE620469047013823681FFA80F8BE
:103D500060E720469047013823681FFA80F8AFE6F5
:103D600002FA01F11A7D069522EA01021A75059BF5
:103D70009A457FF4D1AD7CEE0A7AFCEEE77A17EE35
:103D800090EABEF17F0F3FF635AE069B002B7FF425
:103D900031AE0123F5E5204698475FE6204690477F
:103DA00023684CE620469847013887B25EE62046F5
:103DB00090470138236886B249E600BF704700BFCC
:103DC000704700BF704700BF704700BF704700BF1B
:103DD000704700BF002A4AD0013A2DE9F0470C464F
:103DE0000025DFF8A0905708214EDFF89CA0DFF8EF
:103DF0009C802DED028B99F8001008341D480FF0BF
:103E0000CBFBB6EE005BB7EEC00ADAED4F7A18488E
:103E1000B8EEE76BDAED507A20EE050BB8EEE77BF3
:103E200026EE006B27EE000BB7EEC66BB7EEC00BAD
:103E300086ED016A86ED0B0A0FF05AFCB0EE408A5F
:103E40000D480FF055FC0D490D4838EE008A0FF073
:103E50001DFCAF4288ED000A05F1010504ED028A60
:103E600004ED018AC7D1BDEC028BBDE8F087704735
:103E7000947900245C040024BC7900248C04002480
:103E8000CC0400248D040024FC7D0024E47900246B
:103E900084B070B5ADF5027D86AC84E80F009DF866
:103EA00018420A469DF820629DF82152B4B1012CB7
:103EB0000ED12249334602A8009511F051FC02A808
:103EC000FCF718FA02A902461D4801F09DFFEDB962
:103ED0000DF5027DBDE8704004B0704719493346C6
:103EE00002A8009511F03CFC02A8FCF703FA02A915
:103EF0000246134801F088FF002DE9D0124B1C70D8
:103F00000DF5027DBDE8704004B0704707EE906A81
:103F10000E4B0F48B8EEE70A93ED251AF8EE670A44
:103F2000D3ED247A30EE270A0FF09AFB064B1C7073
:103F30000DF5027DBDE8704004B07047046B0108C8
:103F4000B4040024206B01088D040024FC7D0024AF
:103F5000CC0400242DE9F04101268CB0074604462C
:103F6000804601918672002527F8081F384602F026
:103F70000BFCBDF80630A67128F8043F404602F05D
:103F800003FCA74B204606960293A64B0595CDE968
:103F900003350223CDE90A3308230DEB0301079310
:103FA000CDE9085503F074FC2946404602F0D6FCE2
:103FB0000A2004F02BFD3146404602F0CFFC0A20D7
:103FC00004F024FDAE23294638468DF8083002F06F
:103FD000C5FC324602A96423204603F0DBFCD5234E
:103FE000294638468DF8083002F0B8FC324602A95E
:103FF0006423204603F0CEFC8023294638468DF802
:10400000083002F0ABFC324602A96423204603F0DC
:10401000C1FCA823294638468DF8083002F09EFCE2
:10402000324602A96423204603F0B4FC3F2329460C
:1040300038468DF8083002F091FC324602A964231C
:10404000204603F0A7FCDA23294638468DF80830CD
:1040500002F084FC324602A96423204603F09AFC55
:104060001223294638468DF8083002F077FC324694
:1040700002A96423204603F08DFCD3232946384649
:104080008DF8083002F06AFC3246642302A920460B
:1040900003F080FC294638468DF8085002F05EFC9B
:1040A000324602A96423204603F074FC40232946CB
:1040B00038468DF8083002F051FC324602A96423DC
:1040C000204603F067FCA623294638468DF80830C1
:1040D00002F044FC324602A96423204603F05AFC55
:1040E000A423294638468DF8083002F037FC3246C2
:1040F00002A96423204603F04DFC8D23294638464F
:104100008DF8083002F02AFC324602A964232046CA
:1041100003F040FC1423294638468DF8083002F09D
:104120001DFC324602A96423204603F033FCA12380
:10413000294638468DF8083002F010FC324602A9B4
:104140006423204603F026FCC823294638468DF810
:10415000083002F003FC324602A96423204603F033
:1041600019FC8123294638468DF8083002F0F6FB09
:10417000324602A96423204603F00CFC8F23294613
:1041800038468DF8083002F0E9FB324602A9642374
:10419000204603F0FFFBD923294638468DF8083026
:1041A00002F0DCFB324602A96423204603F0F2FB56
:1041B0002523294638468DF8083002F0CFFB3246D9
:1041C00002A96423204603F0E5FBDB232946384699
:1041D0008DF8083002F0C2FB324602A96423204663
:1041E00003F0D8FB3423294638468DF8083002F016
:1041F000B5FB324602A96423204603F0CBFBAF2374
:10420000294638468DF8083002F0A8FB6423324670
:1042100002A9204603F0BEFB0CB0BDE8F08100BF50
:10422000060B0B000105060A03792DE9F04105464E
:10423000BAB0032B0CD8DFE803F0671C020E00F5C0
:10424000E04494F89834194200F0928000232B71D6
:104250003AB0BDE8F081F72900F0B28090F87630EE
:10426000632B00F2AD80C2180133917480F8763070
:10427000EEE700F5E04494F898341942E6D194F85A
:104280009A8401EA080880F8108094F888743B1F2B
:10429000012B06D990F8773003F0FD03012B40F095
:1042A000B98000236E46742205F1080130462B7157
:1042B00011F04CF9D4F87C34D4F88024013B9B1ADB
:1042C000DBB2002BF6D0742231460DEB020011F068
:1042D0003DF9D4F8806474221DA902FB0650013612
:1042E000F6B27C3011F032F9C4F88064B8F1770F7F
:1042F000AED9032FACD10923A8F178012B7284F831
:10430000883485F87910A3E700F5E04494F89834F0
:10431000194221D094F89C340B40C36094F899342E
:104320000B401B09092B037292D80122072B027143
:1043300084F888348CD10023C36011F0080040F069
:10434000948001F0070385F87730002B65D10322B4
:1043500085F876302A717BE794F88834022203725C
:1043600094F89A340271194001743AB0BDE8F081B2
:1043700094F89A346E4674221940417400F1080191
:10438000304611F0E3F8D4F87C34D4F88024013BB3
:104390009B1ADBB2002BF6D0742231460DEB0200E3
:1043A00011F0D4F8D4F8806474221DA902FB0650E1
:1043B0000136F6B27C3011F0C9F8C4F8806445E7E4
:1043C00000236E46742205F1080130462B7105F575
:1043D000E04411F0BBF8D4F87C34D4F88024013BDD
:1043E0009B1ADBB2002BF6D0742231460DEB020093
:1043F00011F0ACF8D4F8806474221DA902FB0650B9
:104400000136F6B27C3011F0A1F8C4F880643AB0FD
:10441000BDE8F0810223037168E74B077FF518AF11
:104420006E462871742205F10801304611F08EF8AD
:10443000D4F87C34D4F88024013B9B1ADBB2002BE7
:10444000F6D0742231460DEB020011F07FF8D4F85B
:10445000806474221DA902FB06507C3011F076F8AE
:10446000731CDBB2C4F88034F2E608226E462A726E
:10447000304684F8882494F89E242B7111407422CD
:1044800085F8781005F1080111F060F8D4F87C3453
:10449000D4F88024013B9B1ADBB2002BF6D0D0E786
:1044A0002DE9F04FB748B84EB84F2DED048BADF263
:1044B000445D9FEDB78A00F0FDFA0021B1483C460B
:1044C00000F07EFBD6F83421B24906F1A40011F0C9
:1044D00047F9D6F83821AF4906F1BC0011F040F990
:1044E000D6ED517AAC4906F1D40067EE887A07F12F
:1044F000500AFDEEE77A17EE902A11F031F9D6ED69
:10450000527AA54906F1EC0067EE887AFDEEE77A6B
:1045100017EE902A11F024F90021A04801F0EEFBDB
:10452000FA2004F073FA182000F0EAFA034625A8EE
:10453000ADF868301A9901F095FC192000F0E0FA06
:1045400003460DF1A500ADF86C301B9901F08AFC13
:10455000022225A90423924801F092FC904802F01F
:1045600003F8884800F0E6FA0920B0EE408A00F02F
:10457000C7FA03461E20ADF8903000F0C1FAADF83E
:104580009200249987484B91FFF7E4FC1B2000F030
:10459000B7FAADF87000B0EE480A1C9906F14C006D
:1045A00001F066FB1A2000F0ABFAADF87400B0EE33
:1045B000480A1D9906F15C0001F05AFB102000F03A
:1045C0009FFAADF87800112000F09AFAADF87C005F
:1045D0000F2000F095FAADF88000B0EE480A209B5D
:1045E00006F10C00DDE91E1201F0ECFA132000F0D8
:1045F00087FAADF88400142000F082FAADF8880044
:10460000122000F07DFAADF88C00B0EE480A239B32
:1046100006F12C00DDE9211201F0D4FA6249594873
:1046200000F084FAF7EE007AC7EE888A00234FF094
:104630007C599FED570A20466361012584ED038A6A
:104640004FF00008C4ED048A84ED020AC4F8049017
:104650000FF030FADFED557A84ED060A204684F833
:104660002550B0EE670A84F80080283404F8045C12
:1046700044F8249C44ED087A0FF01CFA04ED040A77
:10468000A245D3D14A4CB0EE480A4A480EF0DCFFAE
:104690002046B0EE480A29460EF07EFE20469FEDE9
:1046A000460A29460EF0F0FE20469FED440A0221FC
:1046B0000EF0EAFEB5EE000A204604210EF0E4FEFC
:1046C00020462946DFF800B1C4F800900EF0D4FE71
:1046D0003B4B47F612220BF5E0444BA951921A6866
:1046E00004F29440CDF83881C4F88C244C921A79A5
:1046F0004D958DF82E215A7950958DF82F219A7964
:10470000DFF8C8908DF82C21DA795B688DF82D21BF
:10471000C4F890340223DFF8B8A04F9304F00AF8ED
:104720000A23C4F8808404F29440C4F87C848BF893
:1047300004800DF1B8088BF8083004F07DF896ED90
:10474000127AF7EE006A9FED1F6AB8EEC77AD6EDCF
:10475000007AE7EE067AF4EEE67AF1EE10FA40F32C
:10476000F880C6ED006A96F831100648A1F1FF0105
:10477000B1FA81F1490900F0E1F904F045F9054683
:1047800030E000BF90040024FC7D002494790024D4
:104790000000C8424469010850690108B4040024BB
:1047A000A8040024F0790024D53D00080000DC4373
:1047B0005C040024CC040024CDCC4C3DCDCCCC3DBD
:1047C000887900240000003DE8040024907900244A
:1047D000E4790024C4F8845404F04EF80146684893
:1047E000FFF722FD674804F05BF803466548002B9D
:1047F000F0D1644804F034F8002800F0B480624836
:1048000001F054FA614801F051FA614801F000FAF0
:10481000604801F0FDF9D9F80030B26A1344012B69
:1048200040F381800123C9F800305B4B40F20C4219
:104830005A494DA85B684C9310F088FE584B4BA921
:10484000584A59484B93FCF7B7FFD4F88034D4F852
:104850007C249B1ADBB2EBB1D4F88034D4F87C24EE
:104860009B1ADBB2002BF7D0D4F87C54742240465C
:1048700002FB05B10135EDB27C3110F067FE642218
:1048800032A96846C4F87C5410F060FE98E80F0026
:10489000FFF7FEFA96ED4D7AB2EE089ADAED007A5D
:1048A000B7EE008AF8EEC70ADFED409AB0EE000AD4
:1048B000DFED3F8A70EEA70A70EEE90AC0EE890AC2
:1048C0000FF0FEFBD6ED517A364877EE887A20EE6F
:1048D000280A27EE800A87ED020A0FF0EBF8B0EE07
:1048E000407ADAED007AB0EE000A87ED067A96EDAE
:1048F0004E7AF8EEC70A70EEA70A70EEE90AC0EE2B
:10490000890A0FF0DDFBD6ED527A2A4877EE887AD5
:1049100020EE280A27EE800A87ED0C0A0FF0CAF86D
:1049200087ED100A0BE7002B26DA0023C9F80030C8
:10493000194B40F20C4219494DA85B684C9310F09A
:1049400005FE174B4BA9174A17484B93FCF7A8FBDA
:104950007BE7F5EEC07A0023F1EE10FA54BFC6ED06
:10496000007A3360FFE68BF80400064803F07CFF12
:10497000044803F061FF42E7C9F80030D8D054E79B
:10498000E80400247C790024487E0024587E00241A
:10499000087E0024287E0024E8790024F079002491
:1049A000D46A010894790024FC7D002400008A4226
:1049B0000000DC43BC79002470B52C4C2C4D204603
:1049C0002C4EFCF75BF82A462B4920460FF07EF868
:1049D00000242A482A462A49446104620FF076F8E6
:1049E0003046FDF745FD2A46264930460FF06EF861
:1049F0002A46254920460FF069F82A4623492448CB
:104A00000FF064F823480023234A244903604360DD
:104A10008260C3600261426182612A46C3610362AF
:104A2000436284850FF052F81D481E492A4600F55E
:104A3000E04304600E888D881B49C3F88C44C3F89A
:104A400098144FF60F01C3F89444A3F89C1407215F
:104A5000A3F8906483F89E14A3F8925413490FF0BE
:104A600035F8134B1C609E80DD8070BDFC7D0024FA
:104A700000000024E8790024C93D000890040024C7
:104A8000BD3D0008651C0008CD3D0008C53D00087F
:104A9000CC0400245C040024000080BFC13D000859
:104AA000E80400240069010880707FF0D13D00080F
:104AB000887900240F4A01230F494FF0060C80F833
:104AC0002730816040F2027180F810C0A0F82510F4
:104AD00080F82B3010B4094CC0E9004202F1817219
:104AE0005DF8044B0532C26040F60662A0F829204A
:104AF000704700BF01050805090507050007050007
:104B00001F2882B009D8084B03EB400213F810307D
:104B1000507843EA002002B0704701230C2043EA9A
:104B2000002002B0704700BF406B0108143001F054
:104B30002BB800BF143001F023B800BF253001F0BE
:104B40000DBF00BF0000000030B5032491B0012567
:104B5000194900234FF44172089106A9ADF82420A9
:104B600002939FED137BCDE90A45144D044602A83C
:104B70008DED0C7B8DED0E7BCDE9063502F060FBF3
:104B800040F601333025ADF80430019800F056F8B6
:104B900003214FF07E53029A04F114000593CDE9EE
:104BA000035103A900F0B6FF11B030BDAFF3008090
:104BB00000000000010000000405040604020404D3
:104BC00030B504462DED028B83B089B3012240F24B
:104BD00001130092ADF80430694604F1300003F08F
:104BE000E1FF204600F04CF8E01C01F0C9FE04F1A2
:104BF000250001F0C9FD04F1140504F1290001F0BC
:104C0000C3FD2046FFF7A0FF284600F0B9FF284665
:104C1000B0EE408A00F0B0FFD0ED007AF8EE677A8F
:104C200088EE277A84ED0E7A03B0BDEC028B30BD9E
:104C300040F201130091ADF80430CDE710B584B017
:104C400003460124ADF8040003A8ADF80C30ADF81C
:104C50000E4001F099FD214603A801F07FFE204699
:104C600003F0D4FE002103A801F078FE204603F0F3
:104C7000CDFE214603A801F071FE04B010BD00BFB7
:104C8000F0B53F4C8BB0A06303781BB100252846DC
:104C90000BB0F0BD0022079301233A49201D61604B
:104CA0000321C4E902230822202306910A21C4E932
:104CB000042340224FF4C073089102A9C4E90623DB
:104CC00000224FF40063C4E908234FF4805200230C
:104CD000C4E90A2302220723CDE902230422082380
:104CE000CDE904230AF0E8FA0546002844D1102350
:104CF00001220126002702A90190201DCDE90223EF
:104D00004FF48052CDE904670AF000FB642004F000
:104D1000A1FD02A94FF48052201DCDE904670226AF
:104D20001027CDE902670AF0F1FA0322102302A945
:104D3000201DCDE9022300230422CDE904234FF4F2
:104D400080520AF0E3FA40F23223042202A90193CE
:104D50001023201DCDE90223019A012305924FF46F
:104D6000805204930AF0D2FA40F60601201D0AF0A0
:104D7000EDFA28460BB0F0BD012528460BB0F0BD7A
:104D8000507F0024404100526A4A00232DE9F0433D
:104D900015688FB00A9315B10FB0BDE8F083664B6C
:104DA00001210C244FF0030811600026D3F8D42011
:104DB0000327624842F48052DFF89891C3F8D42068
:104DC000D3F8D42002F480520092009AD3F8E02065
:104DD00042F01002C3F8E020D3F8E02002F0100205
:104DE0000192019AD3F8E02042F04002C3F8E0209B
:104DF000D3F8E02002F040020292029AD3F8E020B9
:104E000042F00802C3F8E020D3F8E02002F00802E4
:104E10000392039AD3F8E02042F48072C3F8E020B2
:104E2000D3F8E02002F480720492049AD3F8E020D0
:104E300042F08002C3F8E020D3F8E02002F08002C4
:104E40000592059AD3F8E02042F02002C3F8E02052
:104E5000D3F8E02002F020020692069AD3F8E02070
:104E600042F00402C3F8E0204FF68372D3F8E0303A
:104E70000C9403F00403CDF82C80079302230799C8
:104E800008A9CDE9082306F06BFB48F2371202238C
:104E900008A92B480C94CDE90823CDE90A6706F050
:104EA0005FFB4CF20372022308A926480C94CDE95B
:104EB0000823CDE90A6706F053FB40F2FF620223A4
:104EC00008A921480C94CDE90823CDE90A6706F02A
:104ED00047FB4FF60C72022308A91C480C94CDE93D
:104EE0000823CDE90A6706F03BFB4FF63F02022399
:104EF00008A917480C94CDE90823CDE90A6706F004
:104F00002FFBD9F83800013004F082FBD9F8383093
:104F10000646581C04F084FB0223089008A930467A
:104F20000A950993CDE90B8406F01AFB0FB0BDE892
:104F3000F08300BF4C7F0024004402580010025848
:104F400000180258000C025800200258001C025899
:104F500000140258507F00242DE9F04FDFF8108430
:104F600006460D46144608F114002DED028B89B05B
:104F700000AF02F05DFAD8F8143073B3D8F81830E7
:104F8000D8F80490002B43690BBF4FF0080A4FF08C
:104F9000100A4FF0020B4FF0040BB9F1000F2AD0AA
:104FA000A200EA46012B02F1070222F00702ADEB54
:104FB000020D6846ADEB020D694600F03F81022B01
:104FC00000F0D680002B6FD02246C847D546243744
:104FD000BD46BDEC028BBDE8F08FD8F81830002B31
:104FE000F5D0D8F804904FF0080A4FF0020B43694F
:104FF000B9F1000FD4D1FB61D8F80030BB61002BB0
:10500000E5D0D54802F05CFA6B46BBF1020F78613F
:1050100008EE103AFB6900F083816A465146A2EB24
:10502000C40295466200EA46B2FBFBF2AAEBC4005A
:1050300085460AEB8200EE46F861ADEB010DF8699A
:105040000EEB820CC7F810C0EC46ADEB010D00EB87
:105050008201CCF80400CCF8081001EB8201386919
:10506000E946CCF80C1000EB8201CCF800A001EB73
:105070008202C9E900E0C9E90212012B00F0648351
:10508000022B00F06C82002B00F080816208494600
:105090006046BB69984718EE103A24379D46BD46D6
:1050A000BDEC028BBDE8F08F002C8DD01A46D8EDF8
:1050B0000B6A9FEDB27A8446331D36F922E00CF17B
:1050C000080C07EE90EA33F922E00232F8EEE77AB4
:1050D000944267EE877A67EEA67A4CED027A07EE85
:1050E00090EAF8EEE77A67EE877A67EEA67A4CEDFB
:1050F000017AE2D8F9612246C847984ED8ED046A91
:105100000020F9692B1D9FED9E7A9FED9E6ADFEDD1
:105110009E5A22E0F4EEC67AF1EE10FAC0F2C8848C
:1051200047F6FE72D1ED017A45F8202066EEA77AA7
:10513000F4EEC77AF1EE10FA40F2F080F4EEC67A9F
:10514000F1EE10FAC0F2D58447F6FE7243F8202043
:105150000230083184427FF639AFD1ED007A66EE35
:10516000A77AF4EEC77AF1EE10FAD3D83246D9E72F
:10517000002C3FF429AFD8ED0B6A84469FED787A76
:105180000022331D8E4656F822100CF1080C07EE53
:10519000901A53F822100232F8EEE77A944267EE42
:1051A000877A67EEA67A4CED027A07EE901AF8EE4F
:1051B000E77A67EE877A67EEA67A4CED017AE2D855
:1051C00071462246C7F81CE0C847664ED8ED046A0F
:1051D0000020F9692B1D9FED6A7A9FED6A6ADFF85E
:1051E00094C120E0F4EEC67AF1EE10FAC0F27984B0
:1051F0003246D1ED017A45F8202066EEA77AF4EE2A
:10520000C77AF1EE10FA40F28780F4EEC67AF1EE3A
:1052100010FAC0F25E84324643F820200230083192
:1052200084427FF6D3AED1ED007A66EEA77AF4EE33
:10523000C77AF1EE10FAD5D86246DAE7002C3FF4CF
:10524000C3AED8ED0B6A86469FED477A4FF0000C4F
:10525000331D56F82C200EF1080E82F40002A2F540
:10526000000207EE902A53F82C200CF1020CF8EE05
:10527000E77A82F400026445A2F5000267EE877ABD
:1052800067EEA67A4EED027A07EE902AF8EEE77AFC
:1052900067EE877A67EEA67A4EED017AD9D8F96182
:1052A0002246C847314ED8ED046A0020F9692B1D0B
:1052B0009FED337A9FED336ADFF8BCC01FE0F4EE58
:1052C000C67AF1EE10FAC0F2FC833246D1ED017AD3
:1052D00045F8202066EEA77AF4EEC77AF1EE10FAD0
:1052E00018D9F4EEC67AF1EE10FAC0F2DA8332463B
:1052F00043F820200230083184427FF667AED1EDBA
:10530000007A66EEA77AF4EEC77AF1EE10FAD6D8F4
:105310006246DBE76246EBE762467DE7324615E729
:10532000A100D6466208073121F00701ADEB010D5F
:10533000EA46ADEB010D6946ADEB0E0D0AEB8200BE
:10534000EC46ADEB0E0D01EB8202F861E946CCE9CB
:1053500000A0C9E9001290E6A47F00240280FFFFAC
:10536000000000300082FF7F0000003482FF7F00D9
:105370008C7F0024007E00807E0080FF00000038CB
:1053800004FF7FBF04FF7F3F00FEFF46002C00F0BC
:10539000C982BBF1020FD8F8202000F0FA827969A7
:1053A000C7F8049002EB810E5FED0C5A8A00DCF81E
:1053B00008100EF104007A611A46DCF80C303B61EB
:1053C000331DD7F810903D61FD69C7E902CB8C46CB
:1053D000834636F92210D8ED0B7A06EE101A33F90F
:1053E000221006EE901A3EF92210B8EEC66A07EEB9
:1053F000101AF8EEE66A3BF92210B8EEC77A26EEEC
:10540000256A66EEA56A27EE257A26EE276A66EEFD
:10541000A76A27EE277A07EE901A51080232F8EEB3
:10542000E77A0AEB8100944280ED006A05EB810087
:1054300067EEA57AC0ED006A0CEB810009EB8101F3
:1054400080ED007A98ED0B7A67EE877AC1ED007AED
:10545000BFD8D7F804903D69D7E902CB604662080F
:10546000BB6949469847D8F828307A69D8ED046A6C
:105470001A441FED3D7A1FED3D6A2B1D904602F147
:10548000040A5FED3F5A0022A84ED9E900EC51E032
:10549000F4EEC67AF1EE10FAC0F2C78247F6FE705B
:1054A00045F822000CEB0100D0ED007A66EEA77AF9
:1054B000F4EEC77AF1EE10FA4BD9F4EEC67AF1EEBB
:1054C00010FAC0F2BA8247F6FE70BBF1020F43F841
:1054D00022002BD0D9F808000844D0ED007A66EEFF
:1054E000A77AF4EEC77AF1EE10FA36D9F4EEC67A5E
:1054F000F1EE10FAC0F2CD8247F6FE7048F82200B5
:10550000D9F80C000144D1ED007A66EEA77AF4EEEA
:10551000C77AF1EE10FA1ED9F4EEC67AF1EE10FA5F
:10552000C0F2AF8247F6FE714AF82210023294426E
:105530007FF6B1AD51080EEB81008900D0ED007A05
:1055400066EEA77AF4EEC77AF1EE10FAA0D83046EC
:10555000A6E73046B9E73146E6E73046CEE7002C0D
:1055600000F0E081BBF1020FD8F8203000F0E181BB
:105570007A69DCF8081003EB820EC7F804909300F8
:10558000DFED6B5A0EF1040000227B61DCF80C3079
:105590003B61331DD7F810903D61FD69C7E902CB2F
:1055A0008C46834656F82210D8ED0B7A07EE101A77
:1055B00053F82210B8EEC76A07EE101A5EF82210F0
:1055C000F8EEC76A07EE101A26EE256A5BF822107D
:1055D000B8EEC77A66EEA56A26EE276A27EE257A28
:1055E00066EEA76A27EE277A07EE901A5108023274
:1055F000F8EEE77A0AEB8100944280ED006A05EB51
:10560000810067EEA57AC0ED006A0CEB810009EB22
:10561000810180ED007A98ED0B7A67EE877AC1ED13
:10562000007ABFD8D7F804903D69D7E902CB60462D
:105630006208BB6949469847D8F828307A69D8ED9E
:10564000046A1A449FED3E7A9FED3E6A131D92460E
:10565000DFF8E4C00022FB612B1D364ED9E9008E35
:105660004EE0F4EEC67AF1EE10FAC0F2FC8130465C
:1056700045F822000EEB0100D0ED007A66EEA77A25
:10568000F4EEC77AF1EE10FA49D9F4EEC67AF1EEEB
:1056900010FAC0F2EF813046BBF1020F43F822004E
:1056A0002AD0D9F808000844D0ED007A66EEA77A2F
:1056B000F4EEC77AF1EE10FA35D9F4EEC67AF1EECF
:1056C00010FAC0F2C98130464AF82200D9F80C001D
:1056D0000144D1ED007A66EEA77AF4EEC77AF1EED6
:1056E00010FA1ED9F4EEC67AF1EE10FAC0F2AD81CE
:1056F0003146F86940F82210023294427FF6CBAC72
:10570000510808EB81008900D0ED007A66EEA77A97
:10571000F4EEC77AF1EE10FAA3D86046A8E7604627
:10572000BAE76146E5E76046CEE700BF0280FFFFCB
:10573000000000300082FF7F007E00800000003407
:1057400004FF7FBF04FF7F3F002C00F0EB807A69ED
:105750000021D8F82030C7F8109003EB820ED7F85C
:105760001C909300FD610EF104021FED0C6A7B6139
:10577000331D154656F821204808D8ED0B6ABBF1B9
:10578000020F82F40002A2F5000207EE902A53F8FD
:10579000212082F40002B8EEE77AA2F5000227EE9B
:1057A000067A07EE902A0AEB8002F8EEE77A27EEF7
:1057B000267A67EE867A82ED007A09EB80024FEA5C
:1057C000800067EEA67AC2ED007A27D05EF821202D
:1057D00082F40002A2F5000207EE902A55F821207B
:1057E00082F40002B8EEE77AA2F5000227EE067A0C
:1057F00007EE902ADCF80820F8EEE77A024427EE5C
:10580000267A67EE867A82ED007A98ED0B7ADCF8DC
:105810000C2067EE877A0244C2ED007A02318C4296
:10582000A8D8D7F8109060466208BB694946FD6960
:105830009847D8F828307A69D8ED046A1A441FEDE1
:10584000407A1FED406A131D9246DFF8C4C2002261
:10585000FB612B1DAB4ED9E9008E4EE0F4EEC67A0B
:10586000F1EE10FAC0F2C580304645F822000EEB8A
:105870000100D0ED007A66EEA77AF4EEC77AF1EE79
:1058800010FA49D9F4EEC67AF1EE10FAC0F2BF80F0
:105890003046BBF1020F43F822002AD0D9F80800A5
:1058A0000844D0ED007A66EEA77AF4EEC77AF1EEFE
:1058B00010FA35D9F4EEC67AF1EE10FAC0F2AE80E5
:1058C00030464AF82200D9F80C000144D1ED007AA4
:1058D00066EEA77AF4EEC77AF1EE10FA1ED9F4EE6E
:1058E000C67AF1EE10FAC0F28B803146F86940F8C2
:1058F0002210023294427FF6CEAB510808EB8100B1
:105900008900D0ED007A66EEA77AF4EEC77AF1EE60
:1059100010FAA3D86046A8E76046BAE76146E5E713
:105920006046CEE7224649466046BB699847FFF786
:10593000B2BBC7F810B0002298ED0B6A331DDFED43
:10594000726AD7F81CB0786956F8221007EE901AE0
:1059500053F82210B8EEE77A07EE901A5108023297
:10596000F8EEE77A27EE267A0AEB810E94420BEBEB
:10597000810167EEA67A27EE067A67EE867A8EEDCB
:10598000007AC1ED007ADFD88300D7F810B07B61D0
:105990004DE61A46C7F810B098ED0B6A331DDFEDDF
:1059A0005B6AD7F81CB0786936F9221007EE101A36
:1059B00033F9221007EE901AB8EEC77A5108023276
:1059C000F8EEE77A27EE267A0AEB810E94420BEB8B
:1059D000810167EEA67A27EE067A67EE867A8EED6B
:1059E000007AC1ED007ADFD88300D7F810B07B6170
:1059F00034E5F0EE675AFEEEE45A15EE900A34E70D
:105A0000F0EE675AFEEEE45A15EE901A6EE7F0EEED
:105A1000675AFEEEE45A15EE900A3AE7F0EE675A3E
:105A2000FEEEE45A15EE900A4BE767EEA57AFDEE1E
:105A3000E77A17EE900A00B232E567EEA57AFDEE3E
:105A4000E77A17EE900A00B23FE5F0EE675AFEEEF5
:105A5000E05A15EE901A4CE6F0EE675AFEEEE05A68
:105A600015EE900A30E6F0EE675AFEEEE05A15EEBB
:105A7000900AFDE5F0EE675AFEEEE05A15EE900A48
:105A80000AE667EEA57AFDEEE77A17EE901A09B2FC
:105A90004AE567EEA57AFDEEE77A17EE900A00B2C6
:105AA0002CE5F0EE675AFEEEE45A15EE902A1FE45C
:105AB00067EEA57AFDEEE77A17EE902A12B2FFF7AD
:105AC00031BBF0EE675AFEEEE45A15EE902AFFF76E
:105AD000FDBBF0EE675AFEEEE05A15EE902AFFF796
