:020000040800F2
:1000000000000220310A00082D0A0008E5940008CB
:100010002D0A00082D0A00082D0A00080000000023
:100020000000000000000000000000002D0A000891
:100030002D0A0008000000002D0A0008D5940008D1
:100040002D0A00082D0A00082D0A00082D0A0008B4
:100050002D0A00082D0A00082D0A00082D0A0008A4
:100060002D0A00082D0A00082D0A0008057C00084A
:10007000117C00082D0A00081D7C0008297C00085E
:1000800009920008452C01082D0A00082D0A0008D5
:100090002D0A00082D0A00082D0A00082D0A000864
:1000A0002D0A00082D0A00082D0A00082D0A000854
:1000B0002D0A00082D0A00082D0A0008792C0108D5
:1000C0002D0A0008852C01082D0A00082D0A0008B9
:1000D0002D0A0008F98B0008A18C00084D8D00083E
:1000E0002D0A00082D0A0008000000002D0A000853
:1000F0002D0A00082D0A00082D0A00082D0A000804
:100100002D0A00082D0A00082D0A00082D0A0008F3
:10011000F98D0008A58E00082D0A00082D0A000898
:100120002D0A00082D0A00082D0A00082D0A0008D3
:100130002D0A00082D0A00082D0A00082D0A0008C3
:1001400000000000000000000000000000000000AF
:100150002D0A00082D0A00082D0A0008518F0008FA
:10016000912C01082D0A00081D7200082972000850
:100170002D0A0008357200082D0A00082D0A000813
:100180002D0A00082D0A0008FD8F0008A99000081C
:100190002D0A00082D0A00082D0A00082D0A000863
:1001A0002D0A00082D0A00082D0A00082D0A000853
:1001B0004D7900082D0A00082D0A00082D0A0008B4
:1001C0002D0A00082D0A0008417200084D7200082F
:1001D0002D0A0008597200082D0A00082D0A00088F
:1001E0002D0A00082D0A00082D0A00082D0A000813
:1001F0002D0A00082D0A00082D0A00082D0A000803
:100200002D0A00082D0A00082D0A00082D0A0008F2
:100210002D0A00082D0A00082D0A00082D0A0008E2
:100220002D0A00082D0A00082D0A00080000000011
:100230002D0A00082D0A0008000000002D0A000801
:100240002D0A00082D0A00082D0A00082D0A0008B2
:100250002D0A00082D0A00082D0A00082D0A0008A2
:100260002D0A00082D0A00082D0A00082D0A000892
:100270002D0A00082D0A0008559100080000000012
:100280002D0A00082D0A00082D0A000800000000B1
:08029000000000002D0A000827
:1002A00010B5054C237833B9044B13B10448AFF3B0
:1002B00000800123237010BD4004002400000000D2
:1002C0005081010808B5034B1BB103490348AFF344
:1002D000008008BD00000000440400245081010893
:1002E00010F8012B11F8013B012A28BF9A42F7D0E0
:1002F000D01A7047034613F8012B002AFBD1181AB5
:1003000001387047000000000000000000000000FD
:1003100001F0FF01102A2BDB10F0070F08D010F8B6
:10032000013B013A8B422DD010F0070F42B3F6D1BA
:10033000F0B441EA012141EA014122F007047FF0D3
:1003400000070023F0E80256083C85EA010586EA2A
:10035000010685FA47F5A3FA87F586FA47F6A5FA66
:1003600087F68EB9EED1F0BC01F0FF0102F0070272
:1003700032B110F8013B013A83EA010313B1F8D11D
:100380000020704701387047002D06BF35460338FE
:10039000073815F0010F07D1013015F4807F02BF37
:1003A000013015F4C03F0130F0BC0138704700BF88
:1003B00081F0004102E000BF83F0004330B54FEA16
:1003C00041044FEA430594EA050F08BF90EA020F83
:1003D0001FBF54EA000C55EA020C7FEA645C7FEA16
:1003E000655C00F0E2804FEA5454D4EB5555B8BF39
:1003F0006D420CDD2C4480EA020281EA030382EAAA
:10040000000083EA010180EA020281EA0303362D3B
:1004100088BF30BD11F0004F4FEA01314FF4801C0E
:100420004CEA113102D0404261EB410113F0004F20
:100430004FEA03334CEA133302D0524263EB4303D7
:1004400094EA050F00F0A780A4F10104D5F1200E75
:100450000DDB02FA0EFC22FA05F2801841F10001D0
:1004600003FA0EF2801843FA05F359410EE0A5F1A4
:1004700020050EF1200E012A03FA0EFC28BF4CF0D5
:10048000020C43FA05F3C01851EBE37101F000458B
:1004900007D54FF0000EDCF1000C7EEB00006EEB98
:1004A0000101B1F5801F1BD3B1F5001F0CD3490822
:1004B0005FEA30004FEA3C0C04F101044FEA445279
:1004C00012F5800F80F09A80BCF1004F08BF5FEA00
:1004D000500C50F1000041EB045141EA050130BDE0
:1004E0005FEA4C0C404141EB0101013C28BFB1F5F2
:1004F000801FE9D291F0000F04BF01460020B1FA3D
:1005000081F308BF2033A3F10B03B3F120020CDA0F
:100510000C3208DD02F1140CC2F10C0201FA0CF0ED
:1005200021FA02F10CE002F11402D8BFC2F1200C52
:1005300001FA02F120FA0CFCDCBF41EA0C01904008
:10054000E41AA2BF01EB0451294330BD6FEA040451
:100550001F3C1CDA0C340EDC04F11404C4F120023C
:1005600020FA04F001FA02F340EA030021FA04F34E
:1005700045EA030130BDC4F10C04C4F1200220FAA5
:1005800002F001FA04F340EA0300294630BD21FAE3
:1005900004F0294630BD94F0000F83F4801306BFA9
:1005A00081F480110134013D4EE77FEA645C18BF9D
:1005B0007FEA655C29D094EA050F08BF90EA020F34
:1005C00005D054EA000C04BF1946104630BD91EA2C
:1005D000030F1EBF0021002030BD5FEA545C05D12F
:1005E0004000494128BF41F0004130BD14F580046E
:1005F0003CBF01F5801130BD01F0004545F0FE41E2
:1006000041F470014FF0000030BD7FEA645C1ABF16
:10061000194610467FEA655C1CBF0B46024650EA4D
:10062000013406BF52EA033591EA030F41F4002179
:1006300030BD00BF90F0000F04BF0021704730B5FF
:100640004FF4806404F132044FF000054FF00001D4
:1006500050E700BF90F0000F04BF0021704730B595
:100660004FF4806404F1320410F0004548BF40426A
:100670004FF000013EE700BF42004FEAE2014FEABF
:1006800031014FEA02701FBF12F07F4393F07F4F9A
:1006900081F06051704732F07F4208BF704793F09D
:1006A0007F4F04BF41F40021704730B54FF46074B0
:1006B00001F0004521F000411CE700BF50EA0102B3
:1006C00008BF704730B54FF000050AE050EA01025C
:1006D00008BF704730B511F0004502D5404261EBCC
:1006E00041014FF4806404F132045FEA915C3FF40D
:1006F000D8AE4FF003025FEADC0C18BF03325FEAAA
:10070000DC0C18BF033202EBDC02C2F1200300FA5A
:1007100003FC20FA02F001FA03FE40EA0E0021FA7F
:1007200002F11444BDE600BF53B94AB9002908BF1D
:1007300000281CBF4FF0FF314FF0FF3000F074B9BC
:10074000ADF1080C6DE904CE00F006F8DDF804E028
:10075000DDE9022304B070472DE9F047089D044607
:100760008E46002B4DD18A42944669D9B2FA82F264
:1007700052B101FA02F3C2F1200120FA01F10CFAA0
:1007800002FC41EA030E94404FEA1C48210CBEFBD8
:10079000F8F61FFA8CF708FB16E341EA034306FB61
:1007A00007F199420AD91CEB030306F1FF3080F0F0
:1007B0001F81994240F21C81023E63445B1AA4B23D
:1007C000B3FBF8F008FB103344EA034400FB07F7DF
:1007D000A7420AD91CEB040400F1FF3380F00A8120
:1007E000A74240F207816444023840EA0640E41B15
:1007F00000261DB1D4400023C5E900433146BDE8C1
:10080000F0878B4209D9002D00F0EF800026C5E962
:10081000000130463146BDE8F087B3FA83F6002E7A
:100820004AD18B4202D3824200F2F980841A61EBF2
:10083000030301209E46002DE0D0C5E9004EDDE710
:1008400002B9FFDEB2FA82F2002A40F09280A1EBF8
:100850000C014FEA1C471FFA8CFE0126200CB1FB4D
:10086000F7F307FB131140EA01410EFB03F0884246
:1008700008D91CEB010103F1FF3802D2884200F2D3
:10088000CB804346091AA4B2B1FBF7F007FB101165
:1008900044EA01440EFB00FEA64508D91CEB040403
:1008A00000F1FF3102D2A64500F2BB800846A4EB5E
:1008B0000E0440EA03409CE7C6F12007B34022FA49
:1008C00007FC4CEA030C20FA07F401FA06F31C4378
:1008D000F9404FEA1C4900FA06F3B1FBF9F8200C85
:1008E0001FFA8CFE09FB181140EA014108FB0EF0CB
:1008F000884202FA06F20BD91CEB010108F1FF3A1B
:1009000080F08880884240F28580A8F10208614426
:10091000091AA4B2B1FBF9F009FB101144EA014134
:1009200000FB0EFE8E4508D91CEB010100F1FF34DF
:100930006CD28E456AD90238614440EA0840A0FB77
:100940000294A1EB0E01A142C846A64656D353D04D
:100950005DB1B3EB080261EB0E0101FA07F722FA71
:1009600006F3F1401F43C5E9007100263146BDE89A
:10097000F087C2F12003D8400CFA02FC21FA03F3FD
:10098000914001434FEA1C471FFA8CFEB3FBF7F07E
:1009900007FB10360B0C43EA064300FB0EF69E42A3
:1009A00004FA02F408D91CEB030300F1FF382FD23C
:1009B0009E422DD9023863449B1B89B2B3FBF7F6E4
:1009C00007FB163341EA034106FB0EF38B4208D9BD
:1009D0001CEB010106F1FF3816D28B4214D9023EFE
:1009E0006144C91A46EA004638E72E46284605E71C
:1009F0000646E3E61846F8E64B45A9D2B9EB0208ED
:100A000064EB0C0E0138A3E74646EAE7204694E77C
:100A10004046D1E7D0467BE7023B614432E73046AF
:100A200009E76444023842E7704700BFFEE700BFB1
:100A30000B480C4A904203D0121A0B4914F00EFDD9
:100A40000A480B4A904203D0121A002114F014FDF8
:100A500008F0B4FE14F0D6FC04F0F8FEFEE700BF88
:100A60000000002440040024788101084004002490
:100A700034D20024802070474020704710B50023F6
:100A800004464FF07E524FF07C5C1649C0F894202B
:100A9000002223724FF48070C4F88431A4F8E4017A
:100AA00004F58E70C4F88C1022600F496260C4F89F
:100AB0007821C4F87421C4F898C1C4F8A4C1C4E969
:100AC0001B33C4E96B33C4E96433012384F8743005
:100AD000C4F88031C4E95B33C4E9623314F0C8FD63
:100AE000204610BD000020414468010800000000BD
:100AF0002DE9F04F90F8E45185B00C464FF4806238
:100B00006F42009001F11400FFB20190394614F0D9
:100B1000B3FC85F001004FF0360C062107E092F897
:100B200014E0013146EA0E062229167513D0CA08D0
:100B300001F0070E01260CEBC21206FA0EF6224453
:100B4000002DECD092F81490013129EA06082229F0
:100B500082F81480EBD10CF1010CBCF14D0FDCD10B
:100B600004F10806002800F08A8347F0100384F897
:100B70004A33252307E09CF84A1001330A43342BFB
:100B80008CF84A2016D001224FEAD30C03F0070854
:100B9000964604EBCC1C02FA08F20028EBD19CF834
:100BA0004A200EFA08FE013322EA0E0E342B8CF88E
:100BB0004AE0E8D1002800F0658347F0100784F888
:100BC0004D736FF00B0E25274FF0360CBCF17F0FE5
:100BD00015D83F2F13D8FA0807F007084FF0010A7D
:100BE0000CEBC2120AFA08F911462144002800F061
:100BF000068391F814A049EA0A0981F814904FEA93
:100C00004E0212F10E0FC0F2F682022A0CF1010C14
:100C1000AEF10F0E40F3EF82BCF1390FD6D1342F75
:100C2000D4D194F85022002800F0328342F0200200
:100C30006FF00B0C392784F850227F2F14D83F2BEC
:100C400012D8DA0803F007084FF0010E07EBC212C2
:100C50000EFA08FE11462144002800F0D7820A7DD2
:100C60004EEA020E81F814E04FEA4C0212F10E0F28
:100C7000C0F2BD82022A07F10107ACF10F0C40F36C
:100C8000B6823C2FD9D1252BD7D194F850330028E8
:100C900000F0FB8243F01003252284F8503307E074
:100CA00097F8501001320B43342A87F8503015D092
:100CB0000123D70802F0070E9C4604EBC71703FA7E
:100CC0000EF30028ECD197F850300CFA0EFC0132EC
:100CD00023EA0C0C342A87F850C0E9D194F8523238
:100CE000002800F0D88243F0200384F852323423E5
:100CF00007E09CF85270013B3943252B8CF85210C9
:100D000016D001214FEAD30C03F007088E4604EBFE
:100D1000CC1C01FA08F10028EBD19CF852100EFA15
:100D200008FE013B21EA0E0E252B8CF852E0E8D19B
:100D300094F8D532002800F0B18243F0200384F803
:100D4000D53204F2D52704F2D22306E041F0200187
:100D5000013303F8011C9F4209D019780028F5D10E
:100D600021F02001013303F8011C9F42F5D194F8D2
:100D70005532002800F0958243F0200384F8553264
:100D800007E097F85510013A0B43252A87F85530AC
:100D900015D00123D70802F0070E9C4604EBC717B5
:100DA00003FA0EF30028ECD197F855300CFA0EFC3C
:100DB000013A23EA0C0C252A87F855C0E9D194F8AA
:100DC0005733002800F0708243F0100384F8573343
:100DD000252307E09CF8577001333943342B8CF8F6
:100DE000571016D001214FEAD30C03F007088E46A6
:100DF00004EBCC1C01FA08F10028EBD19CF8571049
:100E00000EFA08FE013321EA0E0E342B8CF857E05F
:100E1000E8D194F85A13002800F04C8241F01001F8
:100E20006FF00B0E4FF0430C84F85A13BCF17F0F98
:100E300015D83F2A13D8D10802F007084FF0010A4D
:100E40000CEBC1110AFA08F90F462744002800F0FC
:100E5000E88197F814A049EA0A0987F814904FEA44
:100E60004E0111F10E0FC0F2D88102290CF1010CD4
:100E7000AEF10F0E40F3D181BCF1460FD6D1342A2A
:100E8000D4D194F85A22002800F0118242F02002B6
:100E900084F85A22342207E09CF85A70013A394308
:100EA000252A8CF85A1016D001214FEAD20C02F0F4
:100EB00007088E4604EBCC1C01FA08F10028EBD1A0
:100EC0009CF85A100EFA08FE013A21EA0E0E252A65
:100ED0008CF85AE0E8D194F85C22002800F0ED810B
:100EE00042F0200284F85C2207E097F85C10013B96
:100EF0000A43252B87F85C2015D00122DF0803F078
:100F0000070E944604EBC71702FA0EF20028ECD144
:100F100097F85C200CFA0EFC013B22EA0C0C252B06
:100F200087F85CC0E9D194F86022002800F0C881FD
:100F300042F0200284F8602294F85E2242F02002FF
:100F400084F85E2294F85F2242F0200284F85F2247
:100F500094F8E02242F010026FF0040C4A2784F863
:100F6000E0227F2F14D83F2B12D8DA0803F00708AD
:100F70004FF0010E07EBC2120EFA08FE1146214493
:100F8000002800F05D810A7D4EEA020E81F814E02F
:100F90004FEA4C02911DC0F24F81012A07F101076F
:100FA000ACF1070C40F348814C2FDAD12C2BD8D16F
:100FB00094F85E33002800F0988143F010036FF03E
:100FC000050C2C214C2784F85E337F2F14D83F2941
:100FD00012D8CB0801F007084FF0010E07EBC3133E
:100FE0000EFA08FE1A462244002800F03081137DD4
:100FF0004EEA030E82F814E04FEA4C03DA1DC0F209
:101000001781012B07F1FF37ACF1080C40F3108179
:101010004A2FDAD13429D8D194F86033002800F06F
:101020001D8143F0100384F8603394F85E3343F07D
:10103000100384F85E3394F85F3343F0100384F8B0
:101040005F33009BF0EE006ADFEDAB7AB24693EDC2
:10105000787A4FF0000E2E4677EE277A37EE266A22
:1010600077EEA67AFCEEC66AFCEEE77A16EE90BA48
:1010700017EE909ACB4524D8BEF17F0F5B4694BF04
:101080000025012505E00F7D38430875013399459A
:1010900017D33F2BFAD8002DF8D1D90803F0070059
:1010A00001270EEBC11107FA00F02144002EEAD10E
:1010B00091F81480013328EA000C994581F814C096
:1010C000E7D20EF1010EBEF1810FD3D1B7EEC77A90
:1010D000DFED8A6AF0EE005A9FED876A009B354685
:1010E0004FF0000C9FED824B37EE447BB7EEC77B91
:1010F00076EEC77A83ED787A37EE255A77EEA57AC1
:1011000036EE457AFCEEE77ABCEEC77A17EE909A97
:1011100017EE10BACB4524D8BCF17F0F5B4694BFC5
:101120000025012505E00F7D3843087501339945F9
:1011300017D33F2BFAD8002DF8D1D90803F00700B8
:1011400001270CEBC11107FA00F02144002EEAD16F
:1011500091F81480013328EA000E994581F814E0D3
:10116000E7D20CF1010CBCF1810FD3D156460AF144
:101170000805DDF80480B024002728468DF80F40CC
:101180000134394606F058F9642301220DF10F01AC
:101190003046E4B207F06EF9394628468DF80F70F4
:1011A00006F04AF9012264230DF10F01304607F0E1
:1011B00061F91023394628468DF80F3006F03CF9C6
:1011C000642301220DF10F01304607F053F901218C
:1011D000284606F031F98022414664233046904487
:1011E00007F048F9B82CC7D105B0BDE8F08F0CF175
:1011F000030C013B45E50EF1030E01370CE591F8B8
:1012000014B02BEA090881F81480F8E491F814A0CE
:101210002AEA0E0881F8148026E50EF1030E013249
:101220002AE697F814B02BEA090887F8148016E626
:101230000CF1020C0131EBE60CF1020C0133B3E6C8
:1012400091F814A02AEA0E0881F81480A0E692F81A
:1012500014A02AEA0E0882F81480CDE623F01003C9
:1012600084F8603394F85E3323F0100384F85E331F
:1012700094F85F3323F0100384F85F33E1E607F05E
:10128000EF0374E407F0EF0799E403F0EF0303E5DD
:1012900002F0DF02CCE403F0DF0326E503F0DF0316
:1012A0004DE503F0DF0369E503F0EF038EE502F09F
:1012B000DF02EDE501F0EF01B2E502F0DF0211E639
:1012C00022F0200284F8602294F85E2222F02002AC
:1012D00084F85E2294F85F2222F0200284F85F22D4
:1012E00094F8E02202F0EF0236E603F0EF0366E640
:1012F0009A9999999999B93F00000042000080425B
:101300002DE9F04F87B09DF84850109C2E4601956E
:101310009DF844509EB399422ED89946A24228D8AF
:101320007F29164694BF0023012308E09CF814800F
:101330004EEA080E8CF814E00136B44219D33F2E61
:10134000FAD8002BF8D14FEAD60C06F0070E4FF072
:10135000010801EBCC1C08FA0EFE8444002DE5D1F7
:101360009CF814B001362BEA0E0AB4428CF814A093
:10137000E5D201318945D1D207B0BDE8F08FA3EBAA
:101380000108B8F1000FB8BFC8F100089942C0F0D9
:101390004E817F2B4FF0FF3A94BF002601263F2A53
:1013A000009694BF002701270297A6B99FB9D608D7
:1013B00002F0070C012703EBC6160644002D00F0CF
:1013C000948107FA0CF796F814C047EA0C073775B2
:1013D000002602960096994200F097814646944670
:1013E0008E46BEF17F0F16D8BCF13F0F13D84FEADF
:1013F000DC070CF0070B4FF001090EEBC717074491
:10140000002D00F0398109FA0BF997F814B049EA78
:101410000B0987F81490770018BFD644B84502DD51
:1014200046440CF1FF3C7345DBD16245D9D100261F
:101430000496A4EB0209009FB9F1000FB8BFC9F1EF
:1014400000093F2C94BF00260126A242C9F10008E2
:101450000396C0F02381002F40F05081002E40F011
:101460004D814FF0FF360096E60803EBC6160644A2
:10147000002D00F01E814FF0010C04F007070CFA5C
:1014800007F796F814C047EA0C073775002603964D
:10149000A24200F03D81C44616461F4605927F2FAA
:1014A00015D83F2E13D84FEAD60E06F0070B4FF093
:1014B000010A07EBCE1E8644002D00F0E6800AFAF2
:1014C0000BFA9EF814B04AEA0B0A8EF814A0B8EB97
:1014D0004C0F4FEA4C0E02DAACEB090C013FBEF1A7
:1014E000000F01D0009A1644BB42D8D1B442D6D1E5
:1014F000059AA1EB030EBEF1000FB8BFCEF1000EAE
:101500007F2994BF4FF0000A4FF0010A99428CBF27
:101510004FF001094FF0FF39BAF1000F13D1039ECC
:101520008EB9E60801EBC6160644002D00F0D38004
:101530004FF0010C04F007070CFA07F796F814C0F7
:1015400047EA0C073775049E26BB774626467F2B55
:1015500014D83F2E12D84FEAD60C06F0070B4FF0E6
:10156000010803EBCC1C8444002D73D008FA0BF85F
:101570009CF814B048EA0B088CF814805FEA470C1A
:1015800018BF4B44E64501DD7744013E9942DED168
:10159000B442DCD1A2EB040EBEF1000FB8BFCEF115
:1015A000000EA2428CBF4FF001084FF0FF38CEF181
:1015B000000CBAF1000F0ED1029B63B9D30802F000
:1015C0000707012601EBC3130344002D7CD0BE4066
:1015D0001F7D3E431E75019B002B7FF4CDAE6646FA
:1015E0000B467F2B12D83F2C10D8E70804F0070ACF
:1015F0004FF0010903EBC7170744A5B309FA0AF92D
:1016000097F814A049EA0A0987F81490BCEB460F32
:101610004FEA460702DAA6EB0E06013B07B1444447
:101620009942DED1A242DCD107B0BDE8F08F3F2A5B
:101630004FF0010A94BF002601267F2B029694BF2B
:10164000002701270097002E7FF4C8AE002F3FF43B
:10165000AEAEC3E608FA0BFB9CF8148028EA0B0830
:101660008CF814808AE709FA0AFA97F8149029EAA4
:101670000A0987F81490C9E709FA0BFB97F8149048
:1016800029EA0B0987F81490C5E60AFA0BFB9EF8C5
:1016900014A02AEA0B0A8EF814A018E797BB8EBB99
:1016A00001260096E60803EBC6160644002D7FF4DB
:1016B000E2AE012704F0070C039507FA0CFC377D16
:1016C00027EA0C073775E3E606FA07F71E7D26EAD8
:1016D00007061E757FE7012704F0070C07FA0CFCCC
:1016E000377D27EA0C0737752DE707FA0CFC377DA5
:1016F000029527EA0C07009537756CE64FF0FF3628
:101700000096C5E601260096C5E60126049690E6F9
:1017100001260196EDE600BF2DE9F04F89B008AC37
:101720009DF84870019104E90C000B78002B00F043
:10173000AB801A469DF818809DF81930064645463C
:1017400090460393079B0593A8F12004E3B25E2B18
:1017500000F29E8033685E4ADB68934240F09B80D3
:101760008020B3882B44834200F392803368594A27
:101770009B68934240F092804020F188039A029146
:101780008B18834200F38480002A00F0918002FBD2
:1017900004F46FF00049059BA1441444B6F804B06A
:1017A00003EB4909023BCDF8108003EB44030C46E0
:1017B0009A4639F802CFA5B304F007034FF0010EA3
:1017C000E20859460EFA03FE0BF114034FFA8EFE9F
:1017D00003EBC21200236FEA0E0832440DE07F29AA
:1017E00006D83F2C04D8107897B14EEA000010704C
:1017F000013301320131AB4213D00CFA03F0000483
:10180000EDD47F29F4D83F2CF2D81078002FECD0FB
:10181000013308EA000001320131AB4202F8010C49
:10182000EBD1D14504F10104C3D1DDF81080326859
:101830000BEB05042649D368A4B28B4234D1802037
:10184000844204D3D36822498B423AD17F249368DF
:10185000204AB480934224D14020029B834206D385
:1018600033681C4A9B68934225D13F230293029B15
:10187000F380019B1878404507D113F8018F01933D
:10188000B8F1000F7FF460AF002009B0BDE8F08F21
:101890004FF00008EDE73046984762E7304698473A
:1018A0006BE730469847D8E7304698473268C7E735
:1018B000B6F804B0BBE730469847013883B20293CC
:1018C000D5E7304698470138326884B2BFE700BF99
:1018D000750A0008790A00082DE9F04F0C46074602
:1018E00089B04FF48062002104F114001D4613F00A
:1018F000C3FD97F851307F2BD7F8AC3100F07A84D4
:1019000097F861207F2A00F01182002B00F01782E7
:10191000012B00F0A682022B00F03583032B00F090
:10192000DB83BB4D0126BB4B20460096BA49636062
:1019300095E80C00FFF7F0FEB84B00962046B8493A
:10194000636095E80C00FFF7E7FEB64B0096204673
:10195000B549636095E80C00FFF7DEFEB34B0096D7
:101960002046B349636095E80C00FFF7D5FED7ED3C
:10197000697ABCEEE77A17EE101A81EAE179A9EBF1
:10198000E179002900F09F817F29A9F1220C04F15F
:101990000805B04640F29D813B200026C308012285
:1019A00000F0070A7F2E06EBC3130CFA02FE02FAC0
:1019B0000AF2234406D83F2804D893F814A042EA38
:1019C0000A021A751EF1210FC0F28B81F1454644BF
:1019D000ACF1220C00F38581B142DFD11928DDD1B1
:1019E000D7ED726A9FED937A97ED6E6A37EE667A5D
:1019F00077EE867ABCEEC77AFCEEE76A17EE102A1D
:101A000016EE906AA2F11903A6EB010E83EAE370C9
:101A1000BEF1000FA0EBE370B8BFCEF1000E03469D
:101A20000290B14234BF01204FF0FF30192A0390D9
:101A300000F26181AEEB030C7F2E4FF0FF33049375
:101A40000DD8D30802F00708012006EBC31300FAF3
:101A500008F0234493F8148040EA08001875B14256
:101A600008BF192A0CBF01230023059300F0ED8362
:101A7000029B1920C3F1000A4FF0010BC30800F0CC
:101A800007087F2901EBC3130CFA0BF90BFA08F8CE
:101A900008D83F28234405D893F814B048EA0B0827
:101AA00083F81480BAEB4C0F04DA029BACEB030C06
:101AB000039B1944CE4502DD049BF44418448E4236
:101AC000DAD18242D8D19FED5C7A77EE877ABCEE8C
:101AD000E77A17EE101AA1EB0608B8F1000FB8BFAD
:101AE000C8F100088E42C0F017817F294FF0FF39FE
:101AF0000FD8059B6BB9D30802F0070C012001EB4E
:101B0000C31300FA0CF0234493F814C040EA0C000D
:101B100018758E4222D0C64694464FEADC030CF07C
:101B2000070A01207F2E06EBC31300FA0AF008D83B
:101B3000BCF13F0F234404D893F814A040EA0A00F4
:101B400018755FEA4E0318BF4E44984502DDC6443F
:101B50000CF1FF3CB142E0D16245DED197ED767ADF
:101B6000C2F13B0877EE877AB8F1000FB8BFC8F131
:101B70000008FCEEE77A17EE90CAACEB010EBEF15E
:101B8000000FB8BFCEF1000E614534BF4FF0010A1F
:101B90004FF0FF3A3A2AAEEB080040F2A5804FF032
:101BA000FF33BCF17F0F029306D80CF5607323441A
:101BB0001E7D46F008061E75614501D13B2A3FD0C7
:101BC000C8F100094FF0010BD30802F007067F2986
:101BD00001EBC31300FA0BF70BFA06F607D83F2AFE
:101BE000234404D893F814B046EA0B061E75B9EBEB
:101BF000400F02DAA0EB08005144BE4502DD029B13
:101C000070441A448C45DDD13B2ADBD118E000BF7B
:101C1000680200242000040050680108300004001D
:101C2000546801084000040058680108500004008E
:101C30005C68010800006C42000000420000C842DD
:101C400005F1080705F10C0605F20C49B0244FF028
:101C5000000838468DF81F400134414605F0ECFB82
:101C6000642301220DF11F012846E4B206F002FCB4
:101C7000414638468DF81F8005F0DEFB01226423C3
:101C80000DF11F01284606F0F5FB102341463846AA
:101C90008DF81F3005F0D0FB642301220DF11F01E8
:101CA000284606F0E7FB0121384605F0C5FB8022F7
:101CB000314664231644284606F0DCFB4E45C6D167
:101CC00009B0BDE8F08FA9F1220C04F108054FF02E
:101CD000FF3801F5C07323441A7D42F002021A75E1
:101CE0005AE6CC44013877E60123BCF17F0F02931A
:101CF0007FF65BAF64E7029B3F2AAEEB030C94BF19
:101D0000002301237F2E059300F28782002B40F0F1
:101D100084820123049394E67F294FF001093FF662
:101D2000FAAE059B002B3FF4E6AEF4E60133032B3D
:101D3000C7F8AC317FF7E9AD0023C7F8AC3197EDB8
:101D4000667A0121D7ED127A28461FED440AB8EED3
:101D5000E76BB7EEC77A9FEDD85BA6EE057BB7EED3
:101D6000C77B87EE000A87ED667A11F015FBD7ED89
:101D7000127AD7ED696A9FEDD27AF8EEE77A77EEBC
:101D8000A67AF4EEC77AF1EE10FA80F23D82F5EE13
:101D9000C07A0023F1EE10FA8CBFC7ED697AC7F85C
:101DA000A431D7ED667A9FEDC77AF4EEC77AF1EEEB
:101DB00010FAC0F23E8287ED667A94F83C2004F176
:101DC0002F0304F13B0142F0010284F83C2013F898
:101DD000012F42F0010299421A70F8D194F8BC30F8
:101DE000002243F0200384F8BC30D10802F0070041
:101DF000012304EBC1111A44834091F83C000D2AE1
:101E000043EA000381F83C30EFD194F8B03004F19C
:101E1000B10043F0200384F8B03004F1BD0313F89F
:101E2000011D41F0200198421970F8D194F830302A
:101E300043F0010384F83030D10802F00700012399
:101E4000013A04EBC11103FA00F391F8300043EAC0
:101E5000000381F83030EFD1D7F8AC31012B7FF49B
:101E60005AAD97ED6D7A0221D7ED127A28469FED93
:101E7000950AB8EEE76BB7EEC77A9FED8F5BA6EEDB
:101E8000057BB7EEC77B87EE000A87ED6D7A11F010
:101E900083FAD7ED127AD7ED6E6A9FED897AF8EE64
:101EA000E77A77EEA67AF4EEC77AF1EE10FA80F2CE
:101EB000AE81F5EEC07A0023F1EE10FA8CBFC7EDCB
:101EC0006E7AC7F8B831D7ED6D7A9FED7E7AF4EE71
:101ED000C77AF1EE10FAC0F2C48187ED6D7A94F8FA
:101EE0004C2004F13F0304F14B0142F0010284F85D
:101EF0004C2013F8012F42F0010299421A70F8D1D8
:101F000094F8CC30002243F0200384F8CC30D10880
:101F100002F00700012304EBC1111A44834091F839
:101F20004C000D2A43EA000381F84C30EFD194F8BD
:101F3000C03004F1C10043F0200384F8C03004F144
:101F4000CD0313F8011D41F0200198421970F8D11A
:101F500094F8403043F0010384F84030D10802F097
:101F600007000123013A04EBC11103FA00F391F8D1
:101F7000400043EA000381F84030EFD1D7F8AC319C
:101F8000022B7FF4CBAC97ED707AD7ED126AB7EEE7
:101F9000C77ADFED4C5AB8EEE63B9FED474BA3EE18
:101FA000047BB7EEC77B87EE256A87ED707AB5EEC6
:101FB000C06AF1EE10FA40F24581F7EE007AB4EE15
:101FC000676AF1EE10FA37FE866AF8EEE67A85ED7A
:101FD000006AD7ED726A9FED3A7A77EEA67AF4EE50
:101FE000C77AF1EE10FA80F20C81F5EEC07A002388
:101FF000F1EE10FA8CBFC7ED727AC7F8C831D7ED91
:10200000707A9FED307AF4EEC77AF1EE10FAC0F2F2
:10201000078187ED707A94F85C2004F14F0304F196
:102020005B0142F0010284F85C2013F8012F42F0BA
:10203000010299421A70F8D194F8DC20002342F092
:10204000200284F8DC20D90803F00700012204EB09
:10205000C1111344824091F85C000D2B42EA00024A
:1020600081F85C20EFD194F8D01004F1DD0204F186
:10207000D10041F0200184F8D01012F8011D41F088
:10208000200190421170F8D194F8502042F00102E2
:1020900084F85020D90803F007000122013B04EB2B
:1020A000C11102FA00F291F8500042EA000281F8F0
:1020B0005020EFD135E400BF6666666666660A406A
:1020C000000000420000C84297F8613003227F2BD5
:1020D000C7F8AC213FF430AE97ED747A0421D7ED08
:1020E000127A28461FED090AB8EEE76BB7EEC77AF9
:1020F0009FED615BA6EE057BB7EEC77B87EE000A1E
:1021000087ED747A11F048F9D7ED127AD7ED766A37
:102110009FED5B7AF8EEE77A77EEA67AF4EEC77A6F
:10212000F1EE10FA76DAF5EEC07A0023F1EE10FA4D
:102130008CBFC7ED767AC7F8D831D7ED747A9FEDAA
:10214000517AF4EEC77AF1EE10FAC0F2818087ED91
:10215000747A94F86C2004F15F0304F16B0142F08F
:10216000010284F86C2013F8012F42F00102994219
:102170001A70F8D194F8EC20002342F0200284F881
:10218000EC20D90803F00700012204EBC11113442D
:10219000824091F86C000D2B42EA000281F86C201D
:1021A000EFD194F8E01004F1ED0204F1E10041F008
:1021B000200184F8E01012F8011D41F02001904246
:1021C0001170F8D194F8602042F0010284F8602088
:1021D000D90803F007000122013B04EBC11102FA08
:1021E00000F291F8600042EA000281F86020EFD12D
:1021F000FFF797BB013B3FF567AFC7F8AC31FFF77F
:102200007FBB87ED727AFAE687ED697AC9E587EDDB
:102210006E7A58E687ED767A8FE70123049327E4F8
:10222000F5EEC07A0023F1EE10FA98BFC7F8C0317E
:10223000F1E6F5EEC07A0023F1EE10FA98BFC7F888
:102240009831BAE59FED106ABFE6002305933AE4A2
:10225000F5EEC07A0023F1EE10FA98BFC7F8D0313E
:1022600077E7F5EEC07A0023F1EE10FA98BFC7F8D1
:10227000B43134E6AFF300806666666666660A408F
:10228000000000420000C8420AD723BC2DE9F043F9
:1022900090F8E58101F114060C46054688F001012D
:1022A000174630464FF4806249422DED028BC9B289
:1022B00087B013F0E1F895F851307F2B00F0BC8225
:1022C00095F861307F2B00F0C0824146B2EE001AD3
:1022D000F2EE0A0A9FEDC30AC34B204695F874201C
:1022E00002F0C6F995F87480B8F1000F00F026816D
:1022F00095F8E531F0EE081AD5ED1E2AF1EE0C0A3C
:1023000002EE103A9FEDC68A20469FEDB81AC2EE43
:10231000882A9FEDB70ADFF8FC824FF00109B8EE7A
:10232000422A01F075FA95F8E531F0EE081AD5ED7C
:102330001F2A02EE103AF0EE480A20469FEDAB1A33
:10234000B8EE422A9FEDAA0A01F062FAB2EE001A34
:10235000B2EE0A0ADFEDA70A2046A34B95F89820B3
:1023600095F8E51102F034FC95F8E53120462A2273
:1023700001932321D5F89C300093372302F042F8D3
:102380009D4B05F1A40120466360CDF8009098E8CC
:102390000C00FFF7C1F9994BCDF8009005F1D4017D
:1023A0006360204698E80C00FFF7B6F9944B20468E
:1023B00095F8E5216360934B009293490CCBFFF7AE
:1023C000ABF995F8E501A44600237F2B0DD89CF8C6
:1023D0009421002800F09B8042F020028CF8942188
:1023E00003330CF1030C7F2BF1D903330CF1030CF5
:1023F000B3F5C07FE9D100233F2B14D801214FEA68
:10240000D30C03F0070E884604EBCC1C01FA0EF146
:10241000002800F081809CF8502011438CF8501067
:1024200002333F2BEAD90233802BE5D11E233F2B09
:1024300013D801224FEAD30C03F0070E904604EBA9
:10244000CC1C02FA0EF200286FD09CF831100A431F
:102450008CF8312002333F2BEBD90233802BE6D1AD
:102460006B7C7F2B00F09E81EB6E002B00F0DA80FE
:10247000012B00F07282022B00F02582032B40F02A
:10248000998195F87430B7EE007A002B00F0BB828A
:10249000D5ED5D7AF4EEC77AF1EE10FAC0F2018361
:1024A000F0EE477AF7EE006A95ED1F7AB4EEE67A21
:1024B000F1EE10FAC0F2EC82B0EE667AD5ED126A57
:1024C00005F1D400DFED555AF8EEE66A9FED4F6A4C
:1024D0004F49E6EEA57AA6EEA57A67EE866AC5EDC7
:1024E0005D7A85ED1F7AFDEEE67A17EE902A13F0FD
:1024F000BFF895F8E53100223F212046CDE90132B1
:1025000000917F231D223C21FEF7FAFE52E122F0CA
:1025100020028CF8942163E79CF8501008FA0EF81A
:1025200021EA08088CF850807AE79CF8312008FAF4
:102530000EF822EA08088CF831808BE7D5ED202AC6
:1025400020469FED378AF0EE081AF1EE0C0A9FED57
:10255000322AC2EE882A9FED251A9FED250A01F046
:1025600057F9D5ED212A9FED2C2A20469FED1F1A01
:10257000F0EE081A9FED1E0AF0EE480ADFF894907C
:1025800001F046F9B2EE001AB2EE0A0ADFED190ABE
:1025900095F8992041462046134B02F019FBCDF8DF
:1025A0000480D5F8A03020462A2223210093372327
:1025B00001F028FF104BCDF8008005F1BC016360ED
:1025C000204699E80C00FFF7A7F80C4BCDF80080E7
:1025D00005F1EC016360204699E80C00FFF79CF8D8
:1025E000E4E600BF00003842007A010800004842DB
:1025F00000008C4200004C424600110046003200B0
:102600000400080070020024606801080000C8424D
:102610007068010868020024000000000000003D0E
:102620000000204295F87430002B40F01781D5F857
:102630006831202B00F3A281002B80F214825FED21
:102640000A7A95ED207A5FED0A6AB4EEE67AF1EE49
:1026500010FA80F29081B5EEC07AF1EE10FA01D551
:102660001FED137AD5ED126A05F1BC001FED156A56
:10267000F8EEE66A5FED165AC34926EE866A77EEF3
:10268000A67AA6EE257AFDEEE77A17EE902AC5ED3A
:102690005A7A85ED207A12F0EBFF95F8E50194F86F
:1026A0009320002800F00C8142F0010204F14F0356
:1026B00004F1920184F8932005E042F0010203F84E
:1026C000012F994208D05A780028F6D102F0FE0274
:1026D00003F8012F9942F6D194F81322002800F054
:1026E000398142F02002002384F8132205E00A7D9C
:1026F000013315431D2B0D7512D0190103F0070787
:10270000012541F07F01BD4021440A460028EED159
:10271000097D013321EA050C1D2B82F814C0ECD190
:1027200094F8D021002800F0128142F0200284F8B1
:10273000D02104F5E87504F2132205E041F02001F0
:10274000013A5170954208D011780028F6D121F055
:102750002001013A51709542F6D194F8502000289A
:1027600000F0F28042F0010284F8502006E095F873
:102770005020114385F85010013B1BD00121DD088A
:1027800003F0070C0F4604EBC51501FA0CF1002805
:10279000EDD195F8501007FA0CF721EA070785F8F4
:1027A0005070E9E795F8743083F0010385F87430D0
:1027B00085F8E53104F10807B02510344FF0000822
:1027C00020468DF817500135414604F035FE64234C
:1027D00001220DF117013846EDB205F04BFE4146DE
:1027E00020468DF8178004F027FE012264230DF1A6
:1027F0001701384605F03EFE1023414620468DF86D
:10280000173004F019FE642301220DF11701384638
:1028100005F030FE0121204604F00EFE80223146F4
:1028200064233846164405F025FEB82DC6D107B0FE
:10283000BDEC028BBDE8F083EB6E013B7CD4EB6614
:1028400095F861307F2B7FF440ADEB6E0133032BA5
:10285000EB667FF73AAD0023EB6636E5D5F86421E9
:10286000D5ED1E7A9FED497A22EAE272F4EEC77A3C
:10287000202AA8BF2022F1EE10FA80F28280F5EE25
:10288000C07AF1EE10FA01D5DFED417AD5ED126A8A
:1028900005F1A4009FED3D7AFAEEED6AAB6C3A4982
:1028A0001A44E6EE877AC5F86421C5ED1E7A12F067
:1028B000DFFE95F8E50194F8932000287FF4F4AE4C
:1028C00002F0FE02F2E695F874309BB1D5F8903133
:1028D000AA6C1344032B40F382800323C5F8903184
:1028E00002233B70D5F89021C5F89C203B7095F8E9
:1028F00074309BB9D5F89431AA6C83F30203134466
:10290000032B79DD0323C5F89431022387F828309F
:10291000D5F89421C5F8A02087F8283095F8E5313E
:1029200000223F212046CDE901321D2200913C23A7
:102930001146FEF7E5FC3DE70323EB6695F86130B1
:102940007F2B7FF4C2AC86E702F0FE020CE702F0B8
:10295000DF02ECE602F0DF02C5E695F87420FAB17A
:10296000AA6C012A30D0013223D185F89830002397
:10297000C5F86C311DE0B0EE667A73E6DFED057ADE
:102980005FE6F0EE477A81E76468010800002042C4
:1029900000000000000000420000003D0000C842AE
:1029A000A96C012916D0013103D1C5F8702185F831
:1029B00099303F23002100931D23CDE901011A46E0
:1029C0002046FEF79DFCF5E60023C5F86C2185F84E
:1029D0009830EEE7C5F8701185F89920E9E7002BEB
:1029E00068DA0023C5F8903100233B70D5F89021B8
:1029F000C5F89C203B707AE7002B6CDA0023C5F801
:102A00009431002382E7D5ED5E7AF4EEC77AF1EED9
:102A100010FA35DDF0EE477AF7EE006A95ED217A8F
:102A2000B4EEE67AF1EE10FA22DBB0EE667AD5ED7E
:102A3000126A05F1EC005FED285AF8EEE66A1FED28
:102A4000296A2A49E6EEA57AA6EEA57A67EE866A95
:102A5000C5ED5E7A85ED217AFDEEE67A17EE902AD5
:102A600012F006FE45E507EE903AF8EEE77AE8E563
:102A7000B5EEC07AF1EE10FAD9D59FED1D7AD6E702
:102A8000F5EEC07AF1EE10FAC6D5DFED197AC3E79C
:102A9000B5EEC07AF1EE10FA7FF510AD9FED147A25
:102AA0000CE5F5EEC07AF1EE10FA7FF5FBACDFED48
:102AB000107AF7E4C5F8903196D0012B3FF411AFAE
:102AC000022B7FF40DAF04233B70D5F89021C5F89D
:102AD0009C203B700BE7C5F8943192D0012B3FF45A
:102AE00015AF022B7FF411AF04230FE770680108C4
:102AF00000000000000000002DE9F04F0C468BB0F4
:102B00004FF480620021064604F1140012F0B4FC78
:102B100000237F2B04F5057108D8CA5C42F001023E
:102B2000CA54033304F505717F2BF6D90333B3F58B
:102B3000C07FEED196F851307F2B336F00F070815B
:102B400096F861207F2A4ED0002B52D0012B00F046
:102B5000928106F58E7706F582752946BB4BBC4DF2
:102B60004FF0010963602046CDF8009095E80C0015
:102B7000FEF7D2FDB74BCDF8009039466360204692
:102B800095E80C00FEF7C8FD96ED227AD6ED237A83
:102B9000BCEEC77AFCEEE77A17EE103A8DED057AB7
:102BA00017EE908AC3F1200AA8F10A07BAF1000FC4
:102BB000B8BFCAF1000A002FB8BF7F42B8F10A0FB0
:102BC00040F286801F2BA7EB0A0104F1080540F2B2
:102BD0002B81B8F17F0FCDF81C9040F284804FF02C
:102BE000FF3306938FE00133012B3367ACDD002305
:102BF0003367D6F89030642B66DC13F1640F80F2F3
:102C0000DD81DFED957A6FF06303B26C06F58275B6
:102C100092491A442846C6ED227AC6F8902012F04E
:102C200027FD94F8562004F1130304F1550142F0F6
:102C3000010284F8562013F8012F42F00102994254
:102C40001A70F8D194F8D620002342F0200284F8BC
:102C5000D620D90803F00700012204EBC111134468
:102C6000824091F856000D2B42EA000281F856206E
:102C7000EFD194F8942004F1D70104F1950742F0C4
:102C8000200284F8942011F8010D40F020008F42BA
:102C90000870F8D1217D012041F00101217502E089
:102CA00004EBC012127D03F00707012104EBC010F2
:102CB000013B01FA07F142EA010202754FEAD30033
:102CC000EED106F58E7748E7F3EE017A64239CE7B0
:102CD000059B1F2B40F2AF804FF0FF33A7EB0A019B
:102CE00004F1080507934FF0FF33069308F50073CE
:102CF00023441A7D42F001021A75059B202B02D154
:102D0000B8F10A0F2AD0CAF10009059A4FF00A0C4F
:102D10004FF0010BD30802F00700BCF17F0F0CEB62
:102D2000C31301FA0BFE0BFA00F007D83F2A234425
:102D300004D893F814B040EA0B001875B9EB410FB2
:102D400003DA079BA1EB0A019C44774502DD069B51
:102D500039441A44E045DBD1202AD9D123684FF009
:102D6000010900274FF4B4782046059A00970A21FC
:102D7000CDE90189D3F820A00323D047D6ED237AEB
:102D800000972046FCEEE77A0323202205F108078E
:102D9000CDE90189266817EE901A05F20C49346ACC
:102DA00005F10C06A047B0244FF0000838468DF816
:102DB00027400134414604F03FFB642301220DF11A
:102DC00027012846E4B205F055FB414638468DF808
:102DD000278004F031FB012264230DF127012846EE
:102DE00005F048FB1023414638468DF8273004F0A3
:102DF00023FB642301220DF12701284605F03AFB4D
:102E00000121384604F018FB802231466423164421
:102E1000284605F02FFB4E45C6D10BB0BDE8F08F1C
:102E2000013B21D433678BE6B8F17F0FCDE90699DA
:102E30003FF669AF5AE74FF0FF33A7EB0A0104F101
:102E40000805CDF81890079350E700BF060004006E
:102E5000680200244900040000003C427C6801082C
:102E6000000000000000C84296F8613001227F2B6C
:102E700032673FF4BCAED6ED257A1FED067AF4EE4C
:102E8000C77AF1EE10FA80F29680F5EEC07AF1EE94
:102E900010FA01D85FED0E7A96ED227A5FED0F6A97
:102EA000B4EEE67AF1EE10FA7CDBC6ED226AD6EDDE
:102EB000236A1FED147AF4EEC76AF1EE10FA6EDAA7
:102EC000B2EE047AF4EE476AF1EE10FA98BFF0EE33
:102ED000476A96ED127A06F58E774549B8EEC77ABD
:102EE000384677EE277A37EE267AFDEEE76AC6EDAA
:102EF000257A86ED237A16EE902A12F0B9FB94F823
:102F0000922004F1560304F1910142F0010284F889
:102F1000922013F8012F42F0010299421A70F8D161
:102F200094F81221002342F0200284F81221D908DB
:102F300003F00700012204EBC1111344824091F811
:102F400092000D2B42EA000281F89220EFD194F812
:102F5000D72004F1D80042F0200284F8D72004F2F0
:102F6000131212F8011D41F0200190421170F8D1A6
:102F700094F8572042F0010284F85720D90803F052
:102F800007000122013B04EBC11102FA00F291F8A3
:102F9000570042EA000281F85720EFD1DBE5F0EE5E
:102FA000476A96E7B5EEC07A0023F1EE10FA98BFB3
:102FB000C6F888307BE7F0EE477A6DE703F1D4027C
:102FC00006EE902A9FED065B9FED077BB8EEE66B61
:102FD000A6EE457BFDEEC77BF8EEE77A15E600BF6F
:102FE000333333333333C33F00000000000050401D
:102FF00088680108704700BF49424FF4806214306E
:10300000C9B212F039BA00BF10B5044640F21441FB
:1030100010F05CFD204610BD2DE9F041B02482B0D7
:1030200000F1080600F1100500F1140800272846F9
:103030008DF807400134394604F0FEF9642301227B
:103040000DF107013046E4B205F014FA394628467E
:103050008DF8077004F0F0F9012264230DF10701E7
:10306000304605F007FA1023394628468DF8073018
:1030700004F0E2F9642301220DF10701304605F066
:10308000F9F90121284604F0D7F98022414664234A
:103090003046904405F0EEF9B82CC7D102B0BDE837
:1030A000F08100BF7F291ED83F2A1CD86BB1D308FE
:1030B0004FF0010C02F0070201EBC3130CFA02F20D
:1030C000C1180B7D1A430A757047D3084FF0010CE5
:1030D00002F0070201EBC3130CFA02FCC1180A7DCF
:1030E00022EA0C020A7570472DE9F04F83B05C1A92
:1030F0000C9E002C9DF83490A6EB0208B8BF6442E9
:10310000B8F1000FB8BFC8F100088B428CBF4FF078
:10311000010A4FF0FF3A9642A4EB080C51D84FF049
:10312000FF357F2B019512D83F2E10D8F50806F0F9
:10313000070E012703EBC5150544B9F1000F47D071
:1031400007FA0EF795F814E047EA0E072F75964236
:1031500001D18B4229D0C8F100077F2914D83F2A1A
:1031600012D8D50802F0070B4FF0010E01EBC51580
:103170000544B9F1000F1BD00EFA0BFE95F814B000
:103180004EEA0B0E85F814E0B7EB4C0F4FEA4C05F6
:1031900002DAACEB080C5144AC4202DD019DA444C0
:1031A0002A449942D9D19642D7D103B0BDE8F08FD5
:1031B0000EFA0BFB95F814E02EEA0B0E85F814E0DE
:1031C000E2E701257F2B0195C5D83F2EAED9C2E796
:1031D00007FA0EFE2F7D964227EA0E072F75B8D00C
:1031E000B9E700BF000000002DE9F04F2DED068B80
:1031F00083B01F4680460D469DF850301646019319
:10320000139B002BC0F22182129A134406EE103A4F
:10321000DDED127AB8EEC66B9FEDCD4BB8EEE77BD5
:103220009FEDCD5B27EE047B26EE046B87EE050B4E
:1032300086EE05ABF7EEC08BB0EE680A10F0E4FC4A
:1032400007EE907AB7EECAABF8EE679AB0EE408A16
:10325000B0EE680A11F050F860EE698AB0EE4A0AE2
:1032600010F0D2FCB0EE409AB0EE4A0A11F044F8E9
:1032700020EE690A29EE888A29EE899A70EE687A2A
:10328000F0EE006A39EE487A67EEA77AE7EE077A41
:10329000F4EEE67AF1EE10FA06D5139BB42B40F368
:1032A00096804FF0010901E04FF0000901247842B7
:1032B0004FF0000C0095E31B214627462246A34011
:1032C000B9F1000F6AD1424206EE90CACCF100017A
:1032D00007EE102AB8EEE66A07EE901A06EE900A9C
:1032E000B8EEC77A139A66EE084AF8EEE77AB42A7F
:1032F00027EE284AF8EEE66A67EE885A74EEC43A7A
:1033000026EEA85A26EE096A66EE806A67EE897A8A
:1033100027EE007AF5EEC03A40F3F280F1EE10FAB3
:1033200000F17F8176EE473A74EEC54AF5EEC03A79
:10333000F1EE10FAF5EEC04ACCBF01220022F1EE08
:1033400010FA00F1778136EE666A35EEC55AB5EEB1
:10335000C06AF1EE10FAB5EEC05ACCBF01210021CF
:10336000F1EE10FA00F16F8177EEE66AF5EEC06AD1
:10337000F1EE10FACCBF0127002775EEC45AF5EE26
:10338000C05AF1EE10FA00F1478177EEC77AF5EEF8
:10339000C07AF1EE10FACCBF01240024002A40F0DC
:1033A0008A80002964D1BFB9C4BB9C4558DB0CF1AD
:1033B000010C03EB4C0E1CEB000F0EF1010E00F0A4
:1033C000C08098424FDB734600287FF779AF03B087
:1033D000BDEC068BBDE8F08F009DA6EB0C0E00EB5C
:1033E000050ABAF17F0FDFD8BEF13F0FDCD84FEAF4
:1033F000DE0B019D0AEBCB1A002D00F0B1800EF020
:10340000070BC2444FF0010E0EFA0BFE9AF814B0EF
:103410004EEA0B0E8AF814E0002CC6D0009DA6EBF5
:103420000C0EA5EB000ABAF17F0FBED8BEF13F0F1C
:10343000BBD84FEADE0B019D0AEBCB1A002D00F042
:10344000AE800EF0070BC2444FF0010E9C450EFA01
:103450000BFE9AF814B04EEA0B0E8AF814E0A6DAC6
:1034600098429E46AFDA01300EEB40030133ABE7E2
:10347000009D0CEB060E00EB050ABAF17F0F92D807
:10348000BEF13F0F8FD84FEADE0B019D0AEBCB1A3E
:10349000002D73D00EF0070BC2444FF0010E0EFA50
:1034A0000BFE9AF814B04EEA0B0E8AF814E0002FC7
:1034B0003FF47AAF90E7009D0CEB060EA5EB000AF7
:1034C000BAF17F0F3FF66DAFBEF13F0F3FF669AF28
:1034D0004FEADE0B019D0AEBCB1A002D6DD00EF0EA
:1034E000070BC2444FF0010E0EFA0BFE9AF814B00F
:1034F0004EEA0B0E8AF814E000293FF454AFB7E708
:10350000F1EE10FA7ED44A4674EEC54AF5EEC04A92
:10351000F1EE10FA6CD4002135EEC55AB5EEC05A62
:10352000F1EE10FA5AD4002775EEC45AF5EEC05ADF
:10353000F1EE10FA3FF529AF0024002A3FF431AF35
:10354000B9E798428FDB00233BE700BFAFF3008071
:103550007A008BFCFA2109400000000000806640E0
:10356000C2444FF0010B0EF0070E0BFA0EFE9AF854
:1035700014B02BEA0E0E8AF814E015E7C2444FF09F
:10358000010B0EF0070E0BFA0EFE9AF814B02BEAA0
:103590000E0E8AF814E0002F3FF406AF1CE7C24479
:1035A0004FF0010B0EF0070E0BFA0EFE9AF814B056
:1035B0002BEA0E0E8AF814E0F7E6C2444FF0010B36
:1035C0000EF0070E0BFA0EFE9AF814B02BEA0E0E50
:1035D0008AF814E000293FF4E6AE49E777EEE66AA0
:1035E000F5EEC06AF1EE10FACCBF012700279BE789
:1035F00036EE666AB5EEC06AF1EE10FACCBF012174
:10360000002189E776EE473AF5EEC03AF1EE10FA7E
:10361000CCBF0122002277E70124002A3FF4C1AE8B
:1036200049E774EEC54A0122F5EEC04AF1EE10FA00
:103630007FF589AE35EEC55A0121B5EEC05AF1EEDF
:1036400010FA7FF591AE012797E6DDE912231344C6
:1036500006EE102A1293139B5B421393D8E500BF2A
:103660002DE9F04F85B0A1F1200504AC9DF838702C
:10367000009104E90C00EBB25E2B00F29580036828
:1036800080465D4ADB689DF8084093429DF80960DA
:1036900040F094808020B8F804302344834200F343
:1036A0008380D8F80030554A9B68934240F0888068
:1036B0004020B8F8062093190192834274DC002E52
:1036C00000F0898006FB05F56FF00040039B9646ED
:1036D00028442E44B8F804A003EB4000023B03EB5F
:1036E000460B30F8026FBCB30EF007034FF0010C2D
:1036F0004FEADE0251460CFA03FC0AF114034FFABA
:103700008CFC03EBC21200236FEA0C0942440EE06A
:103710007F2907D8BEF13F0F04D815789FB14CEA36
:10372000050515700133013201319C4214D006FAAF
:1037300003F52D04ECD47F29F4D8BEF13F0FF1D866
:103740001578002FEBD0013309EA0505013201316C
:103750009C4202F8015CEAD158450EF1010EC0D13D
:10376000D8F8003054442449DA68A4B28A422DD1F2
:10377000802084421CD29B68204AA8F804409342CF
:1037800021D14020019B834207D3D8F800301B4A47
:103790009B68934229D13F230193DDE90003A8F8F8
:1037A000063005B0BDE8F08F002005B0BDE8F08F11
:1037B000DA6811498A4211D17F24DCE798476AE729
:1037C0004046984775E740469847DBE740469047B4
:1037D000D8F80030CDE7B8F804A0C1E740469047DC
:1037E0000138D8F8003084B2C5E740469847013820
:1037F00083B20193D1E700BF750A0008790A000877
:103800000021024A81600260704700BFF46901082C
:10381000FCEEC07A70EEA11AA1EE220A17EE90CA51
:10382000FCEEE17A2DE9F04717EE904AFCEEE07AE3
:1038300017EE906AFCEEC07A17EE907ABC4531D84C
:10384000A6422BD8BCF17F0F334694BF002501253B
:1038500008E091F814804EEA080E81F814E0013374
:103860009C421BD33F2BFAD8002DF8D1B5EE402A4D
:10387000D90803F0070E4FF001080CEBC111F1EE6F
:1038800010FA08FA0EFE0144E3D191F814A00133B6
:103890002AEA0E099C4281F81490E3D20CF1010C43
:1038A0006745CDD2BDE8F087FDEEC07A2DE9F04F37
:1038B00017EE90BAF8EEE77A2DED0A8BB4EEE71A20
:1038C00085B0F1EE10FA40F3BE80B7EEE0BA8A465A
:1038D000B0EE41CA0BF1FF358046CDF80CB09FED3C
:1038E0005CAB9FED5D0BB0EE4A8BB2EE007BD8F87F
:1038F0000030B0EE4B5B0399B0EE4B6B9C695C4BB8
:103900000E46AAEE075B9C42A0EE076BFCEEC57B61
:1039100017EE902AFCEEC67B17EE907A40F08C8072
:10392000BB1AA94234BF4FF0010B4FF0FF3B002BF5
:10393000B8BF5B42BA42C3F1010C6FD34FF0FF3105
:103940007F2D02910FD83F2F0DD8F90807F00704FB
:10395000012005EBC1114144BAF1000F65D0A04030
:103960000C7D2043087558427F2E13D83F2A11D86A
:10397000D10802F0070E06EBC1110C46BAF1000F98
:1039800041D04444012101FA0EF9217D49EA01099F
:1039900084F81490B0EB4C0F4FEA4C012EDA00295A
:1039A000ACEB030C5E4429DDAE42DDD19742DBD1A6
:1039B000039B0135013307EE903A0393F8EEE77A63
:1039C0009FED279BF4EECC7A38EE098BF1EE10FADE
:1039D000B7EEC88B37D5B7EEC88A9FED230B38EE0C
:1039E000499B28EE000B10F03FFAB0EE087BB0EEDA
:1039F00040AB29EE070B10F037FA76E702990CF18D
:103A0000010C0A44D0E74144012404FA0EF491F871
:103A100014E02EEA040E81F814E0BBE701213F2FE9
:103A20000291A0D87F2D90D99DE700FA04F4087D7B
:103A300020EA0400087596E72B4603994046CDE935
:103A4000007AA047B4E705B0BDEC0A8BBDE8F08F63
:103A5000000000000000000034BABA95CDE9D2BFE2
:103A60009A9999999999B93F6666666666660A4019
:103A7000E9300008F2EE006A0368B1EE087AF2EE6F
:103A8000027A30EE877A70EEE60A70EE277ABCEEA4
:103A9000C77AFCEEE06AFCEEE77A2DE9F04F2DEDF7
:103AA000028B87B0D3F8188016EE906AFCEEC06ADD
:103AB0000593B0EE408AA74B0746039117EE104AD4
:103AC000984516EE901A17EE905A40F02B81A5EB10
:103AD000010CA6EB0409BCF1000FB8BFCCF1000C3F
:103AE000B9F1000FB8BFC9F10009A94234BF4FF0C6
:103AF000010B4FF0FF3BB442ACEB0903C0F0BB80BD
:103B00004FF0FF327F2D049214D83F2E12D8039A23
:103B1000002A00F0BC80F2084FF0010E06F007000A
:103B200005EBC2120EFA00F03A4492F814E040EAB3
:103B30000E001075B44201D1A9422BD0C9F1000882
:103B400022467F2915D83F2A13D80398002800F071
:103B5000AC80D00802F0070A4FF0010E01EBC01054
:103B60000EFA0AFE384490F814A04EEA0A0E80F8C5
:103B700014E0B8EB430F4FEA430002DAA3EB09036A
:103B80005944844502DD0498634402448D42D8D1EF
:103B90009642D6D1F3EE027A059BD3F8188038EE20
:103BA000270A6C4B9845FCEEC07A17EE901A40F04D
:103BB000C480681AA6EB04080028B8BF4042B8F1D8
:103BC000000FB8BFC8F100088D428CBF4FF001094B
:103BD0004FF0FF39B442A0EB0802C0F088807F2D7F
:103BE0004FF0FF3A15D83F2E13D8039B002B00F05F
:103BF0008880F30806F0070E4FF0010C05EBC313A5
:103C00000CFA0EFC3B4493F814E04CEA0E0C83F8DB
:103C100014C0B44201D18D4228D0C8F1000E7F29D2
:103C200014D83F2C12D8039B002B4FD0E30804F08C
:103C3000070B4FF0010C01EBC3130CFA0BFC3B44D8
:103C400093F814B04CEA0B0C83F814C0BEEB420F8F
:103C50004FEA420302DAA2EB08024944984201DD2E
:103C6000024454448D42DAD1A642D8D107B0BDEC0B
:103C7000028BBDE8F08F01223F2E04923FF65EAF2B
:103C80007F2D3FF65BAF039A002A7FF444AFF20822
:103C9000012006F0070E05EBC21200FA0EFE3A44B0
:103CA000107D20EA0E00107544E7D0084FF0010E99
:103CB00002F0070A01EBC0100EFA0AFA384490F835
:103CC00014E02EEA0A0E80F814E052E7E3084FF001
:103CD000010C04F0070B01EBC3130CFA0BFB3B4484
:103CE00093F814C02CEA0B0C83F814C0AEE73F2EF7
:103CF0004FF0010A91D87F2D8FD8039B002B7FF4C2
:103D000078AFF3084FF0010C06F0070E05EBC31374
:103D10000CFA0EFE3B4493F814C02CEA0E0C83F808
:103D200014C076E7039B17EE102ACDE9006317EE67
:103D3000903AC0473B6805932CE7039B22463846E0
:103D4000CDE900632B46C04707B0BDEC028BBDE850
:103D5000F08F00BFE9300008B1EE007AF2EE027A8F
:103D6000FCEEC06A30EEC77A70EE277A2DE9F04F8C
:103D7000D0F800E08846C449BCEEC77ADEF8187077
:103D8000FCEEE77A06468F4217EE105A17EE904A7D
:103D90002DED028B85B0F0EE408AB0EE608ACDED5D
:103DA000036A40F0858116EE902A16EE903AA71A23
:103DB000002FB8BF7F42A242C0F01C817F2C4FF081
:103DC000FF3910D83F2D0ED8EA0805F00700012171
:103DD00004EBC2123244B8F1000F00F03F81814081
:103DE000107D01431175039AA24224D039462A4618
:103DF0007F2B15D83F2A13D8D00802F0070A4FF0BE
:103E0000010C03EBC0103044B8F1000F00F0048146
:103E10000CFA0AFC90F814A04CEA0A0C80F814C0C2
:103E2000480018BF4B44874201DD3944013A9C42A7
:103E3000DED19542DCD1F1EE0C7ADEF81890924B8F
:103E400078EE277A9945FCEEE77A17EE907A40F003
:103E50002581A7EB0509B9F1000FB8BFC9F1000929
:103E6000BD42C9F1000CC0F0E7807F2C4FF0FF3A53
:103E700010D83F2F0ED8FB0807F00701012204EBF2
:103E8000C3133344B8F1000F00F0F6808A40197D67
:103E90000A431A75BD4225D0624623467F2B13D8AC
:103EA0003F2D11D8E90805F0070B012003EBC111E4
:103EB0003144B8F1000F00F0B88000FA0BF091F82F
:103EC00014B040EA0B000875BCEB420F4FEA420108
:103ED00002DAA2EB0902013B01B155449C42DDD15B
:103EE000AF42DBD1B3EE020ADEF81850664A78EE34
:103EF000808A9542FCEEE87A17EE903A40F0E38033
:103F00001D1B002DB8BF6D429C42C0F09E807F2BD0
:103F10004FF0FF3C10D83F2F0ED8FA0807F00700EB
:103F2000012103EBC2123244B8F1000F00F09D8072
:103F30008140107D014311759C4223D029463A46A9
:103F40007F2C14D83F2A12D8D00802F0070A4FF06D
:103F5000010904EBC0103044B8F1000F53D009FA46
:103F60000AF990F814A049EA0A0980F81490480068
:103F700018BF6444854201DD2944013AA342DFD1E0
:103F80009742DDD1F2EE080A404FBDF80C5038EEF2
:103F9000208ABCEEC88A18EE103A9CB2DEF80C30CB
:103FA000BB4240F09C808020854205D3DEF80C3077
:103FB000BB4240F099807F25DEF80830B580344D53
:103FC000AB4240F089804020844205D333689B682F
:103FD000AB4240F090803F242E4B30462E49F48077
:103FE0000CCBCDF80080FDF797FB05B0BDEC028B44
:103FF000BDE8F08F3F2D4FF001093FF6F7AE7F2C63
:104000007FF6E2AEF2E609FA0AFA90F8149029EA8D
:104010000A0980F81490AAE70CFA0AFA90F814C07A
:104020002CEA0A0C80F814C0FAE600FA0BFB087DB3
:1040300020EA0B00087547E73F2F4FF0010A3FF6D3
:104040002BAF7F2C7FF617AF26E77F2B4FF0010CAD
:104050003FF674AF3F2F7FF660AF6FE701FA00F0D5
:10406000117D21EA00011175BDE601FA00F0117D14
:1040700021EA000111755FE702FA01F11A7D22EAD7
:1040800001021A7506E700BFE9300008750A00084A
:10409000790A000868020024946801082A46234629
:1040A00021463046CDE90078C847D6F800E019E748
:1040B00017EE903A17EE102A0399CDE90058B84749
:1040C000D6F800E0B7E621463A463046CDE900781A
:1040D000A847D6F800E055E73046984774E73046E1
:1040E0009847D6F800E05FE7304698470138D6F8A1
:1040F00000E085B260E730469847013884B26BE74C
:10410000B1EE087A0368F2EE007AFCEEC06A30EE97
:10411000877A70EEE77A2DE9F04F2DED028B85B0AE
:10412000D3F81890BCEEC77A07460293FCEEE77A04
:10413000AF4BB0EE608AF0EE408A8846994516EEA5
:10414000905A17EE104A17EE906A40F03081A6EBB5
:104150000409B9F1000FB8BFC9F10009B442C9F1AF
:10416000000EC0F0DF807F2D4FF0FF3A10D83F2EB9
:104170000ED8F30806F00701012205EBC3133B44F8
:10418000B8F1000F00F002818A40197D0A431A75C8
:10419000B44226D0F44623462A467F2A13D83F2B22
:1041A00011D8D90803F0070B012002EBC1113944E3
:1041B000B8F1000F00F0BF8000FA0BF091F814B0D6
:1041C00040EA0B000875BEEB4C0F4FEA4C0102DAD7
:1041D000ACEB090C013A01B153449542DDD19E424A
:1041E000DBD1F3EE027A029BD3F8189038EEA70ADF
:1041F0007F4B9945FCEEC07A17EE901A40F0CD80C7
:10420000681AA6EB04090028B8BF4042B9F1000FB4
:10421000B8BFC9F100098D428CBF4FF0010A4FF0C1
:10422000FF3AB442A0EB0903C0F095804FF0FF3293
:104230007F2D039215D83F2E13D8F20805EBC2123A
:104240003A44B8F1000F00F094804FF0010E06F0F0
:10425000070C0EFA0CFC92F814E04CEA0E0C82F8F3
:1042600014C08D4201D1B44229D0C9F1000E7F297A
:1042700014D83F2C12D8E20804F0070B4FF0010CC1
:1042800001EBC2123A44B8F1000F5BD00CFA0BFC00
:1042900092F814B04CEA0B0C82F814C0BEEB430F3A
:1042A0004FEA430202DAA3EB09035144904202DDD4
:1042B000039A034414448D42D9D1A642D7D1F2EED9
:1042C000080A4C4EADB238EE208ABCEEC88A18EE11
:1042D000103A9CB2029BDB68B34277D180208542C2
:1042E00004D3029BDB68B34275D17F25029B9B6898
:1042F000BD80414DAB4266D14020844204D33B682F
:104300009B68AB426ED13F243C4B38463C49FC8015
:104310000CCBCDF80080FDF7FFF905B0BDEC028BAA
:10432000BDE8F08F3F2E4FF0010A3FF633AF7F2DEF
:104330007FF61FAF2EE700FA0BFB087D20EA0B008B
:10434000087540E70CFA0BFB92F814C02CEA0B0C32
:1043500082F814C0A2E701223F2E039285D87F2D58
:1043600083D8F20805EBC2123A44B8F1000F7FF48B
:104370006CAF4FF0010C06F0070E0CFA0EFE92F82F
:1043800014C02CEA0E0C82F814C06AE702FA01F19C
:104390001A7D22EA01021A75FAE62B4622463846B1
:1043A0000096CDF80480C8473B68029387E716EE75
:1043B000903A17EE102ACDE9006116EE901AC84720
:1043C0003B6802930DE73846984796E7384698478A
:1043D0003B68029383E7384698473B68451E029343
:1043E000ADB283E738469847013884B28CE700BF06
:1043F000E9300008750A0008790A000868020024FC
:10440000986801082DE9F04184B0064614460A9DDB
:104410009DF82C7002910393032D3CD8DFE805F042
:1044200002A0703EDDED037A3946DFF83C820C34A1
:10443000B8EEE71A07EE902AA4B2F8EEE70ADDED2F
:10444000027AB8EEE70AFFF72FFA3368BDF8085092
:10445000DA68424540F0C0808020854204D3DA68A3
:10446000424540F0EF807F259B68B580784DAB4298
:1044700040F0BF804020844205D333689B68AB4244
:1044800040F0C0803F24734B7349F48030460CCB1E
:104490000097FDF741F904B0BDE8F081DDED037A46
:1044A0003946DFF8C4810C34B8EEE71A07EE902ADB
:1044B000A4B2F8EEE70ADDED027AB8EEE70AFFF7FC
:1044C0001FFE3368BDF80850DA68424578D1802075
:1044D000854204D3DA68424540F0A9807F259B6875
:1044E000B5805B4DAB427ED14020844205D333681A
:1044F0009B68AB4240F0A1803F24564B5749C4E72C
:10450000DDED037A3946DFF860810C34B8EEE71A46
:1045100007EE902AA4B2F8EEE70ADDED027AB8EED3
:10452000E70AFFF719FC3368BDF80850DA6842451E
:104530004AD18020854203D3DA68424567D17F257E
:104540009B68B580424DAB424AD14020844204D39F
:1045500033689B68AB4265D13F243E4B404994E7AA
:10456000DDED037A3946DFF800810C34B8EEE71A46
:1045700007EE902AA4B2F8EEE70ADDED027AB8EE73
:10458000E70AFFF777FA3368BDF80850DA68424562
:104590001ED18020854203D3DA6842452CD17F2585
:1045A0009B68B5802A4DAB4220D14020844204D381
:1045B00033689B68AB4230D13F24264B294964E7DE
:1045C00030469047336883E7304690473368B1E719
:1045D000304690473368DDE73046904733683CE724
:1045E00030469847B2E7304698477EE730469847CE
:1045F000DCE7304698473EE730469047013833685D
:1046000085B2CDE730469847013884B23BE7304663
:1046100090470138336885B292E7304698470138B1
:1046200084B2CAE730469847013884B295E73046ED
:104630009047451E3368ADB251E730469847013880
:1046400084B25AE7304690470138336885B20BE7A9
:10465000790A0008680200249C680108986801082B
:1046600094680108A0680108750A000800000000AD
:10467000BCEEE07AFCEEC07A2DE9F04F2DED088B10
:1046800089B017EE108ABCEEC17A4FF48775B0EE90
:1046900041AA0692B0EE408AB4228B460291019262
:1046A00017EE901A42469A46009517EE103A17EE0A
:1046B000907AF0EE60AAF0EE67BA04468DED057AC6
:1046C000FEF792FD78EE4A7A6FF0B302059B204622
:1046D00001924246FCEEE77A0095CDF808B017EE5D
:1046E000906A17EE901AFEF77FFD7AEECA7AF11BF8
:1046F0000029FCEEE77AB8BF49427F2E17EE90CA38
:1047000094BF4FF000094FF00109B742C0F0738128
:104710004FF0FF33BCF13F0F059314D8B9F1000FF0
:1047200011D14FEADC030CF00700012206EBC313A2
:104730002344BBF1000F00F01A828240187D4FF035
:10474000000902431A751BEE903AB34200F01B8237
:10475000084663461BEE902A7F2A13D83F2B11D8B8
:10476000DD0803F0070E012702EBC5152544BBF158
:10477000000F00F0238107FA0EF795F814E047EADE
:104780000E072F75450001D0059F3A44A94201DD6F
:104790000844013B9642DFD19C45DDD17AEE8A7A0E
:1047A000FCEEE77A17EE90CABCF13F0F94BF4B4680
:1047B00049F0010383B94FEADC020CF00705012040
:1047C00006EBC2122244BBF1000F00F09481A84016
:1047D000157D284310752BBB084663461BEE902AB7
:1047E0007F2A13D83F2B11D8BBF1000F00F0ED80CA
:1047F000DF0803F0070E012502EBC71705FA0EF5D7
:10480000274497F814E045EA0E053D75450001D0B0
:10481000059F3A448D4201DA0844013B9642DFD1BC
:104820009C45DDD1B7EEC88A2268B7EECA6AB7EEFA
:104830000C3BD368B0EE485BB7EEEA7AB0EE044BBF
:10484000A6EE435BA6EE447BB1EE469BBCEEC55B99
:1048500015EE101ABCEEC77B8FB217EE101A1FFAB6
:1048600081F9B9498B4240F0A1818020874205D36C
:10487000D368B5498B4240F0A3817F279368A78016
:10488000B24FBB4240F08F814020814506D3236860
:104890009B68BB4240F08E814FF03F09AC4B5146C4
:1048A000A4F806902046CDF800B00CCBFCF734FFFE
:1048B000F7EE007A069BB4EEE7AA002B00F0938097
:1048C000F1EE10FAC0F292800123B6EE00BA1BEEB0
:1048D00090AA06939F4B2AEE0BBA05932EE08020F8
:1048E000814506D3DA6898498A4240F039814FF011
:1048F0007F099B68A4F80490BB4240F009814020E6
:10490000864205D323689B68BB4240F009813F265D
:10491000069B2046059A01338F491D4606930CCA13
:10492000E680CDF800B0FCF7F7FE07EE905AF8EEFF
:10493000E77AF4EECA7AF1EE10FA57D87BEE677A8E
:1049400022684FF4B4790026CDF808B05146FCEE49
:10495000E77A2046CDE90069126A17EE903ACDED6C
:10496000077A15464246A8472268079B514600969B
:104970002046CDE9019B166A4246B047B0EE087A60
:10498000B0EE486B2368CAEE077ADA689FED6A5B7F
:10499000A9EE056B7AEEE77ABCEEC66BFCEEE77A21
:1049A00016EE101A1FFA81F917EE901A8EB26649A8
:1049B0008A4294D020469047236891E707FA0EFE7A
:1049C0002F7D27EA0E072F75DCE6DD08012703F0AF
:1049D000070E02EBC51507FA0EFE25442F7D27EAC8
:1049E0000E072F7512E7F1EE10FA0FDA09B0BDECE1
:1049F000088BBDE8F08F0123BCF13F0F05933FF614
:104A0000A7AEB9F1000F3FF48CAEA1E60123B6EEDC
:104A100000BAB24606934F4B2AEE0BBA05932BE031
:104A20008020814505D3DA6847498A427DD14FF01D
:104A30007F099B68A4F80490BB4266D1402086425F
:104A400004D323689B68BB4265D13F26069B204662
:104A5000059A013341491D4606930CCAE680CDF8FC
:104A600000B0FCF759FE07EE905AF8EEE77AF4EE44
:104A7000CA7AF1EE10FAB9D87BEE677A22684FF461
:104A8000B479002651462046FCEEE77ACDF808B00E
:104A9000CDE9006917EE903ACDED077A156A4246E6
:104AA000A8472268079B514600962046CDE9019B06
:104AB000166A4246B047B0EE087AB0EE486B2368FB
:104AC000CAEE077ADA689FED1E5BA9EE056B7AEEF7
:104AD000E77ABCEEC66BFCEEE77A16EE101A1FFA08
:104AE00081F917EE901A8EB217498A4298D0204663
:104AF0009047236895E700FA05F5107D20EA050048
:104B00001075002B3FF468AE8CE62046984796E778
:104B100020469847F4E620469847013886B295E744
:104B200020469847013886B2F2E620469047013881
:104B300023681FFA80F97CE79A9999999999F53F2A
:104B4000333333333333C33F750A0008790A00081F
:104B50007002002468020024A4680108A868010803
:104B600020469047013823681FFA80F9C1E602FA0F
:104B700000F01A7DD94622EA00021A751BEE903A1F
:104B8000B3427FF4E5AD7AEE8A7AFCEEE77A17EE6F
:104B900090CABCF13F0F3FF645AEB9F1000F7FF46C
:104BA00041AE012307E6204698476EE62046984727
:104BB00022685BE62046984701381FFA80F96DE6C7
:104BC000204698470138226887B257E60000000067
:104BD000FCEEC07A2DE9F04F17EE90BAFCEEE07AC9
:104BE00000260D46044617EE90AAFCEEC17A2DED84
:104BF0000C8B89B0B0EE41AAF0EE60AA0DEE103A2F
:104C000007926FF0B30217EE903A02910096594660
:104C100001925246B0EE40CACDED057AFEF7E4FAB5
:104C20007AEECACAB4220096059B5946FCEEEC7A8D
:104C300001922046029517EE906A17EE902ACDED6C
:104C4000057AFEF7D1FAA6EB0A077CEE4A7A002F26
:104C5000FCEEE77AB8BF7F42B24517EE90EAC0F0AB
:104C600073813F2E3346C7F100004FF0FF3994BFE8
:104C700000230123BEF17F0F069311D883B9059A53
:104C8000D30802F0070101220EEBC3132344002DC9
:104C900000F02E828A40197D0A431A75002306937C
:104CA000059B9A4500F02F820246534671467F29A4
:104CB00014D83F2B12D8DE0803F007084FF0010C80
:104CC00001EBC6162644002D00F024810CFA08FCE6
:104CD00096F814804CEA080C86F814C0B0EB420F2A
:104CE0004FEA420601DAD21B013906B14B448E4528
:104CF000DDD1059E9E42DAD17CEE0A7A069BFCEE5F
:104D0000E77A17EE90EABEF17F0F88BF43F0010308
:104D100083B90599CA080EEBC2122244002D00F097
:104D2000A481012601F0070106FA01F1167D314345
:104D300011753BBB0246534671467F2914D83F2B61
:104D400012D8DE0803F007084FF0010C01EBC6167D
:104D50002644002D00F0E7800CFA08FC96F8148039
:104D60004CEA080C86F814C0B0EB420F4FEA42063A
:104D700001DAD21B013906B14B448E45DDD1059EC7
:104D80009E42DAD1B7EECC9A2368B7EECA7AB7EE74
:104D90000C6BDA68B7EEEABAB0EE495BB0EE044BE2
:104DA000B1EE478BA7EE465BB0EE4B6BA7EE446BC4
:104DB000BCEEC55B15EE101A8EB2BCEEC66B16EEDD
:104DC000101A8FB2B8498A4240F0B08180208642E2
:104DD00005D3DA68B4498A4240F0B1817F269B68E6
:104DE000A680B24EB34240F09E814020874205D358
:104DF00023689B68B34240F09D813F27AC4B1DEE7A
:104E0000101AE780204600950CCBFCF785FCF7EEE6
:104E1000007A079BB4EEE7AA002B00F08D80F1EE3C
:104E200010FAC0F28C800123F6EE009AB1EE4A9A95
:104E30000593A04B6AEE299A06932CE080208045CA
:104E400006D3DA6898498A4240F04B814FF07F08D8
:104E50009B68A4F80480B34240F017814020874249
:104E600005D323689B68B34240F02F813F27059B01
:104E70002046069A0133904905930CCAE7800095B5
:104E8000FCF74AFCDDED057AF8EEE77AF4EECA7A33
:104E9000F1EE10FA53D879EEE77A22684FF4B4783D
:104EA000002759462046FCEEE77A0295CDE90078C6
:104EB00017EE903ACDED077AD2F820905246C847C7
:104EC0002268079B594600972046CDE90185176A5D
:104ED0005246B847B0EE4B7BB5EE006A2368F0EE61
:104EE0004C6ADA689FED6A5BE9EE066AA8EE057B1C
:104EF000FCEEE66A16EE901A1FFA81F8BCEEC77B4C
:104F000017EE101A8FB268498A4297D02046904710
:104F1000236894E70CFA08F896F814C02CEA080CF9
:104F200086F814C0DAE60CFA08F896F814C02CEAF1
:104F3000080C86F814C017E7F1EE10FA15DA09B07C
:104F4000BDEC0C8BBDE8F08F059B78424FF001095A
:104F50003F2B94BF00230123BEF17F0F06933FF642
:104F6000A3AE002B3FF48BAE9EE6B7EEEC6A0123B6
:104F7000B6EE00BA05934F4B2AEE0BBA06939FED9F
:104F8000465B26EE056BBCEEC67B17EE109A2BE057
:104F90008022904506D3DA6843498A4240F09A80DD
:104FA0004FF07F089B68A4F80480B3426AD1402088
:104FB000874205D323689B68B34240F081803F2736
:104FC000059B2046069A01333C4905930CCAE780AD
:104FD0000095FCF7A1FBDDED057AF8EEE77AF4EE3B
:104FE000CA7AF1EE10FAAAD87BEE677A22684FF4FB
:104FF000B478002759462046FCEEE77A0295CDE9C1
:10500000007817EE903ACDED077AD2F820A04A4604
:10501000D0472268079B594600972046CDE9018575
:10502000176A4A46B847B0EE087AB0EE496B236873
:10503000CAEE077ADA689FED1A5BA8EE056B7AEE86
:10504000E77ABCEEC66BFCEEE77A16EE101A1FFA92
:1050500081F817EE901A8FB213498A4298D02046F1
:10506000904723680246079093E701F00706012165
:1050700001FA06F6117D21EA06011175002B3FF4B5
:1050800059AE7FE62046984792E720469847E6E6E5
:10509000333333333333F73F0AD7A3703D0AEF3F3F
:1050A000333333333333C33F750A0008790A0008BA
:1050B0007002002468020024AC680108B06801088E
:1050C00020469847013887B27AE720469847471E1E
:1050D000BFB2CCE620469047013823681FFA80F81B
:1050E00060E720469047013823681FFA80F8AFE652
:1050F00002FA01F11A7D069522EA01021A75059B52
:105100009A457FF4D1AD7CEE0A7AFCEEE77A17EE91
:1051100090EABEF17F0F3FF635AE069B002B7FF481
:1051200031AE0123F5E5204698475FE620469047DB
:1051300023684CE620469847013887B25EE6204651
:1051400090470138236886B249E600BF704700BF28
:10515000704700BF704700BF704700BF704700BF77
:10516000704700BF002A4AD0013A2DE9F0470C46AB
:105170000025DFF8A0905708214EDFF89CA0DFF84B
:105180009C802DED028B99F8001008341D480EF01C
:105190008BF9B6EE005BB7EEC00ADAED5B7A184821
:1051A000B8EEE76BDAED5C7A20EE050BB8EEE77B44
:1051B00026EE006B27EE000BB7EEC66BB7EEC00B0A
:1051C00086ED016A86ED0B0A0EF01AFAB0EE408AFF
:1051D0000D480EF015FA0D490D4838EE008A0EF014
:1051E000DDF9AF4288ED000A05F1010504ED028A00
:1051F00004ED018AC7D1BDEC028BBDE8F087704792
:105200009879002460040024C079002490040024CC
:10521000D004002491040024007E0024E8790024B6
:1052200084B070B5ADF5027D86AC84E80F009DF8C2
:1052300018420A469DF820629DF82152B4B1012C13
:105240000ED12849334602A8009510F011FA02A8A1
:10525000FBF750F802A90246234801F0D5FFEDB94B
:105260000DF5027DBDE8704004B070471F4933461C
:1052700002A8009510F0FCF902A8FBF73BF802A980
:105280000246194801F0C0FF002DE9D0184B1C70F0
:105290000DF5027DBDE8704004B07047154B06EE79
:1052A000906ADFED154A07EE906A93ED246AB5EE39
:1052B000005B93ED251AF8EE660AB8EEE77B0F481F
:1052C000B8EEC66B81EE241AA6EE057BB7EEC70BCF
:1052D0000EF04EF9064B1C700DF5027DBDE87040D6
:1052E00004B07047246A0108B8040024406A010829
:1052F00091040024007E00240000C842D004002451
:105300002DE9F04101268CB0074604468046019104
:105310008672002527F8081F384601F0A3FFBDF864
:105320000630A67128F8043F404601F09BFFA74BCA
:10533000204606960293A64B0595CDE90335022338
:10534000CDE90A3308230DEB03010793CDE9085596
:1053500003F00EF82946404602F06EF80A2004F0E9
:10536000C5F83146404602F067F80A2004F0BEF85E
:10537000AE23294638468DF8083002F05DF83246F3
:1053800002A96423204603F075F8D5232946384640
:105390008DF8083002F050F8324602A96423204606
:1053A00003F068F88023294638468DF8083002F06B
:1053B00043F8324602A96423204603F05BF8A82391
:1053C000294638468DF8083002F036F8324602A9F0
:1053D0006423204603F04EF83F23294638468DF8D3
:1053E000083002F029F8324602A96423204603F06F
:1053F00041F8DA23294638468DF8083002F01CF8C7
:10540000324602A96423204603F034F812232946C9
:1054100038468DF8083002F00FF8324602A96423AE
:10542000204603F027F8D323294638468DF8083064
:1054300002F002F83246642302A9204603F01AF86B
:10544000294638468DF8085001F0F6FF324602A989
:105450006423204603F00EF84023294638468DF891
:10546000083001F0E9FF324602A96423204603F028
:1054700001F8A623294638468DF8083001F0DCFFF4
:10548000324602A96423204602F0F4FFA4232946F1
:1054900038468DF8083001F0CFFF324602A9642368
:1054A000204602F0E7FF8D23294638468DF8083064
:1054B00001F0C2FF324602A96423204602F0DAFF5F
:1054C0001423294638468DF8083001F0B5FF3246DE
:1054D00002A96423204602F0CDFFA12329463846C5
:1054E0008DF8083001F0A8FF324602A96423204657
:1054F00002F0C0FFC823294638468DF8083001F075
:105500009BFF324602A96423204602F0B3FF8123A9
:10551000294638468DF8083001F08EFF324602A940
:105520006423204602F0A6FF8F23294638468DF8D3
:10553000083001F081FF324602A96423204602F0C0
:1055400099FFD923294638468DF8083001F074FFB9
:10555000324602A96423204602F08CFF2523294607
:1055600038468DF8083001F067FF324602A96423FF
:10557000204602F07FFFDB23294638468DF80830AD
:1055800001F05AFF324602A96423204602F072FF5E
:105590003423294638468DF8083001F04DFF324655
:1055A00002A96423204602F065FFAF23294638464E
:1055B0008DF8083001F040FF6423324602A92046EE
:1055C00002F058FF0CB0BDE8F08100BF060B0B00E5
:1055D0000105060A03792DE9F0410546BAB0032B0F
:1055E0000CD8DFE803F0671C020E00F5E04494F8E5
:1055F0009834194200F0928000232B713AB0BDE834
:10560000F081F72900F0B28090F87630632B00F239
:10561000AD80C2180133917480F87630EEE700F562
:10562000E04494F898341942E6D194F89A8401EA57
:10563000080880F8108094F888743B1F012B06D965
:1056400090F8773003F0FD03012B40F0B980002380
:105650006E46742205F1080130462B710FF0FEFEF4
:10566000D4F87C34D4F88024013B9B1ADBB2002BA5
:10567000F6D0742231460DEB02000FF0EFFED4F8A5
:10568000806474221DA902FB06500136F6B27C30FC
:105690000FF0E4FEC4F88064B8F1770FAED9032FA1
:1056A000ACD10923A8F178012B7284F8883485F8ED
:1056B0007910A3E700F5E04494F89834194221D01A
:1056C00094F89C340B40C36094F899340B401B0948
:1056D000092B037292D80122072B027184F88834B7
:1056E0008CD10023C36011F0080040F0948001F0D9
:1056F000070385F87730002B65D1032285F87630D3
:105700002A717BE794F888340222037294F89A3461
:105710000271194001743AB0BDE8F08194F89A34EE
:105720006E4674221940417400F1080130460FF0B2
:1057300095FED4F87C34D4F88024013B9B1ADBB26C
:10574000002BF6D0742231460DEB02000FF086FEDE
:10575000D4F8806474221DA902FB06500136F6B20B
:105760007C300FF07BFEC4F8806445E700236E4672
:10577000742205F1080130462B7105F5E0440FF065
:105780006DFED4F87C34D4F88024013B9B1ADBB244
:10579000002BF6D0742231460DEB02000FF05EFEB6
:1057A000D4F8806474221DA902FB06500136F6B2BB
:1057B0007C300FF053FEC4F880643AB0BDE8F0814D
:1057C0000223037168E74B077FF518AF6E46287117
:1057D000742205F1080130460FF040FED4F87C3405
:1057E000D4F88024013B9B1ADBB2002BF6D0742244
:1057F00031460DEB02000FF031FED4F880647422C4
:105800001DA902FB06507C300FF028FE731CDBB292
:10581000C4F88034F2E608226E462A72304684F8D4
:10582000882494F89E242B711140742285F87810F6
:1058300005F108010FF012FED4F87C34D4F880246E
:10584000013B9B1ADBB2002BF6D0D0E72DE9F04FDD
:10585000AA484FF07C58AA4E4FF00009A94F0025E6
:1058600040F20114DFF8D4B2DFF8D4A22DED048B9E
:10587000ADF26C5DDFEDA48A00F020FB00219F48B3
:1058800000F09EFBD6F86421A04906F1A4000FF0B9
:10589000EFFED6F868219D4906F1BC000FF0E8FE46
:1058A000D6ED5D7A9A4906F1D40067EEA87A9FEDAD
:1058B000999AFDEEE77A17EE902A0FF0D9FED6ED11
:1058C0005E7A934906F1EC0067EEA87AFDEEE77A7E
:1058D00017EE902A0FF0CCFE00218F4801F00EFC4D
:1058E000FA2003F003FE854800F028FB0920B0EE03
:1058F000408A00F009FBADF88C001E2000F004FB8C
:10590000ADF88E00239985485591FFF7F9FC1B20CF
:1059100000F0FAFAADF86C00B0EE480A1B9906F1F7
:105920004C0001F0A5FB1A2000F0EEFAADF8700073
:10593000B0EE480A1C9906F15C0001F099FB1020BA
:1059400000F0E2FAADF87400112000F0DDFAADF8D5
:1059500078000F2000F0D8FAADF87C00B0EE480ACD
:105960001F9B06F10C00DDE91D1201F02BFB13203B
:1059700000F0CAFAADF88000142000F0C5FAADF8C6
:105980008400122000F0C0FAADF88800219AB0EE31
:10599000480A229B06F12C00209901F013FB604974
:1059A000564800F0C7FAF7EE007A3846B0EE680ABB
:1059B000C7F80480C7EE889AC7F8149087ED038A69
:1059C000C7ED028AC7ED049A0DF0FCFF384687ED5B
:1059D000060AB0EE490AC7F80480BC8487ED029A33
:1059E0003D700DF0EFFF07F1280087ED060AB0EEDD
:1059F000680AC7F83C90C7F82C8087ED0D8AC7ED80
:105A00000E9AC7ED0C8A0DF0DDFF07F12800A7F80C
:105A10004C4087ED100AB0EE490A424CC7F82C8082
:105A200087F8285087ED0C9A0DF0CCFF3E4887EDA3
:105A3000100AB0EE480A0DF08FFD2046B0EE480A7D
:105A400001210DF039FC20469FED380A01210DF0AF
:105A5000A3FC20469FED360A02210DF09DFC204656
:105A6000B5EE000A04210DF097FC0122314B55A937
:105A700057925A92304AC4F800800DF1E00802F5BE
:105A8000E0441A685895C4F88C2404F29440569265
:105A90001A79DFF8B0908DF856215A798DF8572190
:105AA0009A798DF85421DA795B688DF85521C4F81C
:105AB000903447F612235B930223599303F0AAFB19
:105AC000A4F5E0420A23C4F8805404F29440C4F8D8
:105AD0007C541571137203F01FFCF7EE007A96EDFB
